:020000040800F2
:1000000068230020750200083940000859330008B1
:10001000CD3E0008D1070008C94D000800000000CF
:10002000000000000000000000000000DD010008EA
:10003000D108000800000000210200080745000860
:100040008F0200088F0200088F0200088F0200084C
:100050008F0200088F0200088F0200088F0200083C
:100060008F0200088F0200088F0200088F0200082C
:1000700085080008950800088F0200088F02000814
:100080008F0200088F0200088F0200088F0200080C
:100090008F0200088F0200088F0200088F020008FC
:1000A0008F0200088F0200088F0200088F020008EC
:1000B0008F0200088F0200088F0200088F020008DC
:1000C0008F0200088F0200088F0200088F020008CC
:1000D0008F0200088F0200088F020008B94D000847
:1000E0008F0200088F0200088F0200088F020008AC
:1000F0008F0200088F0200088F0200088F0200089C
:100100008F0200088F0200088F0200088F0200088B
:100110008F0200088F0200088F0200088545000842
:100120008F0200088F0200088F0200088F0200086B
:1001300000F002F800F042F80AA090E8000C8244B7
:100140008344AAF10107DA4501D100F037F8AFF294
:10015000090EBAE80F0013F0010F18BFFB1A43F0A5
:10016000010318474871000068710000103A24BF6D
:1001700078C878C1FAD8520724BF30C830C144BF0C
:1001800004680C607047000000230024002500264E
:10019000103A28BF78C1FBD8520728BF30C148BFEA
:1001A0000B607047642900F09980752900F09680F3
:1001B000002070471FB51FBD10B510BD00F067FAD5
:1001C0001146FFF7F7FF04F076FE00F085FA03B45E
:1001D000FFF7F2FF03BC00F08DFA0000224B196814
:1001E0000868B0E8F00F80F30988BFF36F8F4FF015
:1001F000000080F311884EF00D0E704700000000E3
:1002000006480068006880F3088862B661B6BFF3EC
:100210004F8FBFF36F8F00DF00BF00BF08ED00E01E
:10022000EFF30980BFF36F8F0F4B1A6820E9F00FCF
:10023000106008B54FF0500080F31188BFF34F8F66
:10024000BFF36F8F06F068F84FF0000080F311885D
:10025000BDE8084019680868B0E8F00F80F3098825
:10026000BFF36F8F704700BF4C000020EFF3058095
:10027000704700000948804709480047FEE7FEE74D
:10028000FEE7FEE7FEE7FEE7FEE7FEE7FEE7FEE746
:1002900004480549054A064B70470000834500089D
:1002A00031010008681D002068230020681F00201D
:1002B000681F00200FB41CB5074B06AA7B44694693
:1002C0000090059800F0A9F90020694600F0B8F9FF
:1002D0001CBC5DF814FB0000810300002DE9F04117
:1002E0000646002410687529314616A510D0AFF3D4
:1002F0000080002802DA404213A507E031688A072F
:1003000001D512A502E0490704D511A5012401E099
:10031000AFF3008000210A2206F1240709E0B0FBB8
:10032000F2FCB0FBF2F302FB1C00303078541846AC
:10033000491C0028F3D123462A463046BDE8F04147
:1003400000F00DB9000000002D0000002B0000009F
:10035000200000002DE9F0410F46054600202862EC
:100360002846E968884770B3252805D0D5E90121DA
:100370009047286A401CF2E7E9682846002688472B
:100380006C2804460AD0682C08D04C2C35D06A2C36
:1003900031D0742C31D07A2C2FD016E0E968064683
:1003A00028468847B042044608D16C2E23D04FF42B
:1003B00080662846E9688847044606E06C2E03D02C
:1003C0004FF4807601E01EE04026E4B1A4F1410044
:1003D000192802D8203446F400663A4621462846B9
:1003E0002E60FFF7DFFE60B1012808D0FF1D27F067
:1003F00007070837B4E78026DBE70026D9E73F1D6B
:10040000AEE72046B2E7286ABDE8F081032A40F251
:10041000308010F0030C00F0158011F8013BBCF1A6
:10042000020F624498BF11F801CB00F8013B38BFBE
:1004300011F8013BA2F1040298BF00F801CB38BFCC
:1004400000F8013B11F0030300F02580083AC0F0EA
:10045000088051F8043B083A51F804CBA0E8081092
:10046000F5E7121D5CBF51F8043B40F8043BAFF3C5
:100470000080D20724BF11F8013B11F801CB48BF1F
:1004800011F8012B24BF00F8013B00F801CB48BF55
:1004900000F8012B704710B5203AC0F00B80B1E88E
:1004A0001850203AA0E81850B1E81850A0E81850A9
:1004B000BFF4F5AF5FEA027C24BFB1E81850A0E8B2
:1004C000185044BF18C918C0BDE810405FEA827CCC
:1004D00024BF51F8043B40F8043B08BF7047D207E3
:1004E00028BF31F8023B48BF11F8012B28BF20F884
:1004F000023B48BF00F8012B704702F0FF0343EABC
:10050000032242EA024200F0A2B84FF0000200B516
:10051000134694469646203922BFA0E80C50A0E826
:100520000C50B1F12001BFF4F7AF090728BFA0E8D4
:100530000C5048BF0CC05DF804EB890028BF40F8A0
:10054000042B08BF704748BF20F8022B11F0804FE2
:1005500018BF00F8012B70477047704770472DE9AE
:10056000F0470D4699469246044600F1240801687A
:10057000880604D5E06921F01001216000E0012027
:10058000A84201DD471B00E00027A1697A1902EBB0
:100590000900081AA0612078C00602D42046AFF3F3
:1005A0000080002608E0D4E901211AF806009047EF
:1005B000206A401C761C20624E45F4DB2078C00681
:1005C0000AD52046AFF3008006E0D4E901213020AF
:1005D0009047206A401C2062381EA7F10107F4DC16
:1005E00007E0D4E9012118F805009047206A401C73
:1005F0002062281EA5F10105F3DC2046AFF3008040
:100600002078000602D50220BDE8F0870120FBE734
:1006100001694A1C02610878704700B58FB0CDE9C6
:1006200001310021059105497944CDE903101146B6
:100630006846FFF78FFE0FB000BD0000E5FFFFFF2B
:100640000A6802F8010B0A6070474FF000020429A3
:10065000C0F0128010F0030C3FF459AFCCF1040C41
:10066000BCF1020F18BF00F8012BA8BF20F8022B25
:10067000A1EB0C01FFF74BBF5FEAC17C24BF00F880
:10068000012B00F8012B48BF00F8012B704775467D
:1006900000F02CF8AE4605006946534620F00700EE
:1006A000854618B020B5FFF7F3FDBDE820404FF0B8
:1006B00000064FF000074FF000084FF0000B21F04C
:1006C0000701AC46ACE8C009ACE8C009ACE8C00919
:1006D000ACE8C0098D46704710B50446AFF3008002
:1006E0002046BDE81040FFF772BD0000004870478B
:1006F000081D002001491820ABBEFEE726000200BD
:100700007047000010B501220249034802F0CCFDF9
:1007100010BD0000160100201C03002010B5184871
:10072000007860B30020164908701648007898B920
:1007300003F0C2FD01201349087000F061FF124967
:10074000086001201149087000F05AFF1049086044
:1007500000201049087012E000200A4908700021AA
:10076000084603F001FC0021012003F0FDFB0021FD
:10077000022003F0F9FB0021032003F0F5FB10BD7C
:1007800017010020E5000020040100200C010020DA
:10079000100100201401002010B50446084920680B
:1007A00088420BD107480078312802D10120064940
:1007B000087001220349054802F076FD10BD0000D3
:1007C0000048004016010020170100201C030020F3
:1007D00000BFFEE710B500224FF48051014800F041
:1007E00009FF10BD000C014010B504460120064968
:1007F00008700648046000F003FF05490860012006
:1008000000F008F810BD00003C000020400000206F
:100810004400002010B504460CB1012000E0002087
:1008200002464FF48051024800F0E4FE10BD000083
:10083000000C014010B5002006490870142006493C
:10084000086000F0DDFE054908600120FFF7E2FFC7
:1008500010BD00003C0000204000002044000020AB
:1008600000B589B0242205496846FFF714FE6A46A0
:100870000021034804F098FB09B000BD1072000885
:100880004143000810B5024800F098FA10BD00007E
:10089000A803002010B5024800F090FA10BD000037
:1008A0006403002030B590F840500124AC40C56B83
:1008B0006C60046863604468102C04D10468A26012
:1008C0000468E16003E00468A1600468E26030BD90
:1008D000704710B5044600F077F810BD10B547F624
:1008E000FF700E49096848620D49096848620D4960
:1008F000096848620C49096848623C21074801F0D0
:10090000E5FF3C21064801F0E1FF3C21054801F0EC
:10091000DDFF3C21044801F0D9FF10BDB4010020E7
:10092000FC010020440200208C02002010B5024689
:10093000002032B1012A12D0022A1ED0032A38D157
:1009400029E01D4B1B685B6A99B247F6FF735B1A7F
:1009500018B247F6FF73184C246863622AE0174BFD
:100960001B685B6A99B247F6FF735B1A18B247F6C9
:10097000FF73124C246863621CE0114B1B685B6AB6
:1009800099B247F6FF735B1A18B247F6FF730C4C27
:10099000246863620EE00B4B1B685B6A99B247F6F2
:1009A000FF735B1A18B247F6FF73064C2468636244
:1009B00000E000BF00BF10BDB401002044020020D1
:1009C0008C020020FC01002000B50020FFF7AEFFE4
:1009D0000E490968081A0D4908600120FFF7A6FFB3
:1009E0000B49096808440A4908600220FFF79EFF86
:1009F000084909680844074908600320FFF796FF83
:100A000005490968081A0449086000BD2C00002047
:100A100030000020340000203800002072B600BFF3
:100A2000FEE7000010B504465048007880B9002168
:100A3000084603F099FA0021012003F095FA0021FD
:100A4000022003F091FA0021032003F08DFA10BD7B
:100A5000052C54D2DFE804F003172B3F5400632128
:100A6000002003F081FA6321012003F07DFA632165
:100A7000022003F079FA6321032003F075FA0020C5
:100A80003B4908705EE06321002003F06DFA3C21D1
:100A9000012003F069FA3C21022003F065FA63218A
:100AA000032003F061FA0020314908704AE03C213C
:100AB000002003F059FA6321012003F055FA632165
:100AC000022003F051FA3C21032003F04DFA0020EC
:100AD0002749087036E000202449087000210846A4
:100AE00003F042FA0021012003F03EFA0021022027
:100AF00003F03AFA0021032003F036FA22E000BFA7
:100B00000021084603F030FA0021012003F02CFAFE
:100B10000021022003F028FA0021032003F024FA28
:100B20001248007801280CD11148007848B90120FA
:100B3000104908700E4908700F49087000200B49D1
:100B4000087000BF00BF0948007801280BD10B488E
:100B5000006840B1032C06D000F052FD0749096837
:100B6000401A0749086000BF71E70000E500002057
:100B7000150100204B00002014010020040100207A
:100B80000801002010B5044604B910BD20210A4810
:100B900000F028FD20600821074800F023FD606078
:100BA0001021054800F01EFDE0600421024800F01D
:100BB00019FD206100BFE8E700080140014600225E
:100BC00091F82100022808D00420886300BF00208B
:100BD00081F8200000BF012070470868006820F0FD
:100BE0000E000B6818600868006820F001000B68B0
:100BF000186091F8403001209840CB6B586001207C
:100C000081F8210000BF002081F8200000BF1046BD
:100C1000E2E7000070B50446002594F821000228A0
:100C200003D00420A0630125C1E02068006820F003
:100C30000E00216808602068006820F0010021682B
:100C400008605C492068884252D95A49783920683E
:100C5000884201D1012047E0564964392068884222
:100C600001D1102040E0534950392068884201D119
:100C7000801539E04F493C392068884201D1801401
:100C800032E04C4928392068884202D14FF4803044
:100C90002AE0484914392068884202D14FF4801074
:100CA00022E044492068884201D140041CE04249C6
:100CB0002068884201D1012016E03F4914312068A4
:100CC000884201D110200FE03B492831206888423A
:100CD00001D1801508E038493C312068884201D1B3
:100CE000801401E04FF480303349091F086051E05F
:100CF000304978392068884201D1012047E02D49E8
:100D000064392068884201D1102040E029495039D7
:100D10002068884201D1801539E026493C39206895
:100D2000884201D1801432E0224928392068884263
:100D300002D14FF480302AE01E49143920688842DD
:100D400002D14FF4801022E01A492068884201D174
:100D500040041CE018492068884201D1012016E0B7
:100D6000154914312068884201D110200FE0124942
:100D700028312068884201D1801508E00E493C31B5
:100D80002068884201D1801401E04FF48030094985
:100D900080394860012084F8210000BF002084F8D9
:100DA000200000BF606B10B12046616B8847284669
:100DB00070BD0000800002400804024070B5044687
:100DC000E06B05682068066894F8401004208840AD
:100DD0002840002875D006F004000028FAD02068CA
:100DE000006800F0200028B92068006820F00400A6
:100DF00021680860D5492068884254D9D349783998
:100E00002068884201D1042049E0D0496439206833
:100E1000884201D1402042E0CC49503920688842C4
:100E200001D100153BE0C9493C392068884202D114
:100E30004FF4804033E0C54928392068884202D108
:100E40004FF480202BE0C14914392068884202D138
:100E50004FF4800023E0BD492068884201D1C004DE
:100E60001DE0BB492068884201D1042017E0B84941
:100E700014312068884201D1402010E0B449283163
:100E80002068884201D1001509E0B1493C31206851
:100E9000884202D14FF4804001E04FF48020AC49F9
:100EA000091F086054E0A94978392068884201D1B7
:100EB00004204AE0A54964392068884202D14020D4
:100EC00043E04CE0A14950392068884201D1001527
:100ED0003BE09E493C392068884202D14FF4804073
:100EE00033E09A4928392068884202D14FF48020A3
:100EF0002BE0964914392068884202D14FF48000D3
:100F000023E092492068884201D1C0041DE0904945
:100F10002068884201D1042017E08D4914312068EF
:100F2000884201D1402010E0894928312068884258
:100F300001D1001509E086493C312068884202D180
:100F40004FF4804001E04FF48020804980394860B0
:100F5000E06A002802D02046E16A8847F4E094F86D
:100F60004010022088402840002871D006F002007E
:100F70000028FAD02068006800F0200040B92068FE
:100F8000006820F00A0021680860012084F8210030
:100F90006E492068884254D96C4978392068884263
:100FA00001D1022049E0694964392068884201D1B1
:100FB000202042E0654950392068884201D140151F
:100FC0003BE062493C392068884202D14FF400502E
:100FD00033E05E4928392068884202D14FF400305E
:100FE0002BE05A4914392068884202D14FF400108E
:100FF00023E056492068884201D180041DE054490D
:101000002068884201D1022017E05149143120683C
:10101000884201D1202010E04D49283120688842C3
:1010200001D1401509E04A493C312068884202D18B
:101030004FF4005001E04FF400304549091F0860AB
:1010400054E0424978392068884202D102204AE0BF
:1010500057E03E4964392068884201D1202042E0AF
:101060003A4950392068884201D140153BE0374960
:101070003C392068884202D14FF4005033E03349B4
:1010800028392068884202D14FF400302BE02F49E4
:1010900014392068884202D14FF4001023E02B4914
:1010A0002068884201D180041DE0294920688842D7
:1010B00001D1022017E0264914312068884201D16D
:1010C000202010E0224928312068884201D14015B3
:1010D00009E01F493C312068884202D14FF400509A
:1010E00001E04FF4003019498039486000BF00200A
:1010F00084F8200000BFA06A30B32046A16A884768
:1011000022E094F84010082088402840E0B106F022
:101110000800C8B12068006820F00E00216808604F
:1011200094F8401001208840E16B48600120A063E2
:1011300084F8210000BF002084F8200000BF206B4D
:1011400010B12046216B884770BD0000800002402E
:10115000080402400146002209B9012070471E4BD5
:10116000086898420BD21D4B0868C01A1423B0FBC4
:10117000F3F08000086419480838C8630AE0164B89
:101180000868C01A1423B0FBF3F08000086412480A
:101190000838C863022081F821000868026843F615
:1011A000F0708243D1E901031843CB6818430B69FF
:1011B00018434B6918438B691843CB6918430243A2
:1011C0000868026000208863012081F82100002067
:1011D00081F8200000BFC1E7080402400800024077
:1011E0002DE9F04104460D4616461F464FF0000813
:1011F00000BF94F82000012802D10220BDE8F08150
:10120000012084F8200000BF94F8210001282CD18F
:10121000022084F821000020A0632068006820F0EC
:101220000100216808603B46324629462046FFF708
:1012300039FBE06A30B12068006840F00E00216898
:1012400008600BE02068006820F004002168086056
:101250002068006840F00A00216808602068006883
:1012600040F001002168086006E000BF002084F81B
:10127000200000BF4FF002084046BFE770B50446AB
:1012800000F0BEF906462546681C10B104480078F7
:10129000054400BF00F0B4F9801BA842FAD370BD2A
:1012A000200000202DE9F847024600239C467BE100
:1012B0004FF0010808FA03F4D1F8008008EA0400AE
:1012C000A0427DD1DFF8F4A2D1F80480A8EB0A098E
:1012D000D0453AD014DCB8F1030F50D009DCB8F196
:1012E000000F31D0B8F1010F1CD0B8F1020F49D175
:1012F00020E0B8F1110F18D0B8F1120F42D11EE062
:10130000B9F5881F25D006DCB9F5803F20D0B9F5A6
:10131000801F37D11AE0B9F5001F18D0B9F5041FA6
:1013200030D117E0D1F80CC02DE0D1F80C8008F1D5
:10133000040C28E0D1F80C8008F1080C23E0D1F867
:101340000C8008F10C0C1EE000BF00BF00BF00BF06
:1013500000BF00BFD1F80880B8F1000F02D14FF0F4
:10136000040C0BE0D1F80880B8F1010F03D14FF065
:10137000080C146102E04FF0080C546103E04FF0D8
:10138000000C00E000BF00BFFF2801D8904601E03C
:1013900002F104084646FF2802D84FEA830803E01A
:1013A000A3F108084FEA88084746D6F800804FF0B6
:1013B0000F0909FA07F928EA09080CFA07F900E009
:1013C0007AE048EA0908C6F80080D1F8048008F0FD
:1013D0008058B8F1805F6FD100BFDFF8E481D8F8A2
:1013E000188048F00108DFF8D891C9F81880C8467D
:1013F000D8F8188008F00108CDF8008000BF00BFC1
:101400004FEAB9384FEA930958F829504FEA8378E0
:101410004FEA18794FF00F0808FA09F825EA08058D
:10142000DFF8A081424502D14FF0000824E0DFF848
:101430009881424502D14FF001081DE0DFF88C8110
:10144000424502D14FF0020816E0DFF884814245A0
:1014500002D14FF003080FE0DFF87881424502D156
:101460004FF0040808E0DFF87081424502D14FF0E8
:10147000050801E04FF006084FEA83794FEA197931
:1014800008FA09F848EA0505DFF850814FEA9309A0
:1014900048F82950D1F8048008F48018B8F5801F66
:1014A0000BD1DFF83C81D8F8008048EA0008DFF86B
:1014B0003091C9F800800AE075E0DFF82481D8F89F
:1014C000008028EA0008DFF81891C9F80080D1F8F8
:1014D000048008F40018B8F5001F0ED1DFF8008171
:1014E00008F10408D8F8008048EA0008DFF8F09016
:1014F00009F10409C9F800800DE0DFF8E48008F183
:101500000408D8F8008028EA0008DFF8D49009F130
:101510000409C9F80080D1F8048008F40038B8F54F
:10152000003F0ED1DFF8B880A8F10408D8F8008099
:1015300048EA0008DFF8A890A9F10409C9F800807A
:101540000DE0DFF89C80A8F10408D8F8008028EAB4
:101550000008DFF88C90A9F10409C9F80080D1F8DF
:10156000048008F48038B8F5803F0ED1DFF8708031
:10157000A8F10808D8F8008048EA0008DFF8609071
:10158000A9F10809C9F800800DE0DFF85480A8F13E
:101590000808D8F8008028EA0008DFF84490A9F18C
:1015A0000809C9F800805B1CD1F8008028FA03F80C
:1015B000B8F1000F7FF47CAEBDE8F8870000111091
:1015C0000010024000080140000C014000100140E2
:1015D0000014014000180140001C014008000140B7
:1015E00008040140024693680B400BB1012000E063
:1015F000002070470AB1016101E00B0403617047EC
:1016000001480068704700001800002070B50446CB
:101610000CB9012070BD94F83D0028B9002084F871
:101620003C00204600F092F9242084F83D00206818
:10163000006820F00100216808602068006840F41C
:101640000040216808602068006820F4004021689C
:10165000086000F0BBFB05465C496068884206D81C
:101660005B48854201D2012007E0002005E059488F
:10167000854201D2012000E00020012800D1C9E705
:101680005548B5FBF0F62068406820F03F00304335
:10169000216848604D496068884201D8701C07E0A5
:1016A0004FF4967070434FF47A71B0FBF1F0401C28
:1016B0002168096A21F03F01084321680862434913
:1016C0006068884214D8681E61684900B0FBF1F078
:1016D000401CC0F30B00042801D204203DE0681E2A
:1016E00061684900B0FBF1F0401CC0F30B0034E02E
:1016F000A06838B9681E616801EB4101B0FBF1F0E8
:10170000401C0AE0681E616801EBC10202EB011196
:10171000B0FBF1F0401C40F48040C0F30B0008B96E
:1017200001201AE0A06848B9681E616801EB410118
:10173000B0FBF1F0401CC0F30B000CE0681E6168C8
:1017400001EBC10202EB0111B0FBF1F0401CC0F350
:101750000B0040F4804040F400402168C9694CF619
:10176000FF72914308432168C861D4E90701084327
:101770002168096821F0C001084321680860D4E9A4
:10178000031008432168896848F2FF3291430843F7
:1017900021688860D4E9050108432168C96821F0FF
:1017A000FF0108432168C8602068006840F001001C
:1017B0002168086000202064202084F83D0000207B
:1017C000206384F83E0000BF24E70000A0860100EB
:1017D00080841E0000093D0040420F002DE9F843BF
:1017E0000446894616461F46DDF82080FFF708FFAD
:1017F000054694F83D0020287ED119230122514945
:101800002046009501F05DFE10B10220BDE8F8838E
:1018100000BF94F83C00012801D10220F6E7012026
:1018200084F83C0000BF2068006800F0010028B97F
:101830002068006840F001002168086020680068A6
:1018400020F4006021680860212084F83D00102009
:1018500084F83E000020206466626785608D2085E4
:101860003948E0622B4642464946204601F096FD43
:1018700008B10120CAE700BF00200090206840693D
:10188000009020688069009000BF00BF44E02A46B5
:101890004146204601F0F1FE50B1206C042805D1EC
:1018A0002068006840F40070216808600120ADE7FE
:1018B000606A007821680861606A401C6062608D1F
:1018C000401E6085208D401E208520684069C0F341
:1018D000800070B1208D60B1606A00782168086175
:1018E000606A401C6062608D401E6085208D401ED5
:1018F00020852A46414600E022E0204601F0AEFD68
:1019000050B1206C042805D12068006840F40070B4
:1019100021680860012079E7208D0028B7D1206870
:10192000006840F4007021680860202084F83D00C1
:10193000002084F83E0000BF84F83C0000BF65E74B
:10194000022063E7020010000000FFFF10B586B020
:101950000446002002900390049005901A492068E4
:1019600088422FD100BF1948806940F0080017490C
:1019700088610846806900F00800019000BF00BF40
:101980004FF440700290122003900320059002A9AA
:101990000F48FFF787FC00BF0E49486840F0E06041
:1019A00040F00200486000BF00BF0848C06940F432
:1019B00000100649C8610846C06900F40010019093
:1019C00000BF00BF06B010BD005400400010024030
:1019D000000C0140000001400348006803490978F9
:1019E00008440149086070471800002020000020CA
:1019F00010B50848006840F0100006490860032050
:101A000000F0E2F80F2000F007F800F05FF8002087
:101A100010BD0000002002402DE9F04188B00446CE
:101A20000027B846002600BF2348C06940F02000C8
:101A30002149C8610846C06900F02000019000BF3C
:101A400000BF02A903A800F099F9069F1FB900F092
:101A5000BDF9054602E000F0B9F945001748B5FBAD
:101A6000F0F0A0F1010816481649086040F2E7318D
:101A70001448C160C0F80480002101618160816167
:101A800000F0B8FC064696B90E4800F013FD064675
:101A90006EB9372000F04AF8102C07D200222146F8
:101AA000372000F053F80848046000E00126304673
:101AB00008B0BDE8F08100000010024040420F0075
:101AC00000140040EC0300201C00002008B500BFFB
:101AD0001448806940F00100124988610846806915
:101AE00000F00100009000BF00BF00BF0846C069C1
:101AF00040F08050C8610846C06900F080500090F6
:101B000000BF00BF00220F21901E00F01FF800BF91
:101B10000549486820F0E06040F00070486000BF70
:101B200008BD0000001002400000014001460846C8
:101B3000002809DB00F01F0301229A4043099B00A3
:101B400003F1E023C3F8002100BF70472DE9F05FE7
:101B500080460D461646002703F08EF907463946A3
:101B60002A46334601F00700C0F1070ABAF1040F14
:101B700002D94FF0040A01E0C0F1070AD14600F192
:101B8000040ABAF1070F02D24FF0000A01E0A0F1F7
:101B9000030AD4464FF0010A0AFA09FAAAF1010A27
:101BA0000AEA020A0AFA0CFA4FF0010B0BFA0CFBD4
:101BB000ABF1010B0BEA030B4AEA0B04214640464A
:101BC00003F062F9BDE8F09F00BF00F00702064B8A
:101BD00019684FF6FF031940044B0B4343EA0221F7
:101BE000014B196000BF70470CED00E00000FA05E2
:101BF00070B504460D460CB9012070BD5A48006806
:101C000000F00700A8420ED25748006820F00700F5
:101C10002843554908600846006800F00700A842BC
:101C200001D00120E9E7207800F0020002281DD150
:101C3000207800F00400042805D14C48406840F4A6
:101C4000E0604A494860207800F00800082805D183
:101C50004648406840F46050444948604348406802
:101C600020F0F000A168084340494860207800F067
:101C7000010078B36068012806D13C48006800F490
:101C8000003090B90120B8E76068022806D13748D3
:101C9000006800F0007040B90120AEE733480068EA
:101CA00000F0020008B90120A7E73048406820F0A2
:101CB0000300616808432D494860FFF7A1FC064610
:101CC00009E0FFF79DFC801B41F28831884202D970
:101CD000032092E707E02548406800F00C006168A7
:101CE000B0EB810FEDD12048006800F00700A8425A
:101CF0000ED91D48006820F0070028431A490860E3
:101D00000846006800F00700A84201D0012074E7EF
:101D1000207800F00400042807D11448406820F41B
:101D2000E060E168084311494860207800F008004D
:101D3000082808D10D48406820F46050216940EA25
:101D4000C1000A49486000F061F808494968C1F3D8
:101D50000311074A515CC8400649086006480068FC
:101D6000FFF75AFE002048E7002002400010024022
:101D7000E6710008240000201C0000200F220260F1
:101D80000D4A526802F0030242600B4A526802F0A8
:101D9000F0028260084A526802F4E062C260064AB9
:101DA000526802F46052D2080261044A126802F0DA
:101DB00007020A6070470000001002400020024045
:101DC00001480068704700002400002000B5FFF7BC
:101DD000F7FF04494968C1F30221034A515CC84036
:101DE00000BD000000100240F671000800B5FFF7CA
:101DF000E7FF04494968C1F3C221034A515CC84066
:101E000000BD000000100240F671000870B500210E
:101E10000022002400230020134D696801F00C0506
:101E2000F5B1042D02D0082D19D101E00F4819E0B9
:101E30000F4DC1F38346AB5D01F4803555B10A4DBA
:101E40006D68C5F340450B4E725D084D5D43B5FBB3
:101E5000F2F402E0084D03FB05F4204602E000BF67
:101E6000024800BF00BF70BD0010024000127A009F
:101E7000D4710008E471000800093D00F8B504467B
:101E80000CB90120F8BD207800F00100002878D0BE
:101E9000F848406800F00C0004280CD0F548406871
:101EA00000F00C00082811D1F248406800F480309E
:101EB000B0F5803F0AD1EF48006800F400300028F8
:101EC0005FD0606800285CD10120DBE700BF60685C
:101ED000B0F5803F06D1E748006840F48030E5491E
:101EE000086028E0606858B9E248006820F4803053
:101EF000E04908600846006820F4802008601AE085
:101F00006068B0F5A02F0BD1DA48006840F480205B
:101F1000D84908600846006840F4803008600AE04C
:101F2000D448006820F48030D24908600846006830
:101F300020F48020086000BF606888B1FFF760FB74
:101F4000054606E0FFF75CFB401B642801D903202F
:101F500098E7C848006800F400300028F2D010E08C
:101F6000FFF74EFB054606E0FFF74AFB401B6428DF
:101F700001D9032086E7BF48006800F4003000283C
:101F8000F2D1207800F00200022857D1B948406809
:101F900000F00C0050B1B748406800F00C00082871
:101FA00018D1B448406800F4803098B9B14800684E
:101FB00000F0020020B12069012801D0012061E772
:101FC000AC48006820F0F800616940EAC100A94906
:101FD000086033E02069E8B10120A7490860FFF7F5
:101FE0000FFB054606E0FFF70BFB401B022801D95B
:101FF000032047E79F48006800F002000028F2D065
:102000009C48006820F0F800616940EAC1009949E5
:10201000086013E0002098490860FFF7F1FA0546D0
:1020200006E0FFF7EDFA401B022801D9032029E75B
:102030009048006800F002000028F2D1207800F0FB
:10204000080008282DD1A069B8B101208B4908608B
:10205000FFF7D6FA054606E0FFF7D2FA401B022842
:1020600001D903200EE78348406A00F002000028EF
:10207000F2D0012002F0D8F813E000207F49086078
:10208000FFF7BEFA054606E0FFF7BAFA401B022842
:1020900001D90320F6E67748406A00F002000028E4
:1020A000F2D1207800F00400042873D10027714891
:1020B000C06900F0805070B900BF6E48C06940F040
:1020C00080506C49C8610846C06900F0805000909B
:1020D00000BF00BF01276A48006800F48070B0B9F3
:1020E0006748006840F4807065490860FFF788FA27
:1020F000054606E0FFF784FA401B642801D9032057
:10210000C0E65F48006800F480700028F2D000BF8D
:10211000E068012806D15748006A40F0010055499F
:10212000086227E0E06858B95248006A20F00100D0
:10213000504908620846006A20F00400086219E06D
:10214000E06805280BD14B48006A40F0040049497B
:1021500008620846006A40F0010008620AE045484B
:10216000006A20F00100434908620846006A20F036
:102170000400086200BFE068A0B1FFF741FA05461D
:1021800009E0FFF73DFA401B41F28831884202D94D
:10219000032077E622E03748006A00F002000028BA
:1021A000EFD012E0FFF72CFA054608E0FFF728FA17
:1021B000401B41F28831884201D9032062E62D4854
:1021C000006A00F002000028F0D1012F05D1294853
:1021D000C06920F080502749C86100BFE069C8B3DA
:1021E0002448406800F00C00082860D0E06902280C
:1021F00048D1002020490866FFF702FA054606E0AC
:10220000FFF7FEF9401B022801D903203AE61948DE
:10221000006800F000700028F2D1206AB0F5803F1D
:1022200007D11448406820F40030A16808431149E0
:102230004860D4E9080108430E49496821F4741143
:1022400008430C49486001200B490866FFF7D8F99C
:10225000054607E03DE0FFF7D3F9401B022801D90E
:1022600003200FE60348006800F000700028F2D059
:102270002FE0000000100240000042428004424271
:1022800000700040002014490866FFF7B9F90546C0
:1022900006E0FFF7B5F9401B022801D90320F1E55C
:1022A0000E48006800F000700028F2D111E0E069EB
:1022B000012800D1E6E50948466806F48031206A25
:1022C000814204D106F47011606A814201D001207C
:1022D000D8E50020D6E50000000042420010024090
:1022E0007047704710B50346002200BF93F83C00CA
:1022F000012801D1022010BD012083F83C0000BF5D
:1023000022F0FF00CC6840EA040222F440708C689E
:1023100040EA040222F480604C6840EA040222F49D
:1023200000600C6840EA040222F480500C6940EA24
:10233000040222F400504C6940EA040222F4804076
:10234000CC6940EA04021868426400BF002083F8A8
:102350003C0000BF00BFCEE730B502460B4600BFD1
:1023600092F83C00012801D1022030BD012082F802
:102370003C0000BF022082F83D00106844681068ED
:10238000816824F070041868044310684460144D98
:102390001068A84213D0134D1068A8420FD01068DF
:1023A000B0F1804F0BD0104D1068A84207D00F4DF0
:1023B0001068A84203D00E4D1068A84205D121F044
:1023C00080015868014310688160012082F83D0057
:1023D00000BF002082F83C0000BF00BFC5E700003E
:1023E000002C01400034014000040040000800407F
:1023F000000C004010B504460CB9012010BD94F843
:102400003D0028B9002084F83C00204600F026F862
:10241000022084F83D00211D206802F0BBF8012055
:1024200084F8460000BF84F83E0001213F2001559A
:10243000402001554120015500BF00BF012084F814
:10244000420043200155442001554520015500BF5D
:10245000012084F83D000020D0E7000008B5124AB2
:10246000016891420DD100BF1049896941F40061B2
:102470000E4A91611146896901F40061009100BF23
:1024800011E00B4A016891420DD100BF07498969EB
:1024900041F40051054A91611146896901F40051E6
:1024A000009100BF00BF08BD002C01400010024099
:1024B00000340140014691F83D00012801D001207F
:1024C0007047022081F83D000868C06840F00100B4
:1024D0000B68D860164B0868984213D0154B0868F3
:1024E00098420FD00868B0F1804F0BD0124B0868AB
:1024F000984207D0114B0868984203D0104B0868E7
:1025000098420CD10868806800F00702062A0CD0B7
:102510000868006840F001000B68186005E0086872
:10252000006840F001000B6818600020C8E7000058
:10253000002C01400034014000040040000800402D
:10254000000C00402DE9F04104460D46002700BF75
:1025500094F83C00012802D10220BDE8F08101205E
:1025600084F83C0000BF022084F83D0020688668A3
:1025700026F0770626F47F46206886602868502873
:1025800033D00CDC202850D004DC00284BD010289D
:1025900051D149E0302849D040284CD139E0602859
:1025A0002DD0702807D0B0F5805F03D0B0F5005F64
:1025B00041D10DE041E0D5E902136A68206802F0DC
:1025C00050F82068866846F077062068866034E018
:1025D000D5E902136A68206802F043F82068806831
:1025E00040F480402168886027E0EA6869682068D4
:1025F00002F028F95021206802F03EF81DE0EA6858
:102600006968206802F031F96021206802F034F82E
:1026100013E0EA686968206802F014F94021206834
:1026200002F02AF809E000BF00BF00BF2968206857
:1026300002F022F801E0012700BF00BF012084F86A
:102640003D0000BF002084F83C0000BF384684E70E
:102650002DE9F04104460D4614B90120BDE8F08192
:1026600094F83D0028B9002084F83C00204600F092
:1026700051F8022084F83D002068806844F2070188
:10268000884321688860211D206801F083FF20684D
:10269000D0F80880206886692068076A286840EAC0
:1026A000080840F203308643A969A86840EA01207F
:1026B000064340F60C4086434FF2F0008643E9693A
:1026C000E86840EA0120064328690001296A40EAD7
:1026D0000130064327F022076969686840EA011063
:1026E00007432068C0F80880206886612068076278
:1026F000012084F8460084F83E0001213F20015566
:10270000012084F8420043200155012084F83D0057
:102710000020A3E710B586B0044600200290039085
:10272000049005902068B0F1804F45D100BF60480B
:10273000C06940F001005E49C8610846C06900F008
:102740000100019000BF00BF00BF0846806940F053
:10275000040088610846806900F00400019000BF11
:1027600000BF00BF0846806940F008008861084645
:10277000806900F00800019000BF00BF4FF40040E6
:10278000029000200390049002A94A48FEF78AFDB7
:102790000820029000200390049002A94648FEF70A
:1027A00081FD00BF4549486820F4407040F0E0607A
:1027B00040F48070486079E041492068884224D123
:1027C00000BF3B48C06940F002003949C861084673
:1027D000C06900F00200019000BF00BF00BF0846C2
:1027E000806940F0040088610846806900F00400B8
:1027F000019000BF00BFC020029000200390049011
:1028000002A92C48FEF74EFD50E02E492068884270
:1028100024D100BF2648C06940F004002449C861A3
:102820000846C06900F00400019000BF00BF00BF6F
:102830000846806940F0080088610846806900F019
:102840000800019000BF00BFC0200290002003904C
:10285000049002A91848FEF725FD27E01A492068D0
:10286000884223D100BF1248C06940F008001049D7
:10287000C8610846C06900F00800019000BF00BFB1
:1028800000BF0846806940F00400886108468069FE
:1028900000F00400019000BF00BF03200290002060
:1028A0000390049002A90348FEF7FCFC06B010BD9B
:1028B0000010024000080140000C014000000140EF
:1028C0000004004000080040000C00402DE9F043E7
:1028D00004460D4694F83E603F20075D94F8428020
:1028E000432010F804906DB9012E02D1B8F1010F08
:1028F00002D00120BDE8F083022084F83E0084F875
:10290000420025E0042D0CD1012F02D1B9F1010FB5
:1029100001D00120EEE702213F200155432001555F
:1029200016E0012E07D1012F05D1B8F1010F02D118
:10293000B9F1010F01D00120DCE7022084F83E004C
:1029400002213F200155022084F842004320015516
:1029500015B1042D0CD105E001220021206801F001
:102960006FFE10E001220421206801F069FE0AE0F8
:1029700001220021206801F063FE01220421206869
:1029800001F05EFE00BF00BF2068006840F001005B
:10299000216808600020ADE7704770B504462068E4
:1029A000C5682068066906F00200022819D105F002
:1029B0000200022815D1401F2168086101202077FC
:1029C0002068806900F0030018B12046FFF7E4FF9B
:1029D00005E0204600F0E6F8204600F09AF90020D5
:1029E000207706F00400042819D105F0040004281B
:1029F00015D1C043216808610220207720688069D2
:102A000000F4407018B12046FFF7C6FF05E02046ED
:102A100000F0C8F8204600F07CF90020207706F08E
:102A20000800082819D105F00800082815D1C0436E
:102A300021680861042020772068C06900F0030045
:102A400018B12046FFF7A8FF05E0204600F0AAF8DD
:102A5000204600F05EF90020207706F010001028D4
:102A600019D105F01000102815D1C0432168086164
:102A7000082020772068C06900F4407018B1204613
:102A8000FFF78AFF05E0204600F08CF8204600F0B2
:102A900040F90020207706F0010048B105F0010060
:102AA00030B16FF0010021680861204600F0ACF9F8
:102AB00006F08000802809D105F08000802805D12B
:102AC000C043216808612046FFF70AFC06F0400079
:102AD000402809D105F04000402805D1C0432168B5
:102AE0000861204600F09CF906F02000202809D15A
:102AF00005F02000202805D1C04321680861204648
:102B0000FFF7EFFB70BD000010B586B00446002053
:102B100002900390049005901D492068884218D1C6
:102B200000BF1C48806940F004001A4988610846CB
:102B3000806900F00400019000BF00BF4FF4706096
:102B4000029002200390059002A91348FEF7AAFB09
:102B50001BE012492068884217D100BF0D488069E8
:102B600040F010000B4988610846806900F01000B1
:102B7000019000BF00BF4FF47070029002200390DC
:102B8000059002A90648FEF78DFB06B010BD0000B7
:102B9000002C0140001002400008014000340140B8
:102BA0000010014070472DE9F04104460D461646DD
:102BB000002700BF94F83C00012802D10220BDE8A4
:102BC000F081012084F83C0000BF36B1042E1BD0F8
:102BD000082E31D00C2E5ED145E02946206801F048
:102BE00055FD2068806940F00800216888612068F0
:102BF000806920F004002168886120688069296963
:102C000008432168886148E02946206801F076FD84
:102C10002068806940F400602168886120688069CC
:102C200020F480602168886120688069296940EA11
:102C300001202168886130E02946206801F09CFD70
:102C40002068C06940F008002168C8612068C06938
:102C500020F004002168C8612068C0692969084320
:102C60002168C86119E02946206801F0C1FD20688B
:102C7000C06940F400602168C8612068C06920F420
:102C800080602168C8612068C069296940EA012024
:102C90002168C86101E0012700BF00BF00BF00201C
:102CA00084F83C0000BF384689E710B504460CB9EB
:102CB000012010BD94F83D0028B9002084F83C00A4
:102CC000204600F025F8022084F83D00211D2068F0
:102CD00001F060FC012084F8460000BF84F83E004B
:102CE00001213F200155402001554120015500BFE1
:102CF00000BF012084F842004320015544200155C3
:102D00004520015500BF012084F83D000020D0E798
:102D10007047704770B504460D4615B994F83E00EB
:102D20000BE0042D02D13F20005D06E0082D02D10A
:102D30004020005D01E04120005D012801D001201C
:102D400070BD1DB9022084F83E000EE0042D03D1B1
:102D500002213F20015508E0082D03D10221402027
:102D6000015502E002214120015501222946206837
:102D700001F066FC1F492068884203D01E49206884
:102D8000884201D1012000E0002028B12068406C79
:102D900040F400402168486416492068884213D0F6
:102DA0001549206888420FD02068B0F1804F0BD0C1
:102DB00012492068884207D011492068884203D010
:102DC0001049206888420CD12068806800F007060E
:102DD000062E0CD02068006840F0010021680860D1
:102DE00005E02068006840F00100216808600020CC
:102DF000A6E70000002C0140003401400004004020
:102E000000080040000C004010B50446034920684B
:102E1000884201D1FEF7E0FD10BD00000014004023
:102E200070477047704700002DE9F84F044620684E
:102E300005682068C668206847694FF00009CA46DF
:102E400005F00F09B9F1000F0AD105F0200038B1E3
:102E500006F0200020B1204601F01DFEBDE8F88FED
:102E6000B9F1000F7BD007F0010018B906F490709B
:102E7000002874D005F0010030B106F4807018B15C
:102E8000606C40F00100606405F0040030B107F0B0
:102E9000010018B1606C40F00200606405F00200AF
:102EA00030B107F0010018B1606C40F004006064BC
:102EB00005F0080048B106F0200010B907F0010045
:102EC00018B1606C40F008006064606C002845D068
:102ED00005F0200028B106F0200010B1204601F0D6
:102EE000DAFD20684069C0F3801A606C00F00800C9
:102EF00010B9BAF1000F2CD0204601F073FD206804
:102F0000406900F0400000B300BF00BF21681431E9
:102F100051E8001F21F040002168143141E800020F
:102F2000002AF3D100BFE06B50B17748E16B4863F2
:102F3000E06BFDF76FFE88B1E06B416B88470DE0F9
:102F40002046FFF76FFF09E009E02046FFF76AFF20
:102F500004E02046FFF766FF002060647EE7206BF8
:102F6000012877D105F01000002873D006F010007A
:102F70000028FAD000BF0020009020680068009070
:102F800020684068009000BF00BF2068406900F0E2
:102F9000400000285FD0E06B006840681FFA80F8AE
:102FA000B8F1000F55D0A08D404552DDA4F82E8019
:102FB000E06B8069202843D000BF00BF21680C313E
:102FC00051E8001F21F4807021680C3141E80002B3
:102FD000002AF3D100BF00BF00BF2168143151E8BF
:102FE000001F21F001002168143141E80002002A8D
:102FF000F3D100BF00BF00BF2168143151E8001FAA
:1030000021F040002168143141E80002002AF3D188
:1030100000BF202084F842000020206300BF00BFD2
:1030200021680C3151E8001F21F0100021680C319B
:1030300041E80002002AF3D100BFE06BFDF7BEFDBE
:1030400002206063A08DE28D801A81B22046FFF7D6
:10305000E8FE03E742E0A08DE18D401A1FFA80F8F8
:10306000E08DD0B3B8F1000F37D000BF00BF2168AA
:103070000C3151E8001F21F4907021680C3141E8B7
:103080000002002AF3D100BF00BF00BF2168143145
:1030900051E8001F21F001002168143141E80002CD
:1030A000002AF3D100BF202084F8420000202063D2
:1030B00000BF00BF21680C3151E8001F21F0100053
:1030C00021680C3141E80002002AF3D100BF022040
:1030D000606341462046FFF7A4FEBFE605F080008E
:1030E00030B106F0800018B1204601F035FEB5E69B
:1030F00005F0400030B106F0400018B1204601F064
:10310000A7FCABE600BFA9E6A948000810B5044635
:103110000CB9012010BDA06900B100E000BF94F817
:10312000410028B9002084F84000204600F02AF829
:10313000242084F841002068C06820F400502168F1
:10314000C860204601F026FD2068006920F4904008
:10315000216808612068406920F02A0021684861E0
:103160002068C06840F400502168C8600020606496
:10317000202084F8410084F842000020606300BFF2
:10318000C8E7000010B586B0044600200290039006
:10319000049005903D492068884274D100BF3C48A6
:1031A000C06940F480203A49C8610846C06900F40B
:1031B0008020019000BF00BF00BF0846806940F03A
:1031C000100088610846806900F01000019000BF7F
:1031D00000BF08150290022003900320059002A969
:1031E0002C48FEF75FF84FF4006002900020039037
:1031F000049002A92748FEF755F800BF2649486801
:1032000020F0300040F0E06040F01000486000BF67
:10321000224823490860002048600021204881603E
:103220008021C1600021016141618161C161FDF7BF
:1032300091FF08B1FDF7F2FB00BF1948E06344625B
:1032400000BF164814381749086010204860002154
:10325000144881608021C160002101614161816168
:10326000C161FDF777FF08B1FDF7D8FB00BF0D483E
:10327000A063446200BF002205212720FEF766FC00
:103280002720FEF753FC06B010BD000000480040A8
:1032900000100240001001400000014030000240D8
:1032A00064030020A803002070B504460D461646AE
:1032B00094F8420020280BD105B10EB9012070BD51
:1032C0000020206332462946204601F0E1FCF6E763
:1032D0000220F4E710B504462046FDF75DFA10BD64
:1032E0007047704710B500F0B3FF48B31548007839
:1032F00098B900F0E1FF012012490870FEF780F94B
:1033000011490860012011490870FEF779F9104948
:10331000086000200F49087012E000200949087079
:103320000021084600F020FE0021012000F01CFED4
:103330000021022000F018FE0021032000F014FEFE
:1033400010BD0000E5000020040100200C01002059
:10335000100100201401002000BFFEE701460868AC
:103360004069C0F38020B0B16FF480600A6850619A
:1033700000200863202081F83D00002081F83E00F5
:10338000086C40F00400086400BF002081F83C0095
:1033900000BF012070470020FCE700002DE9F84342
:1033A00004460D4617469846E66A082E04D0012EBC
:1033B00002D016F5803F06D12068006840F4807086
:1033C0002168086008E0206B122805D12068006899
:1033D00040F48070216808603B4600224FF00111E4
:1033E0002046CDF8008000F06CF860B120680068DD
:1033F00000F48070B0F5807F02D14FF4007020643B
:103400000320BDE8F8832069B0F5804F04D105F0B2
:10341000FE002168086112E005F44070F02141EAE5
:10342000E0102168086143463A460B49204600F007
:10343000A7F808B10120E4E7E8B221680861434633
:103440003A460549891F204600F09AF808B1012044
:10345000D7E70020D5E700000800010070B504465A
:103460000D46164625E02046FFF778FF08B10120FB
:1034700070BD681CE8B1FEF7C3F8801BA84200D8F5
:10348000BDB920684069C0F3800090B90020206376
:10349000202084F83D00002084F83E00206C40F09D
:1034A0002000206400BF002084F83C0000BF012001
:1034B000DEE720684069C0F380000028D3D00020F8
:1034C000D6E72DE9F04104460D4617461E46DDF8C5
:1034D000188038E0701CA8B3FEF792F8A0EB080043
:1034E000B04200D876BBC5F3074001280AD1206856
:1034F0004069A9B20840A9B2884201D101200BE07D
:10350000002009E020688069A9B20840A9B2884279
:1035100001D1012000E00020B84214D10020206336
:10352000202084F83D00002084F83E00206C40F00C
:103530002000206400BF002084F83C0000BF012070
:10354000BDE8F081FFE7C5F3074001280AD12068F4
:103550004069A9B20840A9B2884201D101200BE01C
:10356000002009E020688069A9B20840A9B2884219
:1035700001D1012000E00020B842ABD00020DFE7FD
:103580002DE9F04104460D4616461F4658E02068D6
:103590004069C0F38020E8B12068006840F4007002
:1035A000216808606FF48060216848610020206312
:1035B000202084F83D00002084F83E00206C40F07C
:1035C0000400206400BF002084F83C0000BF0120FC
:1035D000BDE8F081701C90B3FEF712F8C01BB0423A
:1035E00000D866BBC5F3074001280AD120684069AE
:1035F000A9B20840A9B2884201D101200BE0002005
:1036000009E020688069A9B20840A9B2884201D1C6
:10361000012000E0002090B900202063202084F8E1
:103620003D00002084F83E00206C40F02000206423
:1036300000BF002084F83C0000BF0120C8E7FFE77E
:10364000C5F3074001280AD120684069A9B20840A3
:10365000A9B2884201D101200BE0002009E02068D6
:103660008069A9B20840A9B2884201D1012000E0D6
:10367000002000288BD00020AAE770B504460D4634
:10368000164625E02046FFF769FE08B1012070BD0F
:10369000681CE8B1FDF7B4FF801BA84200D8BDB993
:1036A00020684069C0F3C01090B90020206320203A
:1036B00084F83D00002084F83E00206C40F020009B
:1036C000206400BF002084F83C0000BF0120DEE73A
:1036D00020684069C0F3C0100028D3D00020D6E78E
:1036E00010B504460820E0710021204601F08EFB51
:1036F00010BD2DE9F04104460F4615461E46012D2A
:1037000003DD607840F00800607025712EB1012D56
:1037100003D1607840F0040060703220FDF7AEFD08
:10372000E179204601F072FB4FF47A70FDF7A6FDB7
:103730003021204601F04AFB0520FDF79FFD302196
:10374000204601F043FB0520FDF798FD302120467F
:1037500001F03CFB0120FDF791FD2021204601F006
:1037600035FB607840F02001204600F01FF804206F
:10377000A070204600F023F8204600F00DF802204B
:10378000E070E07840F00401204600F00FF8204699
:1037900000F022F8BDE8F08110B504460121204672
:1037A00000F004F80220FDF769FD10BD70B5044675
:1037B0000D4600222946204601F03CFB70BD10B5A5
:1037C0000446A07840F00400A070A07840F0080102
:1037D0002046FFF7EBFF10BD10B50446022120463E
:1037E000FFF7E4FF0220FDF749FD10BD2DE9F04190
:1037F00004460F4615461E4627706571A6710020C7
:10380000E071204601F02CFBBDE8F08170B5054663
:103810000C4604E014F8011B284600F01FF820783D
:103820000028F7D170BD00007FB504460E4615464E
:10383000094B0FCB8DE80F002079A84202DA2079DE
:10384000401EC5B21DF825003044C0B240F08001D2
:103850002046FFF7ABFF7FBD0072000870B504463D
:103860000D4601222946204601F0E4FA70BD000011
:1038700000B589B000200949087000F01DFD242220
:1038800007496846FCF707FE6A460021054801F033
:103890008BFB0549086009B000BD0000E500002071
:1038A00034720008C5440008CC00002008B500BFF1
:1038B0000E48406940F001000C49486108464069E3
:1038C00000F00100009000BF00BF002205210C2085
:1038D000FEF73CF90C20FEF729F9002205210D2006
:1038E000FEF734F90D20FEF721F908BD0010024063
:1038F00010B5FFF7BDFFFCF7B3FFFCF703FF114B5B
:1039000000220121104801F0ABFB104908600A2198
:103910000E48006801F002FC0D4A00210D4801F03C
:1039200043FB0D4908600D4A00210D4801F03CFBA6
:103930000C4908600C4A00210C4801F035FB0C4989
:10394000086010BDC4710008D308000814000020EE
:1039500058710008F5430008080000207C71000839
:10396000F34400080C000020A0710008FD4400088A
:103970001000002000B585B0002001900290039057
:10398000049000BF2D48806940F020002B498861D9
:103990000846806900F02000009000BF00BF00BF13
:1039A0000846806940F0040088610846806900F09C
:1039B0000400009000BF00BF00BF0846806940F0CF
:1039C000080088610846806900F00800009000BF88
:1039D00000BF00BF0846806940F0100088610846BB
:1039E000806900F01000009000BF00BF0022891421
:1039F0001348FDF7FFFD3C200190002002900120BC
:103A0000039001A90F48FDF74DFC4FF400600190B1
:103A100000200290039001A90948FDF743FC4FF4F0
:103A20008050019001200290002003900220049019
:103A300001A90348FDF736FC05B000BD00100240A7
:103A4000000C01400008014010B50B480B4908600C
:103A50000B484860002109488160C1604FF48041F3
:103A60000161002141618161C1610162FDF7CEFD0B
:103A700008B1FCF7D3FF10BD00540040180100202E
:103A8000A086010000B595B000201190129013900F
:103A900014900F9010901C2108A8FCF736FD2021EF
:103AA0006846FCF732FD37483749086047204860D0
:103AB0000021354881606321C160002101614161BD
:103AC00080218161FEF796FC08B1FCF7A7FF4FF457
:103AD0008050119011A92C48FEF734FD08B1FCF775
:103AE0009DFF2948FFF7E1F808B1FCF797FF002098
:103AF0000F9010900FA92448FEF72EFC08B1FCF798
:103B00008DFF60200890002009900A900B900C9087
:103B10000D900E90002208A91B48FFF744F808B149
:103B2000FCF77CFF042208A91748FFF73CF808B10E
:103B3000FCF774FF082208A91348FFF734F808B10E
:103B4000FCF76CFF0C2208A90F48FFF72CF808B10E
:103B5000FCF764FF00200090019002900390049015
:103B60004FF4005005904000079069460648FEF764
:103B7000B9FB08B1FCF752FF0348FEF7C5FF15B0CB
:103B800000BD0000002C01406C01002000B58BB08E
:103B9000242102A8FCF7B9FC0020009001904FF00E
:103BA0008040194908600020486000211648816063
:103BB0004FF6FF71C1600021016181610320029015
:103BC0000020039001200490002005900A20069018
:103BD0000020079001200890002009900A200A90F8
:103BE00002A90948FEF734FD08B1FCF717FF0020D1
:103BF0000090019069460448FEF7AEFB08B1FCF75F
:103C00000DFF0BB000BD0000B401002000B58BB06B
:103C1000242102A8FCF779FC0020009001901948AB
:103C200019490860002048600021174881604FF65C
:103C3000FF71C160002101618161032002900020B9
:103C4000039001200490002005900A200690002097
:103C5000079001200890002009900A200A9002A9EC
:103C60000948FEF7F5FC08B1FCF7D8FE00200090EB
:103C7000019069460448FEF76FFB08B1FCF7CEFEE1
:103C80000BB000BD00040040FC01002000B58BB06B
:103C9000242102A8FCF739FC00200090019019486B
:103CA00019490860002048600021174881604FF6DC
:103CB000FF71C16000210161816103200290002039
:103CC000039001200490002005900A200690002017
:103CD000079001200890002009900A200A9002A96C
:103CE0000948FEF7B5FC08B1FCF798FE00200090EB
:103CF000019069460448FEF72FFB08B1FCF78EFEE1
:103D00000BB000BD000800404402002000B58BB09D
:103D1000242102A8FCF7F9FB00200090019019482B
:103D200019490860002048600021174881604FF65B
:103D3000FF71C160002101618161032002900020B8
:103D4000039001200490002005900A200690002096
:103D5000079001200890002009900A200A9002A9EB
:103D60000948FEF775FC08B1FCF758FE00200090EA
:103D7000019069460448FEF7EFFA08B1FCF74EFEE1
:103D80000BB000BD000C00408C02002000B595B0C7
:103D9000002011901290139014900F9010901C21FD
:103DA00008A8FCF7B2FB20216846FCF7AEFB3748B9
:103DB0003749086047204860002135488160632109
:103DC000C16000210161416180218161FEF712FB28
:103DD00008B1FCF723FE4FF48050119011A92C4834
:103DE000FEF7B0FB08B1FCF719FE2948FEF75DFFAE
:103DF00008B1FCF713FE00200F9010900FA9244883
:103E0000FEF7AAFA08B1FCF709FE6020089000202E
:103E100009900A900B900C900D900E90002208A92A
:103E20001B48FEF7C0FE08B1FCF7F8FD042208A904
:103E30001748FEF7B8FE08B1FCF7F0FD082208A904
:103E40001348FEF7B0FE08B1FCF7E8FD0C2208A904
:103E50000F48FEF7A8FE08B1FCF7E0FD0020009037
:103E600001900290039004904FF4005005904000A0
:103E7000079069460648FEF735FA08B1FCF7CEFD13
:103E80000348FEF741FE15B000BD000000340140BC
:103E9000D402002010B50B480B4908604FF41650AF
:103EA0004860002108488160C16001610C214161C6
:103EB00000218161C161FFF729F908B1FCF7AEFD6E
:103EC00010BD0000004800401C03002000BFFEE7BA
:103ED0000146002903DD01F10A0000B27047002904
:103EE00003DAA1F10A0000B2F8E70020F6E70000CB
:103EF00010B500211948FEF70DFF04211748FEF701
:103F000009FF08211548FEF705FF0C211348FEF7AD
:103F100001FF00211248FEF7FDFE04211048FEF7C4
:103F2000F9FE08210E48FEF7F5FE0C210C48FEF7BD
:103F3000F1FE0B480068406C40F4004008490968F5
:103F4000486406480068406C40F400400349096832
:103F500048640F200349087010BD0000D4020020FF
:103F60006C0100202800002070B505460E46304642
:103F7000FFF7AEFF0446632C00DD632414F1630FEA
:103F800001DA6FF0620435B1012D16D0022D28D070
:103F9000032D49D136E0604204B2002C06DB2448F0
:103FA000046000202249091D086005E00020204926
:103FB00008606042091D086037E0604204B2002CCE
:103FC00007DB1B4808300460002019490C310860E9
:103FD00006E000201649083108606042091D0860AB
:103FE00023E0002C06DB13480460002011490C3943
:103FF000086006E000200F49086060420D490C3956
:10400000086012E0002C07DB0A4808380460002032
:104010000849091F086006E00020064908390860C1
:104020006042091D086000E000BF00BF70BD0000D5
:1040300034340140402C014000BFFEE730B585B06C
:10404000044614B9042005B030BD6648007810B1AC
:104050006548007808B10420F5E76448007868B145
:10406000FDF7CEFA054662480068281A642801D296
:104070000020E8E700205D49087000BFE068B8BB99
:104080002068A8BB606898BB206988BB5948007845
:10409000401C5849087008460078022876DB5648CC
:1040A0000078002872D1012053490870322000F0B6
:1040B00026FF6846FCF766FD039801280CD100989E
:1040C000012809D10198012806D10498012803D1BB
:1040D000454908700420B6E748480068401C474935
:1040E0000860012046490870002042490870AAE78C
:1040F000FFE700203F4908703F490870E068C8B9F1
:104100002069012816D13F48007898B93E480078C8
:10411000401C3D49087008460078022812DB3B48E5
:104120000068401C39490860012036490870384948
:10413000087007E0E068012804D1002032490870C7
:10414000304908702069C8B9E068012816D13148A3
:10415000007898B930480078401C2F49087008460C
:104160000078022812DB2D480068401C2B490860AB
:104170000120284908702A49087007E020690128B1
:1041800004D100202449087022490870206878B9B9
:10419000606868B90120207222480078401C2149DB
:1041A000087008460078022806DB002008704AE7FD
:1041B00000201C4908702072206820B9606801281E
:1041C00001D102203FE72068012803D1606808B9C7
:1041D000012038E7206818B9606808B9002032E784
:1041E000032030E7E5000020140100200C0100202E
:1041F00010010020FC000020FD000020F80000203D
:104200004A000020F6000020F4000020EC0000200E
:1042100048000020F7000020F5000020F0000020FA
:1042200049000020E400002008B508490968C908D1
:104230004FF47A72B1FBF2F14143009100BF00BF2D
:1042400000994A1E00920029F9D108BD24000020DF
:1042500070B54FF400611448FDF7C4F90446002519
:104260001248007884420DD011480078401C104953
:10427000087008460078052807DB0C480470002009
:10428000087002E000200A4908700A48007820B946
:1042900006480078012800D1012504480078054926
:1042A0000870284670BD0000000C0140E7000020A7
:1042B000E8000020E600002010B500201449086046
:1042C00014490860144908601449086014490870CA
:1042D000144908701449087014490870144908708A
:1042E00014490870144908701449087000210846E0
:1042F000FFF73AFE00210120FFF736FE00210220E1
:10430000FFF732FE00210320FFF72EFE10BD000054
:10431000EC000020F0000020F80000200001002048
:10432000F4000020F5000020F6000020F700002037
:10433000E4000020FC000020FD000020150100200A
:10434000002025490870254908702549087025492D
:1043500008700220244908700020FCF75BFAFCF783
:1043600039FA00BF1C48007820B1FCF763FA00203E
:10437000194908701948007820B1FCF75BFA002051
:10438000164908701648007820B1FCF753FA00204F
:10439000134908701348007830B14FF47A70FCF775
:1043A00023FA00200F4908700F48007802280FD028
:1043B000FDF726F90D490968441A0D480068844242
:1043C00005D30020FCF726FA02200749087000BF39
:1043D0000A2000F094FDC5E74800002049000020B5
:1043E0004A0000204B0000203C0000204400002038
:1043F000400000208AB00223102227212148FFF725
:10440000F5F92048FFF76CF91E48FFF7C5F90122BE
:1044100000211C48FFF708FA00BFFCF77FF90022D3
:1044200011461848FFF700FA17480068009017482F
:1044300003681748026817A102A8FBF73BFF02A90F
:104440001048FFF7E3F9114800680F49096808446C
:104450000F490968084414490860012200210948ED
:10446000FFF7E2F9104803681048026810A102A89B
:10447000FBF720FF02A90348FFF7C8F9642000F00A
:104480003EFDCAE700000020F0000020EC00002004
:10449000F80000202B3A2564204C653A2564205210
:1044A000693A256420200000000100200801002056
:1044B00074696D653A256C7520616C6C3A256420D1
:1044C0002020000086B002F0ADFB009000BF00BFCE
:1044D000FEF708FF01A8FCF755FB01A8FFF7AEFDAA
:1044E00004462046FCF79EFA0421684601F0F8FDD8
:1044F000EEE700BF012000F002FDFBE700BF012056
:1045000000F0FDFCFBE710B54FF0E020006902F081
:1045100079FB012801D001F0C3FF10BD00B58FB0B9
:10452000282105A8FBF7F1FF14216846FBF7EDFFF2
:1045300001200590000406900020079001200990BA
:1045400002200C90C1030D914FF4E0110E9105A8CB
:10455000FDF794FC08B1FCF761FA0F2000900220EF
:104560000190002002904FF480600390002004909E
:1045700002216846FDF73CFB08B1FCF74FFA0FB08B
:1045800000BD704710B50248FEF707FA10BD0000E5
:10459000EC03002010B50268244B98420ED0244B47
:1045A00098420BD0B0F1804F08D0224B984205D0F2
:1045B000214B984202D0214B984203D122F0700245
:1045C0004B681A43194B98420ED0194B98420BD0A6
:1045D000B0F1804F08D0174B984205D0164B984247
:1045E00002D0164B984203D122F44072CB681A4392
:1045F00022F080034C6943EA040202608B68C362C4
:104600000B688362094B984202D0094B984201D152
:104610000B69036301234361036903F001031BB1C9
:10462000036923F00103036110BD0000002C014069
:10463000003401400004004000080040000C00402D
:1046400030B501F01F05012404FA05F3046A9C4308
:104650000462046A01F01F0502FA05F52C430462A6
:1046600030BD30B50C46816821F47F4142EA032514
:1046700025432943816030BD0A46816821F07001DD
:1046800042F00703194381607047000030B5026AA9
:10469000056A25F0010505624368846924F0700409
:1046A00024F003040D682C4322F002028D682A4393
:1046B000104DA84200D103E00F4DA84206D100BF23
:1046C00022F00802CD682A4322F00402094DA842D4
:1046D00002D0094DA84207D123F4807323F400735C
:1046E0004D692B438D692B43436084614D6845635D
:1046F000026230BD002C01400034014030B5026A36
:10470000056A25F0100505624368846924F4E044D5
:1047100024F440740D6844EA052422F020028D68D8
:1047200042EA0512124DA84200D103E0114DA84201
:1047300007D100BF22F08002CD6842EA051222F0C4
:1047400040020B4DA84202D00A4DA84209D123F4E1
:10475000806323F400634D6943EA85038D6943EA6E
:104760008503436084614D688563026230BD00004B
:10477000002C01400034014030B5026A056A25F47E
:10478000807505624368C46924F0700424F0030452
:104790000D682C4322F400728D6842EA0522124D06
:1047A000A84200D103E0114DA84207D100BF22F476
:1047B0000062CD6842EA052222F480620A4DA842D6
:1047C00002D00A4DA84209D123F4805323F40053A8
:1047D0004D6943EA05138D6943EA05134360C461DB
:1047E0004D68C563026230BD002C014000340140B9
:1047F00030B5036A056A25F4805505624468C269CC
:1048000022F4E04222F440720D6842EA052223F4C9
:1048100000538D6843EA0533084DA84202D0084D85
:10482000A84204D124F480444D6944EA85144460CC
:10483000C2614D680564036230BD0000002C014078
:104840000034014030B50B461446026A056A25F073
:1048500001050562816921F0F00141EA041122F0AD
:104860000A021A438161026230BD30B50B4614461C
:10487000026A056A25F010050562816921F470411C
:1048800041EA043122F0A00242EA0312816102628D
:1048900030BD70B50546284601F044FA044614B10F
:1048A000D4E90010884770BD70B505466C6A0020D9
:1048B000E085E0842046FEF7B5FA70BD70B5064687
:1048C0000025746A20684069C0F3C01594F841005F
:1048D000212805D125B10020E084204600F0C8F849
:1048E00020684069C0F3801594F84200222805D161
:1048F00025B10020E085204600F074F8606C40F09F
:10490000100060642046FEF78DFA70BD70B5054654
:104910006C6A2868006800F02000002842D1E08519
:1049200000BF00BF21680C3151E8001F21F48070E6
:1049300021680C3141E80002002AF3D100BF00BF1A
:1049400000BF2168143151E8001F21F001002168E7
:10495000143141E80002002AF3D100BF00BF00BFBC
:104960002168143151E8001F21F040002168143102
:1049700041E80002002AF3D100BF202084F8420061
:10498000206B01280ED100BF00BF21680C3151E817
:10499000001F21F0100021680C3141E80002002ABC
:1049A000F3D100BF00206063206B012804D1A18DEA
:1049B0002046FEF736FA02E02046FEF78BFC70BD7B
:1049C00070B505466C6A01206063206B012805D133
:1049D000A08D41082046FEF724FA02E02046FEF7AB
:1049E0007FFC70BD00BF00BF02680C3252E8002F90
:1049F00022F4907102680C3242E80013002BF3D1CC
:104A000000BF00BF00BF0268143252E8002F22F03E
:104A100001010268143242E80013002BF3D100BFF9
:104A2000016B01290ED100BF00BF02680C3252E8B1
:104A3000002F22F0100102680C3242E80013002B14
:104A4000F3D100BF202180F842100021016370479C
:104A500010B504462068C06820F040002168C86096
:104A6000202084F841002046FEF73BFC002010BDCA
:104A700000BF00BF02680C3252E8002F22F0C001D4
:104A800002680C3242E80013002BF3D100BF202152
:104A900080F841107047F8B5044694F84200222887
:104AA00075D1A068B0F5805F0CD1206950B90025A0
:104AB000A66A20684068C0F308003080A06A801CA5
:104AC000A06215E0A56A0026A068B0F5805F03D05B
:104AD000A06828B9206918B920684068287004E0E7
:104AE0002068406800F07F002870A06A401CA06227
:104AF000E08D401E80B2E085002846D12068C06865
:104B000020F020002168C8602068C06820F4807010
:104B10002168C8602068406920F001002168486170
:104B2000202084F8420000206063206B012826D1F9
:104B30000020206300BF00BF21680C3151E8001F36
:104B400021F0100021680C3141E80002002AF3D165
:104B500000BF2068006800F0100010280AD100BFD4
:104B60000020009020680068009020684068009055
:104B700000BF00BFA18D2046FEF753F902E020469A
:104B8000FEF7A8FB0020F8BD01E00020FBE70220B3
:104B9000F9E7000070B504462168096921F4405125
:104BA000E2681143226811612269A16811436269B8
:104BB00041EA02052168C96841F20C629143294328
:104BC0002268D1602168496921F44071A2691143CA
:104BD000226851612D4A2168914202D1FDF706F900
:104BE00001E0FDF7F3F800EBC00101EB0011626892
:104BF0009200B1FBF2F100EBC00202EB001263681D
:104C00009B00B2FBF3F26423B2FBF3F202EBC203AC
:104C100003EB0212A1EB8201322202EB01116422AA
:104C2000B1FBF2F101F0F00100EBC00202EB001267
:104C300063689B00B2FBF3F26423B2FBF3F201EB77
:104C4000021200EBC00101EB001163689B00B1FB95
:104C5000F3F100EBC00303EB00136668B600B3FB8F
:104C6000F6F36426B3FBF6F303EBC30606EB03137C
:104C7000A1EB8301322303EB01116423B1FBF3F1B8
:104C800001F00F0111442268916070BD00380140AD
:104C900077B581B0044615460298A062A58500202C
:104CA0006064222084F842002848E16B886228482A
:104CB000E16BC8622748E16B08630020E16B486341
:104CC00002AE32682368191D2B46E06BFCF788FAA8
:104CD00000BF0020009020680068009020684068B5
:104CE000009000BF00BF206970B100BF00BF216805
:104CF0000C3151E8001F41F4807021680C3141E80B
:104D00000002002AF3D100BF00BF00BF21681431A8
:104D100051E8001F41F001002168143141E8000210
:104D2000002AF3D100BF00BF00BF2168143151E851
:104D3000001F41F040002168143141E80002002AC0
:104D4000F3D100BF002004B070BD00000D49000881
:104D5000C1490008BD480008014691F841002128DA
:104D600028D18868B0F5805F0BD1086948B90A6A14
:104D70001088C0F308000B685860086A801C08623D
:104D800005E00B6A581C086218780B685860C88CDC
:104D9000401E80B2C88458B90868C06820F08000FE
:104DA0000B68D8600868C06840F040000B68D860A5
:104DB000002070470220FCE710B50248FEF734F8E7
:104DC00010BD00001C03002000BFFEE770B50446C4
:104DD0000D462946204600F019F82946204600F0E5
:104DE00001F870BD70B505460C4644F00401284634
:104DF00000F00CF80120FCF741FA24F004012846E9
:104E000000F004F80120FCF739FA70BD7CB50446C7
:104E10000D46E079284301904FF0FF300090207854
:104E20004100012301AA0248FCF7D8FC7CBD000028
:104E3000180100202DE9F04106460C46154604F005
:104E4000F007F02000EA041847EA05013046FFF7B2
:104E5000BDFF48EA05013046FFF7B8FFBDE8F08125
:104E600010B5044600206070A279617900232046C5
:104E7000FEF73FFC10BD000002480068C0F30220AE
:104E8000704700000CED00E010B5002804DB0A07B5
:104E9000130E054A135406E00A07140E034A00F0E5
:104EA0000F031B1FD45410BD00E400E018ED00E018
:104EB000EFF305807047FCF79BFDFFF72FFBFEF734
:104EC00059FDFEF7F3FCFEF7DDFDFEF75FFFFEF791
:104ED0005DFEFEF79BFEFEF7D9FEFEF717FFFEF71D
:104EE000B3FDFEF7D7FFFFF703F8FBF7F7FC00F081
:104EF00015F8FEF7FDFC00F027F800BFFEE770B5DF
:104F00000546FFF7D5FF10B16FF0050404E000245B
:104F100015B1284601F0B6F8204670BD10B5FFF770
:104F2000C7FF10B16FF0050409E00648006820B91A
:104F3000012004490860002401E04FF0FF342046BE
:104F400010BD00009C00002070B5FFF7B1FF10B14C
:104F50006FF005041FE011480068012819D100BF57
:104F6000801F0021002804DB0A07130E0C4A13548B
:104F700006E00A07150E0B4A00F00F031B1FD5545D
:104F800000BF00BF02200549086001F061F900245C
:104F900001E04FF0FF34204670BD00009C0000206F
:104FA00000E400E018ED00E02DE9FF478046894667
:104FB000144600200390FFF77BFF00284ED1B8F184
:104FC000000F4BD0802618258246471E44B3206828
:104FD00008B1D4F800A0A06900B1A5692DB1382DA1
:104FE00003D8207900F0010018B1002004B0BDE81A
:104FF000F087606908B160698608A06840B1E06820
:105000005C2805D3206918B1606908B1012708E060
:10501000A06830B9E06820B9206910B9002700E025
:105020000027012F0CD12169A0684B463246CDE9FB
:10503000005102905146404601F086FD03900DE07C
:1050400067B903A8B2B24B465146CDE9005040467D
:1050500001F048FD012801D0002003900398C5E726
:105060002DE9FE4F0646894692461C4600200290D6
:10507000FFF71EFF00284BD1002E49D0082000F07A
:10508000ABFD0546002D43D02E60C5F804A0B9F154
:10509000000F01D1002700E001274FF0FF384FF04B
:1050A000000B94B1206808B1D4F800B0A06828B112
:1050B000E0682C2802D34FF0010808E0A06830B95E
:1050C000E06820B94FF0000801E04FF00008B8F1A7
:1050D000010F0BD11049A0682B463A46CDE90010CC
:1050E0000121584601F081FF02900BE0B8F1000F5A
:1050F00008D109482B463A4601210090584601F054
:1051000059FF0290029818B915B1284600F0DCFE4C
:105110000298BDE8FE8F000093480008F8B50546E8
:105120000E462F46FFF7C4FE10B16FF0050411E0E4
:1051300017B96FF003040DE0002003463246042146
:105140000090384601F0C6FF012801D1002401E09B
:105150006FF002042046F8BD2DE9F04105460E46E9
:105160001648076816480068001D00F003FE681C1A
:1051700038B936B112480168091D124800F050FED6
:105180001AE07C190E4800684460BC4207D20C4803
:105190000168091D0C48006800F028FE0CE0084872
:1051A0000168091D0948006800F020FE08480068F1
:1051B000844201D206480460BDE8F081600000200E
:1051C0004C00002024090020540000205000002042
:1051D0007C00002010B5044600F02EFE2448006834
:1051E000401C234908602348006840B921480460F6
:1051F0000846006801280DD100F02AFA0AE01E488E
:10520000006838B91B480068C06AE16A884201D862
:105210001848046019480068401C1849086008468E
:10522000006860641649E06A0968884202D9144936
:10523000E06A0860E16A01EB8101124A02EB810039
:10524000211D00F0EDFD00F021FE0B48006868B163
:1052500008480068C06AE16A884207D24FF080506F
:1052600009490860BFF34F8FBFF36F8F10BD000077
:105270005C0000204C000020680000207800002026
:10528000640000207404002004ED00E008B500F084
:10529000D3FD12480068E8B9114800F097FD1148A5
:1052A00000F094FD0E48104908600E480F49086050
:1052B00000200F4B0F4A102100900A2001F00AF93C
:1052C000064908600846006820B10BA10348006841
:1052D00000F09CFE00F0DAFD08BD00009000002008
:1052E000380900204C090020880000208C00002094
:1052F00060090020B0090020546D725100000000C8
:1053000010B516E000F098FD0C48C068C468201D78
:1053100000F030FD0A480068401E0949086009484D
:105320000068401E0749086000F0B0FD204600F00C
:105330005FF8044800680028E4D110BD100900207F
:105340005C0000205800002070B504460D46206C1B
:1053500070B1216CE0680144E160D4E90210884238
:1053600001D32168E1602846226CE168FBF74EF822
:1053700070BD2DE9F04104460F4615464FF0000878
:10538000A66B206C48B9206800282CD1A06801F0D9
:10539000F1FC80460020A06025E07DB93946226CF2
:1053A0006068FBF733F8216C606808446060D4E9FA
:1053B0000101884217D32068606014E03946226CEE
:1053C000E068FBF723F8216CE068411AE16021688E
:1053D000E068884203D2216CA068411AE160022D86
:1053E00001D106B1761E701CA0634046BDE8F08175
:1053F00010B5044694F8590030B9206B00F064FDF4
:10540000204600F061FD1AE094F85900012803D10C
:10541000204600F059FD12E094F85900022801D10D
:10542000012000E0002050B900BF502080F3118817
:10543000BFF34F8FBFF36F8F00BF00BFFEE710BDFC
:105440000146084A126812680AB9012200E00022E7
:105450000A600A6822B9034A1268D268106800E03C
:10546000002070478800002030B54FF44063174893
:1054700000F007042CB1C01D20F00700134C041BE2
:105480001B1B0246124C22600024114D6C60D01888
:10549000083820F007000F4C206000240D4D2D68C7
:1054A0006C600C4D2D682C601146441A4C60094C00
:1054B00024680C60084D4C682C60084D4C682C60CA
:1054C0004FF00044064D2C6030BD00000811002054
:1054D000A0000020A8000020B0000020AC000020A8
:1054E000BC00002000BFFFF70BFF06480068012842
:1054F000F9D94FF0805004490860BFF34F8FBFF3D4
:105500006F8FF0E77404002004ED00E02DE9F04116
:1055100006460D4617469846069C0DB9246000E0E5
:105520002760E66325640121204601F043F884F8F2
:105530004C80BDE8F0812DE9F05F82460E46904632
:105540009B460A9F0C9C4FEA8801A522206BFAF724
:10555000D4FFA8F10100216B01EB800929F00709B4
:1055600009F0070008B9012000E0002050B900BF91
:10557000502080F31188BFF34F8FBFF36F8F00BFB0
:1055800000BFFEE786B1002507E0715D04F134003D
:105590004155705D00B902E06D1C102DF5D300BFC0
:1055A00000214320015502E0002084F83400382F08
:1055B00000D33727E762E76400202065201D00F054
:1055C00012FC04F1180000F00EFC2461C7F1380051
:1055D000A06164620020606584F858005A46514614
:1055E000484600F0B5FB20600B9808B10B980460AA
:1055F000BDE8F09F2DE9F04706460D461746984650
:10560000DDE908940DB1012000E0002050B900BF91
:10561000502080F31188BFF34F8FBFF36F8F00BF0F
:1056200000BFFEE78CB1FFF731FE2660A561C4F82C
:105630001C80C4F82090201D00F0D5FB2FB194F8F9
:10564000280040F0040084F82800BDE8F08700003E
:1056500010B5002407E004EB84010F4A02EB81003F
:1056600000F0B4FB641C382CF5D30C4800F0AEFB02
:105670000B4800F0ABFB0B4800F0A8FB0A4800F019
:10568000A5FB0A4800F0A2FB044809490860044849
:105690000849086010BD000074040020D4080020F0
:1056A000E8080020FC080020100900202409002040
:1056B000500000205400002010B50146164800E0BC
:1056C000006803688B42FBD30246436813448B4255
:1056D00004D143684C682344436001460A464B6842
:1056E00013440468A34211D10C4C03682468A342FC
:1056F00008D04B680468646823444B6003681B68E7
:105700000B6005E0054B1B680B6001E003680B6054
:10571000884200D0016010BDA0000020A800002039
:105720002DE9F04104460D4616461F464FF000088D
:1057300065602461B5420CD8F01BA169884202D390
:105740004FF0010811E0211D0948006800F04EFBF0
:105750000BE0BE4204D2BD4202D34FF0010804E088
:10576000211D0448006800F041FB4046BDE8F0817F
:105770008C0000208800002070B5054600F05CFB1E
:10578000A86B08B9012400E0002400F07FFB20464C
:1057900070BD70B5054600F04FFBA86BE96B884201
:1057A00001D1012400E0002400F070FB204670BD10
:1057B000F8B505460F461A480068C068C468201D41
:1057C00000F0D8FA94F8280000F00400E8B1A069CD
:1057D00041192B463A462046FFF7A2FFD8B10020D8
:1057E00003462A4601460090204601F073FC064617
:1057F00056B900BF502080F31188BFF34F8FBFF31D
:105800006F8F00BF00BFFEE705E094F8280020F08E
:10581000010084F828002046216A8847F8BD00006E
:1058200088000020F0B587B0A0E00398002811DAC6
:1058300004AE56B900BF502080F31188BFF34F8FDC
:10584000BFF36F8F00BF00BFFEE7D6E90020B1684D
:10585000904700BF03980028E6DB059C606908B903
:10586000012000E0002010B9201D00F083FA02A8FA
:1058700000F0DEF8054603980A2875D2DFE800F04C
:1058800009050739416306083A4200BF00BF00BF5F
:1058900000BF94F8280040F0010084F82800049824
:1058A000A269811803462A462046FFF739FFF8B15E
:1058B0002046216A884794F8280000F00400B8B117
:1058C000002000900498A169421800231946204640
:1058D00001F000FC074657B900BF502080F3118843
:1058E000BFF34F8FBFF36F8F00BF00BFFEE700BF56
:1058F0003BE000BF94F8280020F0010084F8280065
:1059000033E000BF94F8280040F0010084F828003C
:105910000498A061A06908B1012000E0002050B9FE
:1059200000BF502080F31188BFF34F8FBFF36F8FFC
:1059300000BF00BFFEE7A06941192B462A4620465A
:10594000FFF7EEFE11E094F8280000F0020018B90D
:10595000204600F0B9FA05E094F8280020F0010094
:1059600084F8280001E0FFE700BF00BF002203A980
:105970000448006800F0BCFF00287FF456AF07B071
:10598000F0BD000090000020F8B505460C4600F080
:10599000BBFC684600F04CF80646009820BB44B9B2
:1059A000B54206D801F084FA31462846FFF700FFD9
:1059B0001CE03CB10E480068006808B9012000E016
:1059C00000200446A91B22460A48006800F034FB68
:1059D00001F06EFA50B94FF0805007490860BFF3EC
:1059E0004F8FBFF36F8F01E001F062FAF8BD000046
:1059F0008C0000209000002004ED00E00A490968B6
:105A0000096809B9012100E0002121B14FF0FF31FF
:105A1000064A116006E004490968C968C868034A73
:105A20004168116070470000500000207C00002099
:105A300070B5044601F0F6F805460748006885424F
:105A400004D200F00BF80120206001E0002020606B
:105A500001480560284670BD980000202DE9F843F4
:105A600034E025480068C068056823480068C068BD
:105A7000C468201D00F07EF92046216A884794F80A
:105A8000280000F0040008B3A0694619AE4207D907
:105A900066602461211D1848006800F0A7F915E030
:105AA000002003462A4601460090204601F012FBE2
:105AB000074657B900BF502080F31188BFF34F8FBE
:105AC000BFF36F8F00BF00BFFEE700BF0A4800684A
:105AD000006808B9012000E000200028C1D0064875
