:020000040800F2
:10000000E0110020A5010008FD390008AD36000808
:10001000F93900087D090008CD4100080000000002
:10002000000000000000000000000000713A00081D
:10003000ED09000800000000013A0008953A0008A8
:10004000BF010008BF010008BF010008BF01000890
:10005000BF010008BF010008BF010008BF01000880
:10006000BF010008BF010008BF010008BF01000870
:10007000A5090008BF010008B1090008BF01000878
:10008000BF010008BF010008BF010008BF01000850
:10009000810900088D09000899090008BF010008BE
:1000A000BF010008BF010008BF010008BF01000830
:1000B000BF010008C13A0008BF010008BF010008E5
:1000C000BF010008BF010008BF010008BF01000810
:1000D000BF010008A9410008BF010008B5410008A0
:1000E000BF010008BF010008BF010008BF010008F0
:1000F000BF010008BF010008BF010008BF010008E0
:10010000BF010008BF010008BF010008BF010008CF
:10011000BF010008BF010008BF010008BF010008BF
:10012000BF010008BD090008C9090008BF01000897
:10013000BF010008BF010008BF010008BF0100089F
:10014000BF010008BF010008BF010008BF0100088F
:10015000BF010008D5090008E1090008C1410008F5
:10016000BF010008BF010008BF010008BF0100086F
:10017000BF010008BF010008BF0100080000000027
:10018000BF010008BF010008DFF814D000F002FB37
:1001900000F070F800480047A952000800F02CFB5E
:1001A000E01100200648804706480047FEE7FEE7CA
:1001B000FEE7FEE7FEE7FEE7FEE7FEE7FEE7FEE717
:1001C000AD3A0008890100082DE9F05F05460020DE
:1001D00092469B4688460646814640241BE02846B8
:1001E00041464746224600F0F6F953465A46C01AA1
:1001F000914110D311461846224600F0DDF92D1A20
:1002000067EB01084F4622460120002100F0D4F997
:1002100017EB00094E41201EA4F10104DFDC484623
:1002200031462A464346BDE8F09F40EA01039B075A
:1002300003D009E008C9121F08C0042AFAD203E05B
:1002400011F8013B00F8013B521EF9D27047D2B2BF
:1002500001E000F8012B491EFBD270470022F6E7AF
:1002600010B513460A4604461946FFF7F0FF20462C
:1002700010BD00007CB50748009007480190054676
:10028000009C04E02046016808448047241DAC42DD
:10029000F8D17CBDB0690008B46900080B4601467E
:1002A000184600F0CCB92DE9FE4F804681EA0300E4
:1002B000C00F0C46009021F0004123F00045B8EB40
:1002C0000200A94105D24046214690461C460B46F5
:1002D000024623F00040104347D0270DC7F30A0021
:1002E000C3F30A510290401A019040286BDAC3F31D
:1002F000130040F4801B0098924620B10023D2EBFB
:10030000030A63EB0B0B01985946C0F140025046BB
:1003100000F052F906460D4650465946019A00F043
:100320006AF910EB08006141002487EA115284EA5F
:10033000E7731A4340D0009A62B3019A012A4FEA48
:10034000075215DC001B61EB02014FF0004202EA8C
:100350000752CDE90042001C41F5801132462B4680
:1003600000F0CAF903B0BDE8F08F40462146F9E736
:10037000001B61EB0201001C41F5801300185B417A
:100380002018A2F5001747EB030140EAD570B61913
:100390006D4111E06D084FEA360645EAC0754FEA37
:1003A0000752001B61EB0201001C41F58011490856
:1003B0004FEA30000019514132462B4603B0BDE8E8
:1003C000F04F00F08AB90098012240000023D0EBE2
:1003D000020263EBE073009821464FEAE074B8EB49
:1003E000000061EB0401E9E783F000435BE781F083
:1003F000004158E72DE9FE4F81EA030404F0004470
:1004000021F0004100944FF0000B23F0004350EA2C
:1004100001045ED052EA03045BD0C3F30A54C1F373
:100420000A552C44A4F2F3340194A0FB0254C1F306
:10043000130141F48011C3F3130343F4801301FB50
:10044000024400FB034E840A970A44EA815447EAB7
:100450008357A4FB076802958D0A05FB07854FEAC1
:10046000932C04FB0C542705029D4FEA065847EADB
:100470001637B5EB08056EEB070C870E920E47EAB0
:10048000811742EA8312A7FB0201B6EB0B0164EB72
:1004900000042B0D43EA0C335E1844EB1C50DA4683
:1004A0005146E7FB0201C5F313044FEA0B3343EA5D
:1004B00014534FEA0432019C43EA0603A4F10C04EE
:1004C0000294009CCDE900B400F016F903B0BDE839
:1004D000F08F00200146F9E730B5041E71F10004E9
:1004E00004DB4FF00044404264EB0101141E73F141
:1004F000000405DB1C464FF00043524263EB04034B
:10050000801A994101D3012030BD002030BD30B5A3
:10051000041E71F1000404DB4FF00044404264EB20
:100520000101141E73F1000405DB1C464FF000436B
:10053000524263EB0403101A8B4101D3012030BDFA
:10054000002030BD0EB5C10F80EAE0700844CA0734
:10055000002140F233438DE80E000A460B4600F0BE
:10056000CBF803B000BD0EB540F23341029100213B
:10057000CDE900110A460B4600F0BEF803B000BDFD
:1005800001F0004330B421F0004150EA010206D0EE
:100590000A0DA2F56072C1F31301002A02DC30BC1F
:1005A00000207047440F44EAC104C100E01830BC89
:1005B00000EBC25000F05AB8202A04DB203A00FABF
:1005C00002F1002070479140C2F1200320FA03F3AA
:1005D000194390407047202A04DB203A21FA02F0A8
:1005E0000021704721FA02F3D040C2F1200291406D
:1005F000084319467047202A06DBCB17203A41FAF8
:1006000002F043EAE07306E041FA02F3D040C2F19F
:100610002002914008431946704710B50446481E11
:10062000014201D1042901D2052010BD104605F078
:10063000DFFB10B12060002010BD062010BD2DE9A9
:10064000F041074615460E46102005F081FC0400D7
:100650000AD06760C4E9026500F0CAF80168216049
:1006600004600020BDE8F0810120FBE70029A8BF5D
:100670007047401C490008BF20F00100704710B4CB
:10068000B0FA80FC00FA0CF050EA010404BF10BC80
:10069000704749B1CCF1200421FA04F411FA0CF1AD
:1006A00018BF012121430843A3EB0C01CB1D4FEAE6
:1006B00000614FEA102042BF002010BC704700EBE1
:1006C000C35010440029A4BF10BC7047401C49000F
:1006D00008BF20F0010010BC704710B5141E73F164
:1006E000000408DA401C41F1000192185B411A43F2
:1006F00001D120F0010010BD2DE9F04D92469B463E
:1007000011B1B1FA81F202E0B0FA80F220329046E3
:10071000FFF752FF04460F4640EA0A0041EA0B0188
:1007200053465A46084313D0114653EA010019D0E4
:10073000C8F140025046FFF74EFF05460E465046B0
:1007400059464246FFF738FF084305D0012004E030
:1007500020463946BDE8F08D0020054346EAE076A4
:100760002C4337430A986305E40AA0EB08000022F3
:10077000FD0A44EA47540A3002D500200146E9E761
:10078000010510196941DDE9084500196941BDE815
:10079000F04DA2E71CB509480090094801900546B4
:1007A000009C06E0E06840F0010394E807009847E9
:1007B0001034AC42F6D3FFF7EBFC00009069000860
:1007C000B069000830B50B46014600202022012404
:1007D00009E021FA02F59D4205D303FA02F5491B0F
:1007E00004FA02F52844151EA2F10102F1DC30BD25
:1007F000004870470C0000202DE9F0410646FFF745
:10080000F7FF8046454613E016B1E068B0420ED1CE
:1008100020682860D4E90101D8F800708847204694
:1008200005F036FBD8F80000B842EBD100E02546D1
:100830002C68002CE8D1BDE8F0812DE9F04D81EA6B
:10084000030404F0004B21F0004514464FF0000A69
:1008500023F0004150EA050220D054EA01021DD0E5
:10086000C5F30A570246C5F31303C1F31300C1F3DE
:100870000A5640F4801543F48013A7EB0608101BBA
:10088000D64608F2FD3873EB050002D308F10108E3
:1008900001E092185B41B8F1000F03DA0020014635
:1008A000BDE8F08D00204FF48011064684460EE02E
:1008B000171B73EB050705D3121B63EB05030643F8
:1008C0004CEA010C49084FEA300092185B4150EAAB
:1008D0000107EDD152EA030012D082EA040083EA54
:1008E0000501084305D0101BAB4106D201220023AD
:1008F00006E000224FF0004302E06FF001025310C7
:100900001AEB06004CEB085110EB0A0041EB0B010F
:10091000BDE8F04DFFF7E1BEC1F30A52C1F3130188
:1009200040F2FF3341F480119A4202DA002001467E
:10093000704740F233439A42A2F2334202DC524201
:10094000FFF749BEFFF738BE30B5041E71F1000451
:1009500004DB4FF00044404264EB0101141E73F1CC
:10096000000405DB1C464FF00043524263EB0403D6
:10097000994208BF904230BD70470000FEE700007A
:1009800040F22830C2F2000000F0CCB940F228302A
:10099000C2F2000000F0C6B940F22830C2F20000F6
:1009A00000F0C0B940F23840C2F2000000F0C6BC0E
:1009B00040F29840C2F2000000F0C0BC40F2F840A3
:1009C000C2F2000000F0BABC40F27830C2F200007F
:1009D00000F0B4BC40F25850C2F2000000F0AEBCCF
:1009E00040F2D830C2F2000000F0A8BC704700000E
:1009F00072B6000090F82020013A012A08D8006859
:100A000000F114020020136819431160704700BF01
:100A100000F1240201204FF4802113681943116072
:100A20007047000010B590F820E0D0F800C0AEF19B
:100A3000010EBEF1010FDCF808E011D81EF0E05FF6
:100A400018D0CEF301640120A04018608B68DBB1A0
:100A5000D1F804E0C86840EACE0040EA030E17E08F
:100A600000F1240301204FF480211A68114319601A
:100A700010BD00BF00F1240301204FF400111A68DB
:100A80001143196010BD00BF0868CB6843EA405E9F
:100A90000CF5C07000EB0413240140F804E00C696D
:100AA000184640F8044F097D012903D1016841F43B
:100AB0008071016050680121D86010689860002042
:100AC0001A681143196010BD90F82020013A012ADC
:100AD00030D8B0B546F20060C4F20000026842F0BF
:100AE00001020260026822F47C520260D1F814E034
:100AF000CC694A6A0368012C43EA022202600EF0C4
:100B00001F024FF0010303FA02F2C3696FEA020CFD
:100B100023EA0203C36113D02CBBC36803EA0C03AE
:100B2000C360CB688C8844EA034300EBCE042364A3
:100B30000B4611E0416A41F4802141620120704777
:100B4000C3681343C3600B688C8844EA034300EB1B
:100B5000CE04236401F10C038C681B8843EA044330
:100B600000EBCE04636443688D6943EA0204D1F864
:100B700010E0096A002D08BF03EA0C0444604369D1
:100B8000BEF1000F43EA020408BF03EA0C04012986
:100B9000446102D1C1691143C161016821F00101C1
:100BA00001600020B0BD00007047000090F82020D8
:100BB000013A012A84BF00207047006810220029F2
:100BC00008BF0C22805800F003007047B0B590F8C1
:100BD0002040013C012C7DD8D0F800C000290CBF7A
:100BE000DCF80C40DCF81040A4077DD00CF5D8757B
:100BF0004FEA011C55F80C4014F00404946055F8B9
:100C00000CE005EB011C19BF4FEADE0555604FEA09
:100C10005E551560DCF80050E64605F00205D5602B
:100C20005EF8044F24075ABFDEF8004004F00F04BA
:100C300008241461DEF800400029C4F307249461FD
:100C4000DEF800504FEA15455561DCF808201A70AF
:100C5000026802EB0112D2F8B8214FEA12225A7050
:100C6000026802EB0112D2F8B8214FEA12429A70E0
:100C7000026802EB0112D2F8B8214FEA1262DA7070
:100C8000026802EB0112D2F8BC211A71026802EB71
:100C90000112D2F8BC214FEA12225A71026802EB0B
:100CA0000112D2F8BC214FEA12429A71026802EB9B
:100CB0000112D2F8BC214FEA1262DA7100680CBF4F
:100CC00000F10C0100F11001002020220B681A43F2
:100CD0000A60B0BD00F1240101204FF480220B68AE
:100CE0001A430A60B0BD00BF00F1240101204FF497
:100CF00000120B681A430A60B0BD000090F8201083
:100D00000139012984BF002070470068816882682A
:100D10008068C1F38061C2F3C0621144C0F3007007
:100D2000084470472DE9F04F81B0044600684669D9
:100D3000D0F804908768D0F80CB0D0F810A0D0F8A4
:100D40001880F10704D1002530071DD424E000BF2E
:100D5000F90710D00121BA07816009D4780700F1A2
:100D6000AF80380700F1B680204600F07FFA02E03D
:100D7000204600F07DFA0025F80500F18780F80391
:100D800000F1B180300707D51BF0100004D02068B7
:100D900045F400751021C160700708D51BF00800EC
:100DA00005D020680821C160204600F00DFAB00788
:100DB00006D52068C068800702D0204600F006FAF9
:100DC000700607D51AF0100004D0206845F480653D
:100DD00010210161B00608D51AF0080005D020687E
:100DE00008210161204600F00DFAF00606D52068C2
:100DF0000069800702D0204600F006FAB00308D54B
:100E000019F0100005D0206810214160204600F044
:100E1000FDF9F00308D519F0080005D02068082175
:100E20004160204600F02EFA300440F19B805FEADA
:100E3000497040F1948006F4807008EA102028433D
:100E40005FEA8871014648BF41F00201B20558BF10
:100E500001465FEA48700D4648BF45F0040570053D
:100E600058BF0D46300540F17A8018F0700000F050
:100E700076801038000905286CD8DFE800F003659B
:100E80005D61596945F0080564E000BF20684FF4D2
:100E90008071BA0581600BD4780515D438051DD44E
:100EA000204600F0E7F9F8037FF56CAF1BE000BFC8
:100EB000204600F0E1F9F8037FF564AF13E000BFCE
:100EC0004FF4006558E700BF05F50055F8037FF5BE
:100ED00059AF08E04FF480554EE700BF05F5804557
:100EE000F8037FF54FAF20684FF48031BA0381607B
:100EF0000AD4780310D4380314D4204600F0BEF985
:100F000030073FF541AF47E7204600F0B9F9300719
:100F10003FF53AAF40E700BF05F5004530073FF524
:100F200033AF39E705F5803530073FF52DAF33E7AF
:100F300045F080050EE000BF45F020050AE000BF47
:100F400045F0400506E000BF45F0100502E000BF97
:100F500045F480752068816921F070018161206805
:100F60000421416055B1606A40EA05012046616292
:100F700001B0BDE8F04FFFF717BE00BF01B0BDE8FC
:100F8000F08F0000002804BF01207047B0B5044670
:100F900090F8200010B9204600F06EF82068016833
:100FA00041F00101016000F07FFC054620684168C6
:100FB000C90705D100F078FC401B0B28F6D310E0E0
:100FC000016821F00201016000F06EFC054600BFDF
:100FD0002068416889070DD500F066FC401B0B288E
:100FE000F6D3606A052140F400306062012084F885
:100FF0002010B0BD217E0268012922F0800208BFC6
:1010000080320260617E0268012922F0400208BF3E
:1010100040320260A17E0268012922F0200208BF4E
:1010200020320260E17E0268012922F0100218BF1E
:1010300010320260217F0268012922F0080208BFF5
:1010400008320260617F0268012922F0040208BFB1
:1010500004320260D4E901C2D4E9033561691A435C
:101060002A431143ACF101021143C1610020012167
:10107000606284F82010B0BD80B586B0006846F686
:101080000002C4F2000200219042CDE90411CDE932
:101090000211019156D046F20041C4F2000188428B
:1010A00040F0908040F2BC11C2F200010A6843F6A1
:1010B0004000C4F20200531C0B6052B900210091A1
:1010C000016841F000710160016801F00071009158
:1010D00000990021009150F8102C42F0080240F8CD
:1010E000102C50F8100C022200F00800009000981C
:1010F0000320019004900920059040F20040C4F2C2
:101100000200CDE9022100F5006001A900F0FCFA1F
:1011100014200521002200F04FFC142000F03AFCBE
:1011200015200521002200F047FC152000F032FCBC
:1011300016200521002200F03FFC162000F02AFCBA
:1011400006B080BD43F64000C4F202000091016881
:1011500041F080610160016801F0806100910099B7
:1011600040F2BC11C2F200010A68531C0B6052B974
:1011700000210091016841F000710160016801F0F7
:101180000071009100990021009150F8102C42F05C
:10119000020240F8102C50F8100C00F002000090F1
:1011A000009842F2200001900220CDE902010320C4
:1011B00004900920059040F20040C4F2020001A909
:1011C00000F0A2FA06B080BD7047000080B586B07E
:1011D00003F0F6FD01688A680021904701684A69BA
:1011E0006946904758B10298A0F20520012806D818
:1011F00040F2D810C2F20000694603F09BFC06B032
:1012000080BD00007047000070470000704700007C
:10121000B0B5044690F8200001281DD1022084F8C2
:1012200020002068016821F00101016000F03CFB12
:10123000054600BF20684068C00713D000F034FBAB
:10124000401B0B28F6D3606A40F400306062052032
:1012500084F820000120B0BD606A40F40020606284
:101260000120B0BD00206062B0BD000070470000EA
:101270007047000070470000704700007047000092
:10128000704700007047000070B5866D044600F09E
:101290000BFB94F83510022928D105462068216CF3
:1012A000026822F016020260426922F08002426166
:1012B00009B9A16C19B1016821F008010160016848
:1012C00021F00101016000BF20680068C00715D04F
:1012D00000F0EAFA401B0628F6D3202060650320C0
:1012E00084F83500002184F8341070BD80206065DA
:1012F0000120002184F8341070BD00BFE06D3F2153
:1013000001FA00F0B060012084F8350000200021CF
:1013100084F8341070BD000090F83510022909D10E
:10132000052180F835100068016821F00101016095
:10133000002070478021416501207047F0B581B0E1
:101340000021009140F21801C2F200010B68D0E9BF
:10135000166148F2B51537680822C1F64E358A4045
:101360003A42A3FB05350CD003681C68640708D516
:101370001C6824F004041C60B260426D42F001025B
:10138000426501228A403A4208D003685B691B0625
:1013900004D5B260426D42F00202426504228A40E6
:1013A0003A4208D003681B689B0704D5B260426DBF
:1013B00042F00402426510228A403A4219D0016884
:1013C0000B681B0715D5B2600B680A685B0309D46C
:1013D000D20509D40A6822F008020A60016C29B912
:1013E00007E000BF110341D4016C11B104468847E6
:1013F0002046C26D202101FA02F33B4243D001682E
:101400000F68FF063FD5B36090F835700B68052F65
:101410001CD123F016030B604B6923F080034B6152
:10142000036C0BB9836C1BB10B6823F008030B60D2
:101430003F219140B160012180F83510016D0022FB
:10144000002980F8342054D158E000BF0A685B03BB
:1014500010D4D20512D40A6822F010020A600121C9
:1014600080F83510002180F8341007E0816C0029E5
:10147000BCD1BEE7110301D4416C00E0C16B11B1D6
:10148000044688472046416DC1B3416DC9072ED03F
:10149000052180F835100168AA0A0B6823F00103C2
:1014A0000B60009B0133934200931AD80B68DB0753
:1014B00017D0009B01339342009312D80B68DB07CF
:1014C0000FD0009B0133934200930AD80B68DB07CF
:1014D00007D0009B01339342009302D80B68DB07CF
:1014E000DFD1012180F83510002180F83410C16C63
:1014F00021B101B0BDE8F040084700BF01B0F0BD28
:101500002DE9F041044600F0CFF9ECB10546022088
:1015100084F835000020216884F83400086820F041
:101520000100086021680868C00711D000F0BCF90C
:10153000401B0528F6D9032520230320636584F882
:101540003550BDE8F08100BF0120BDE8F08100BF4B
:10155000086848F23F02CFF21002D4E9013500EAF0
:10156000020C04F10C0898E8C10143EA0C032B4378
:101570001843D4E9072E304338431043626A40EAE7
:101580000E00042A40EA08031CD1206BD4E90A2E7D
:1015900040EA0E00184308604869BEF1000F20F0D1
:1015A000030040EA020040F0040C11D0B8F5005FDF
:1015B00036D0B8F1000F45D1022A46D0012A3BD0DF
:1015C00032B942E00B60486920F0070040EA020CA3
:1015D00001F0F8004AF6AB221038CAF6AA22A0FBA6
:1015E00002231A0946F6B003C1F814C0C0F600037E
:1015F0009A5C40F2FF335F284FF03F0021EA03017D
:1016000000FA02F088BF0431C4E916128860002392
:1016100001250020636584F83550BDE8F08100BFE6
:10162000032AD5D8012540230120DFE802F0030E6C
:10163000030500BF82E700BFAEF1C070B0FA80F0D2
:10164000400904E0032A04D3C2D1CEF3006000288D
:10165000BED0012540230120636584F83550BDE8E4
:10166000F081000090F834C0BCF1010F04BF0220EB
:10167000704770B54FF0010C80F834C0D0F858E0D6
:1016800090F835C0BCF1010F38D14FF0020C80F852
:1016900035C04FF0000CC0F854C0D0F800C08468CA
:1016A000056CC06DDCF80060402C26F48026CCF878
:1016B0000060CCF804300B4604BF13460A463F21B5
:1016C00001FA00F0CCF80830CCF80C20CEF8080075
:1016D000DCF8000040F01600CCF800002DB1DCF87A
:1016E000000040F00800CCF80000DCF8000040F0FA
:1016F0000100CCF80000002070BD00BF002180F880
:101700003410022070BD00002DE9F04F83B000F1CD
:10171000200200F13E4741F60045009207F1FF77B5
:10172000C4F2020508224FEAB726A84208BF0722E2
:1017300000254FF000084FF00009072E38BF4FEA90
:10174000B72201920AE000BF09F1010908F102087D
:10175000B9F1100F05F1040500F0A2800F68012215
:1017600002FA09FE17EA0E0AEED0D1F804C00322ED
:101770000CF003077E1E02FA08F4012E6FEA040B38
:1017800012D88468CE6804EA0B0406FA08F63443DB
:101790008460446824EA0E06CCF3001404FA09F4C9
:1017A0002643466004E000BF032F01D103271EE05B
:1017B000C6688C6806EA0B0604FA08F42643022F72
:1017C000C66014D16FF00302009E02EA590756F872
:1017D00007C005F01C040F220B69A2402CEA02028C
:1017E000A3401A43F251D1F804C00CF00307026879
:1017F00007FA08F302EA0B021A431CF4403F0260A6
:10180000A2D0002243F644030292C4F202031A68F3
:1018100043F6004442F480421A601A68C4F201049C
:1018200002F480420292029A29F003024FF6084C19
:101830002244CFF6FF7C52F80C3005F00C070F263F
:10184000BE40B343019E06FA07F73B4342F80C3013
:10185000A2684B6842EA0A0743F60C4CDE0258BF06
:1018600022EA0A07A760C4F2010CDCF800209E02FD
:1018700042EA0A0758BF22EA0A07CCF800706268F9
:101880009E0342EA0A0758BF22EA0A0767602268F5
:10189000DB0342EA0A0758BF22EA0A07276053E738
:1018A00003B0BDE8F08F000040F68810C2F20000DF
:1018B0000068704740F2100040F68811C2F2000044
:1018C000C2F2000100780A68104408607047000006
:1018D00080B543F60040C4F20200016841F4007193
:1018E0000160016841F480610160016841F4807128
:1018F0000160032000F08CF80F2000F005F800F0E4
:1019000027F8002080BD000070B540F21006C2F23A
:10191000000640F218013278C2F200014FF47A73E7
:101920000968B3FBF2F20446B1FBF2F1084600F09D
:1019300065FB0F2C4FF0010508D838B94FF0FF3088
:1019400021460022002500F037F87460284670BD5B
:1019500082B0002043F640010190C4F202014A68BF
:1019600042F480424A604A6802F480420192019A3D
:1019700000900868002240F08050086008680F213D
:1019800000F08050009000986FF0010002B000F06D
:1019900013B80000002848BF704700F01F01012263
:1019A00002FA01F11C2202EAD0004EF20012CEF23D
:1019B000000281507047000010B54EF60C5CCEF26C
:1019C000000CDCF80030C3F3022E8EF00704042C68
:1019D00028BF0424BEF103034FF0FF3E0EFA04F4C7
:1019E00038BF0023A14399400EFA03F39A431143F1
:1019F00000F00F0200F160430901043A03F564436B
:101A00006244002848BF02F10C03197010BD0000A9
:101A10004EF60C51CEF200010A684FF6FF031A4051
:101A200060F30A2242F0806040F0FD700860704769
:101A3000002804BF012070472DE9F04143F6080853
:101A4000C4F202080446D8F8F8030D4600F0070077
:101A5000884207D288F8F853D8F8F80300F0070056
:101A6000A84277D12068810717D5410705D5D8F856
:101A7000001041F4E051C8F80010010705D5D8F86E
:101A8000001041F46041C8F80010D8F80010A268B6
:101A900021F0F0011143C8F80010C00740D1D8F878
:101AA000F80300F00700A84207D988F8F853D8F8DF
:101AB000F80300F00700A8424CD12068410707D581
:101AC000D8F80010E26821F4E0511143C8F8001082
:101AD000000708D5D8F80000216920F4604040EAEA
:101AE000C100C8F8000000F07DF8D8F8001046F6F4
:101AF0003802C1F30311C0F60002515C40F2180233
:101B000020FA01F140F21400C2F200000068C2F2B3
:101B100000021160FFF7F8FE0020BDE8F08100BF71
:101B20006068811E022907D258F8081C89015CBF31
:101B30000120BDE8F08111E0012807D158F8081C08
:101B400089035CBF0120BDE8F08107E058F8081C5C
:101B5000890703D40120BDE8F08100BFD8F8001048
:101B600021F003010843C8F80000FFF79DFE064678
:101B700041F28837D8F80000616800F00C00B0EB43
:101B8000810F8CD0FFF790FE801BB842F2D9032062
:101B9000BDE8F08140F2180043F60801C2F20000EF
:101BA000C4F202010068096846F64802C1F38221C6
:101BB000C0F60002515CC8407047000040F21800B7
:101BC00043F60801C2F20000C4F20201006809688D
:101BD00046F64802C1F34231C0F60002515CC840EB
:101BE0007047000010B543F60404C4F202046068B4
:101BF00000F00C0008280BD0042819BF42F2004066
:101C0000C0F2F40041F60030C0F2B70010BD00BFD2
:101C1000206821682368490241F60031C0F2B7010B
:101C200000F03F02C3F388105CBF42F20041C0F2F3
:101C3000F401A1FB00010023FEF7C6FA216802228D
:101C4000C1F3014102EB4101B0FBF1F010BD000016
:101C5000002804BF012070472DE9F04182B00446FE
:101C6000007843F60006C007C4F202060CD0B06844
:101C700000F00C00042840F081803068800303D518
:101C80006068002800F06881207880071BD5B06864
:101C900010F00C0F09D0B06800F00C00082840F0DC
:101CA00087807068400200F183803068800703D528
:101CB000E068012840F050813068216920F0F80088
:101CC00040EAC10030602078000713D42078400734
:101CD0002AD4A569002D00F03A81B06800F00C000C
:101CE000082840F0A580012D40F00E81012002B0AF
:101CF000BDE8F0816069002800F082800020C4F215
:101D000047200121C0F8801EFFF7CEFD054600BF29
:101D1000706F8007DAD4FFF7C7FD401B0228F7D9A0
:101D2000032002B0BDE8F081306C5FEAC0080AD43D
:101D300000200190306C40F080503064306C00F036
:101D400080500190019847F20007C4F200073868FC
:101D5000C00547D4386840F480703860FFF7A4FDB0
:101D6000054600BF3868C0053CD4FFF79DFD401B09
:101D70000228F7D9032002B0BDE8F081B06800F076
:101D80000C00082803D1706840023FF576AF616807
:101D90003068B1F5803F07D0B1F5A02F40F09A80B0
:101DA00040F480203060306840F4803030609AE049
:101DB000E068002840F20000C4F247205CD0012116
:101DC0000160FFF771FD0546306880073FF574AF8D
:101DD000FFF76AFD401B0228F6D9032002B0BDE8D8
:101DE000F08100BFA168306F012905D0052955D1C8
:101DF00040F004003067306F40F00100306756E07B
:101E00000020C4F247200021C0F8801EFFF74CFDDF
:101E1000054600BF706F80077FF558AFFFF744FDA0
:101E2000401B0228F6D9032002B0BDE8F08100BFB4
:101E30000027C4F2472700203866FFF735FD022D42
:101E400005460DD13068800140F18A80FFF72CFDF6
:101E5000401B02284FF00300F4D902B0BDE8F08126
:101E60003068800173D5FFF71FFD401B02284FF03B
:101E70000300F5D9F1E700BF00210160FFF714FD71
:101E8000054600BF306880077FF51DAFFFF70CFDEA
:101E9000401B02284FF00300F4D9DEE720F00100D8
:101EA0003067306F002920F0040030677AD0FFF7E8
:101EB000FBFC054641F28837306F800700F18480D3
:101EC000FFF7F2FC401BB842F6D9032002B0BDE890
:101ED000F08100BF20F4803030603068002920F4A9
:101EE000802030607AD0FFF7DFFC05463068800341
:101EF0003FF5CAAEFFF7D8FC401B6428F6D9032093
:101F000002B0BDE8F08100BF7068E16900F48002B2
:101F10008A4221D1216A00F03F028A421CD147F651
:101F2000C071626A0140B1EB821F15D1A16A4FF600
:101F3000FF73C903994300F44032A1F580318A420E
:101F40000AD1E16A00F07060B0EB016F04D10020AB
:101F500002B0BDE8F08100BF012002B0BDE8F08111
:101F600004F11C052FCD084340EA8210D9034FF637
:101F7000FF729143A1F5803140EA0560084370602B
:101F800001203866FFF790FC044600BF30688001EE
:101F9000DDD4FFF789FC001B02284FF00300F5D9C0
:101FA0005BE700BFFFF780FC054641F2883700BFC2
:101FB000306F800708D5FFF777FC401BB8424FF021
:101FC0000300F5D949E700BFB8F1000F3FF581AE36
:101FD000306C20F0805030647BE600BFFFF764FC7B
:101FE000054600BF306880037FF54EAEFFF75CFC0E
:101FF000401B64284FF00300F4D92EE7411E002057
:10200000B0EB116F1CBF012070474EF21002CEF2F0
:10201000000251604EF62351CEF20001F0230B7006
:102020000721906011607047704700007047000002
:1020300090F83C20012A4FF0020254D010B580F8ED
:102040003D200268D2F804E0D2F808C00C682EF0F7
:102050007003234341F2FF74C4F20004A2425360B0
:102060000EDC40F2FF73C4F200039A4216DCB2F1B8
:10207000804F2BD040F20043C4F2000324E000BFA5
:1020800040F2FF33C4F201039A4213DC41F600032D
:10209000C4F200039A4219D0002313E040F6000373
:1020A000C4F200039A4211D040F60043C4F2000388
:1020B0000AE000BF44F20003C4F201039A4205D0D3
:1020C00040F20043C4F201039A4204D149682CF063
:1020D0008003194391600121002280F83D1080F8AF
:1020E0003C20BDE81040104670470000002804BFA7
:1020F0000120704710B5044690F83D0028B9002033
:1021000084F83C00204600F01FF8022084F83D00CF
:102110002068211D01F0DAFC012084F8460084F8D3
:102120003E0084F83F0084F8400084F8410084F8C1
:10213000420084F8430084F8440084F8450084F8A1
:102140003D00002010BD000080B582B0006840F660
:102150000001C4F20001884220D040F20041C4F2E4
:102160000001884229D10020019043F64000C4F2CA
:1021700002000168002241F00201016000680521AF
:1021800000F00200019001981D20FFF715FC1D20B2
:1021900002B0BDE88040FFF7FDBB00BF002000900B
:1021A00043F64000C4F20200016841F004010160FE
:1021B000006800F004000090009802B080BD0000AC
:1021C00090F83D1001291CBF01207047022180F8C2
:1021D0003D10006841F2FF72C168C4F200029042F3
:1021E00041F00101C1600DDC40F2FF71C4F2000159
:1021F000884215DCB0F1804F2AD040F20041C4F291
:10220000000123E040F2FF31C4F20101884213DCF7
:1022100041F60001C4F20001884219D0002113E008
:1022200040F60001C4F20001884211D040F600419E
:10223000C4F200010AE000BF44F20001C4F201014F
:10224000884205D040F20041C4F20101884206D123
:10225000816801F00701062904BF0020704701686A
:1022600041F00101016000207047000090F83C201F
:10227000012A4FF002026CD080B580F83D20D0F8E2
:1022800000C04FF67772DCF8083023EA0202CCF87F
:1022900008200B684F2B29DC1F2B45DD202B46D057
:1022A000302B44D0402B40F0AF80D1F804E0C96817
:1022B000DCF82030DCF8202022F00102CCF82020CD
:1022C000DCF8182022F0F00242EA011123F00A02A1
:1022D00042EA0E02CCF81810CCF82020DCF80810E6
:1022E00041F0470121F0300128E000BF6F2B33DDC2
:1022F000B3F5005F74D0B3F5805F21D0702B40F050
:102300008380D1E901E3C968DCF8082043EA0E03C1
:1023100022F47F4243EA01211143CCF80810DCF893
:10232000081041F0770109E00BB1102B6CD1DCF8FB
:10233000081021F07001194341F00701CCF8081092
:102340000022012180F83D10002180F83C10BDE8FA
:1023500080401046704700BF502B21D0602B53D1D6
:10236000D1F804E0C968DCF82030DCF8202022F045
:102370001002CCF82020DCF8182022F4704242EA47
:10238000013123F0A00242EA0E12CCF81810CCF86A
:102390002020DCF8081041F0670121F01001CDE7A2
:1023A000D1F804E0C968DCF82030DCF8202022F005
:1023B0000102CCF82020DCF8182022F0F00242EADA
:1023C000011123F00A0242EA0E02CCF81810CCF8F0
:1023D0002020DCF8081041F0570121F02001ADE782
:1023E000D1E901E3C968DCF8082043EA0E0322F4CE
:1023F0007F4243EA01211143CCF80810DCF80810B1
:1024000041F480419AE700BF01229AE7704700003B
:1024100070B504460068C5680669B10716D515F0A1
:10242000020113D06FF0020101610121217780695F
:10243000800703D02046FFF7E9FF05E0204600F0C3
:102440008FF8204600F08EF800202077700719D50D
:1024500015F0040016D020686FF00401016102211C
:102460002177806910F4407F04D02046FFF7CEFF2B
:1024700006E000BF204600F073F8204600F072F836
:1024800000202077300717D515F0080014D02068F9
:102490006FF00801016104212177C069800703D032
:1024A0002046FFF7B3FF05E0204600F059F820462C
:1024B00000F058F800202077F00619D515F010002C
:1024C00016D020686FF01001016108212177C069E2
:1024D00010F4407F04D02046FFF798FF06E000BFCD
:1024E000204600F03DF8204600F03CF80020207720
:1024F000F00718BF15F0010002D1300609D412E030
:1025000020686FF001010161204600F02DF83006CF
:1025100009D515F0800006D020686FF080010161B8
:102520002046FFF781FD700609D515F0400006D062
:1025300020686FF040010161204600F027FAB006E4
:1025400058BF70BD15F0200008D021686FF0200240
:1025500020460A61BDE87040FFF768BD70BD00000D
:10256000704700007047000040F2B851C2F200010D
:10257000884218BF70472DE9F0412DED108B86B0D1
:10258000FFF792F940F22075C2F2000540F2D8162A
:1025900000EE100A40F22007286DC2F20006C2F2D7
:1025A000000706F19804B8EE400AB863204687EDAC
:1025B0000F0A02F063F8204602F066F806F1AC0458
:1025C000204602F05BF8204602F05EF87878013091
:1025D000C1B22829787036D343F63910394621F82C
:1025E0006A0F002095ED150A01F8690CA1F14A0067
:1025F00095ED161A95ED172A80ED000AA1F1460017
:1026000095ED183A80ED001AA1F1420080ED002A04
:10261000A1F13E0080ED003A10EE100A00BA11EE72
:10262000102A12EE103A13EE104A01F1020C12BAFF
:102630001BBA24BA8CE81D0040F2D860C2F2000038
:10264000122200F0C5FF40F2C414C2F20004207A46
:102650000238B0FA80F040093870FFF725F940F6EB
:10266000F002C2F2000239781268A0EB020849BBFE
:10267000B8F5FA7F26D820889FEDBA0A01EE100A35
:10268000B8EE411A31EE001ABDEEC12A12EE100A60
:10269000002887ED0C1A48BF4042652828D39FEDDB
:1026A000B22A81EE021A97ED032A31EE021A87ED63
:1026B000031A9FEDAE2AB4EE421AF1EE10FA20DDB5
:1026C00026E000BFB8F5FA7F08D939B99FEDA40A12
:1026D0000020C7E90300386458E000BF002957D044
:1026E00095ED148AE86C87ED068AF86165E000BF15
:1026F00097ED031A9FED9D2AB4EE421AF1EE10FAFF
:1027000006DC9FED9B2AB4EE421AF1EE10FA03DAD2
:10271000B0EE421A87ED032A608887ED101A01EEA9
:10272000100AB8EE411A31EE000ABDEEC01A11EEE1
:10273000100A002887ED0D0A48BF4042652811D3D2
:102740009FED891A80EE010A97ED041A30EE010A16
:1027500087ED040ABAEE0E1AB4EE410AF1EE10FA51
:1027600009DD0FE097ED040ABAEE0E1AB4EE410A45
:10277000F1EE10FA06DC9FED7F1AB4EE410AF1EE9D
:1027800010FA03DA87ED041AB0EE410A87ED110A58
:1027900096ED020B51EC100BFDF7F2FE9FED771A50
:1027A00008EE100A9FED740AB4EE418A38EE000A72
:1027B000F1EE10FAC8BFB0EE408A96ED080B87ED37
:1027C000148A51EC100BFDF7DBFE97ED10CA9FED5C
:1027D0006BAA3CEE48EA9FED6ABA3EEE0A0A80EE2A
:1027E0000B0A09EE100A03F07BFB9FED63DA40F25F
:1027F000E07420EE0D0A30EE0E0AC2F200043CEE48
:10280000000A2046F0EE480A01F090FE40F6081556
:10281000C2F200052846F0EE490A87ED120A01F0DF
:1028200085FE9FED58CA9FED58EAB4EE4C0AF1EED2
:1028300010FAC8BFB0EE4C0AB4EE4E0AF1EE10FA30
:10284000B8BFB0EE4E0A3878BDEEC00A10EE101ACE
:10285000B98218B197ED078A11E000BF96ED140B0D
:1028600051EC100BFDF78CFE08EE100AB4EE4A8A0C
:1028700038EE0D0AF1EE10FAC8BFB0EE408A96EDC0
:102880001A0B87ED158A51EC100BFDF779FE97EDC9
:1028900011FA09EE100A7FEE488A38EE8A0A80EEB5
:1028A0000B0A03F01DFB20EE0D0A30EE280A3FEE66
:1028B000000A04F14000F0EE480A01F037FE05F18D
:1028C0004000F0EE490A87ED130A01F02FFEB4EE46
:1028D0004C0AF1EE10FAC8BFB0EE4C0AB4EE4E0A44
:1028E000F1EE10FAB8BFB0EE4E0A3978BDEEC00A6C
:1028F00010EE100AB8F5FA7FF88209D941B9002024
:10290000C6F8E00006B0BDEC108BBDE8F0417047A2
:10291000B98A86F8E3000A0A86F8E110010A86F807
:10292000E02086F8E21006F1DC0207CACDE90012C9
:10293000029008208DF80C000020ADF8140002F081
:102940003FFA01688A680021904701680A69694670
:10295000904706B0BDEC108BBDE8F041704700BF5A
:1029600000000000000080C4000025440000344244
:10297000000034C2000070C20000B4C30000344341
:102980000000B44300401C4600401CC670470000D5
:1029900070B582B090F84250202D0BD113460A46F4
:1029A0000146002A4FF0010018BF002B06D102B0EB
:1029B00070BD00BF022002B070BD00BF08630026DA
:1029C00022204E638A628B854E6481F842000C6837
:1029D0000D46C86B43F6915C43F6F161C0F6000CFE
:1029E000C0F60001C0E90FC143F61541C0F6000171
:1029F000C0E91316211DFEF735FEE8B31020686408
:102A00002020294685F8420001200A6B012A40F067
:102A1000B380002200920A68136800935268009203
:102A2000009A00BF0A6852E8032F0B6842F01002B8
:102A300043E80326002EBAD00A6852E8032F0B6839
:102A400042F0100243E80326002EB0D00A6852E894
:102A5000032F0B6842F0100243E80326002EA6D095
:102A60000A6852E8032F0B6842F0100243E803267D
:102A7000002ED7D19BE700BF01962868294602683F
:102A80000192406801900198286928B3086850E8CD
:102A9000030F0A6840F4807042E80303E3B108685A
:102AA00050E8030F0A6840F4807042E803039BB1CA
:102AB000086850E8030F0A6840F4807042E8030396
:102AC00053B1086850E8030F0A6840F4807042E888
:102AD0000303002BDAD100BF086850E8050F0A682D
:102AE00040F0010042E80503BBB3086850E8050F59
:102AF0000A6840F0010042E8050373B3086850E833
:102B0000050F0A6840F0010042E805032BB308688E
:102B100050E8050F0A6840F0010042E80503002B69
:102B2000DAD11AE0086850E8050F0A6840F0400062
:102B300042E80503DBB1086850E8050F0A6840F079
:102B4000400042E8050393B1086850E8050F0A68A1
:102B500040F0400042E805034BB1086850E8050F1B
:102B60000A6840F0400042E80503002BDAD100205B
:102B70000A6B012A3FF44DAF012002B070BD000086
:102B800010B540F29062C2F2000290426AD040F268
:102B90004862C2F20002904200F0828040F2D862A5
:102BA000C2F20002904218BF10BD40F2200012296C
:102BB000C2F200004AD10178002947D090F858109D
:102BC000392943D190F8591039293FD1D0F85E20E6
:102BD0009FED3E1A12BA00EE102AD0F85A10B8EE45
:102BE000C00A9FED3B2A20EE010A9FED3A3A09BA4E
:102BF000B4EE420AC0E90112F1EE10FAC8BFB0EE1D
:102C0000420AB4EE430A02EE101AF1EE10FAB8BF0F
:102C1000B0EE430AB8EEC22A9FED2F3A22EE011A17
:102C2000B4EE431AF1EE10FAC8BFB0EE431A80EDCD
:102C3000100ABAEE0E0AB4EE401AF1EE10FA80ED68
:102C4000111ABEBF0021CCF27011416400F158018D
:102C500040F2D860C2F200001222BDE81040FFF737
:102C600097BE00BFFEF720FE40F6F001C2F2000161
:102C7000086040F6EC0040F6F404C2F200000021C7
:102C8000C2F200040170204601F08CFB40F290601B
:102C9000C2F2000021461222BDE81040FFF778BEC4
:102CA00040F28C7440F22070C2F20004C2F20000C4
:102CB000214601F00FFD40F24860C2F200002146BB
:102CC0005222BDE81040FFF763BE00BF0AD7233C85
:102CD0000000B4420000B4C200000C427047000083
:102CE000B0B582B001680A68CC684B6902F02F0564
:102CF000202D04F0200505D125B102B0BDE8B0407B
:102D000001F05EB95FEA027C1EBF03F0010E04F41D
:102D1000907313EB0E0341D1036BD50618D5012B2D
:102D200016D114F0100313D0002201920A68019208
:102D30004A680192019A496949064BD4818DC28D36
:102D4000C38D002B18BF914240F0068202B0B0BD87
:102D500013062DD514F080032AD090F84120212AA3
:102D6000F4D18268B2F5805F03D10269002A00F0D5
:102D70007982026A531C036212784A60C28C013A5B
:102D80001304C284E2D1C86820F08000C860C8681B
:102D900040F04000C86002B0B0BD00BFD30718BF0C
:102DA00014F4807340F0E280530700F1E580EAE01C
:102DB0005206CBD514F04002C8D0CA6822F04002B7
:102DC000CA60202180F8411002B0BDE8B04000F098
:102DD00069BC00BFC26B11684B68858D99B2002930
:102DE00000F0B480A94280F0B180C385D169B1F50B
:102DF000807F00F0A080016851E8031F026821F481
:102E0000807142E80313DBB1016851E8031F0268D7
:102E100021F4807142E8031393B1016851E8031F64
:102E2000026821F4807142E803134BB1016851E854
:102E3000031F026821F4807142E80313002BDAD1EA
:102E4000016851E8051F026821F0010142E80513FD
:102E5000BBB3016851E8051F026821F0010142E897
:102E6000051373B3016851E8051F026821F00101E1
:102E700042E805132BB3016851E8051F026821F0F1
:102E8000010142E80513002BDAD11AE0016851E88C
:102E9000051F026821F0400142E80513DBB101681B
:102EA00051E8051F026821F0400142E8051393B183
:102EB000016851E8051F026821F0400142E805134E
:102EC0004BB1016851E8051F026821F0400142E85A
:102ED0000513002BDAD1202180F842100021016374
:102EE000016851E8031F026821F0100142E8031352
:102EF000DBB1016851E8031F026821F0100142E8CC
:102F0000031393B1016851E8031F026821F0100117
:102F100042E803134BB1016851E8031F026821F036
:102F2000100142E80313002BDAD1C16B04460846B6
:102F3000FEF7AAF9204602214163818DC28D891ACC
:102F400089B202B0BDE8B040FFF71ABE8D427FF4EF
:102F5000FDAED269B2F5807F7FF4F8AE0222426303
:102F600002B0BDE8B040FFF70BBE00BF436C43F0BA
:102F700001034364530706D5BEF1000F03D0436C31
:102F800043F002034364930706D5BEF1000F03D05C
:102F9000436C43F004034364BCF1000F06D55EEAC2
:102FA000050303D0436C43F008034364436C002BD8
:102FB0003FF4CCAE920605D525B1044601F000F8E9
:102FC000216820464969426C01F0400102F0080284
:102FD000891800F0B98000BF016851E8031F02683A
:102FE00021F4907142E80313BBB3016851E8031F59
:102FF000026821F4907142E8031373B3016851E849
:10300000031F026821F4907142E803132BB3016897
:1030100051E8031F026821F4907142E80313002B6A
:10302000DAD11AE0016851E8051F026821F00101B8
:1030300042E80513DBB1016851E8051F026821F081
:10304000010142E8051393B1016851E8051F0268C8
:1030500021F0010142E805134BB1016851E8051F59
:10306000026821F0010142E80513002BDAD1016B5F
:10307000012924D1016851E8031F026821F01001E1
:1030800042E80313DBB1016851E8031F026821F035
:10309000100142E8031393B1016851E8031F02686D
:1030A00021F0100142E803134BB1016851E8031FFE
:1030B000026821F0100142E80313002BDAD120212D
:1030C00080F842100021016301684969490640F116
:1030D000C380016851E8051F026821F0400142E801
:1030E0000513DBB1016851E8051F026821F04001BA
:1030F00042E8051393B1016851E8051F026821F009
:10310000400142E805134BB1016851E8051F026810
:1031100021F0400142E80513002BDAD1C16B0029F0
:1031200000F09A8043F60942C0F6000204460846C1
:103130000A65FEF7F1F800283FF408AEE06B016D78
:1031400002B0BDE8B04008470446FFF7C7FD0020C5
:10315000606402B0B0BD00BF891A00BF026852E8C7
:10316000032F036822F4907243E80325BDB302687D
:1031700052E8032F036822F4907243E8032575B3E5
:10318000026852E8032F036822F4907243E8032593
:103190002DB3026852E8032F036822F4907243E8CB
:1031A0000325002DDAD11AE0026852E8052F0368E2
:1031B00022F0010243E80525DDB1026852E8052F3F
:1031C000036822F0010243E8052595B1026852E840
:1031D000052F036822F0010243E805254DB102687E
:1031E00052E8052F036822F0010243E80525002D6F
:1031F000DAD1202280F8422000220263026852E8DD
:10320000032F036822F0100243E80325DDB10268B2
:1032100052E8032F036822F0100243E8032595B11A
:10322000026852E8032F036822F0100243E80325E6
:103230004DB1026852E8032F036822F0100243E800
:103240000325002DDAD1022289B2426302B0BDE823
:10325000B040FFF795BC00BF02B0BDE8B040FFF73B
:103260003DBD00BF026A32F8023B6FF35F234B6043
:10327000026283E5002804BF0120704710B50446B0
:1032800090F8410028B9002084F84000204600F062
:1032900021F8242084F841002068C16821F40051FD
:1032A000C160204600F00CFF2068016921F49041C4
:1032B0000161416921F02A014161C16841F4005175
:1032C000C16000202021606484F8411084F842101D
:1032D000606310BD2DE9F04F87B00446006844F6E6
:1032E0000001C4F2000100268842CDE90566CDE95F
:1032F0000366029600F0F68041F20041C4F201013B
:10330000884200F0878041F20001C4F20101884246
:1033100040F05781002743F630000197C4F20200C5
:103320004169002541F0100141614169C4F2020583
:1033300001F01001019101990197016802AE41F07D
:1033400002010160016846F2280801F002010191C2
:103350000199019701684FF0020941F001010160F4
:1033600000684FF0030A00F00100019001988020EE
:1033700002904FF0070B05F580603146C4F2020859
:10338000CDE90397CDF814A0CDF818B0FEF7BCF93D
:103390004FF40070CDE9020904A880E8800C2846AB
:1033A0003146FEF7B1F940F2783508F58360C2F294
:1033B00000054FF000664FF4806985E8C10028469B
:1033C000C5E90379C5E90577C5E907776F62FEF7B7
:1033D00097F8002818BFFDF70BFBE563AC6340F2DC
:1033E000D83508F59260C2F200054021C5E9000613
:1033F00005F1080080E882022846C5E90577C5E99D
:1034000007776F62FEF77CF800284FF0250665D13C
:10341000CDE000BF43F630000196C4F202004169DE
:1034200046F2280841F0200141614169C4F20208D6
:1034300001F02001019101990196016841F04001DC
:103440000160006802A900F04000019001984FF46B
:10345000844002900220CDE9030603200590082055
:1034600006900020C4F2020000F5C050FEF74CF9AF
:1034700040F2F84508F58060C2F200054FF0206781
:103480004FF48069C5E900072846C5E90266C5E929
:103490000496C5E90666C5E90866FEF731F8002816
:1034A00018BFFDF7A5FAE563AC6340F2585508F57F
:1034B0008F60C2F200054021C5E9000705F1080050
:1034C00080E842022846C5E90566C5E907666E62DE
:1034D000FEF716F800284FF0470668D0FDF788FA87
:1034E00065E000BF43F630000196C4F202000169B6
:1034F00046F2280841F4802101610169C4F2020802
:1035000001F48021019101990196016841F00401C3
:103510000160006802A900F00400019001984FF4D6
:10352000406002900220CDE90306032005900720A9
:1035300006900020C4F2020000F50060FEF7E4F8F7
:1035400040F23845C2F200054FF000674FF4806941
:103550002846C5E90087C5E90266C5E90496C5E9BC
:103560000666C5E90866FDF7CBFF002818BFFDF722
:103570003FFAE563AC6340F2984508F13000C2F2CF
:1035800000054021C5E9000705F10800002280E898
:1035900006022846C5E90522C5E907226A62FDF749
:1035A000AFFF00284FF0270618BFFDF721FA30467D
:1035B00005210022A563AC63FEF7FEF93046FEF755
:1035C000E9F907B0BDE8F08F7047000070470000D0
:1035D000B0B590F84140202C1CBF0220B0BD13466E
:1035E000024600294FF0010018BF002B00D1B0BDEA
:1035F0004FF0000C212011629384D384C2F844C0A0
:1036000082F8410014681546906B43F6097E43F634
:10361000B972C0F6000EC0F60002C0E90FE243F630
:103620001542C0F60002C0E9132C221DFEF71AF85D
:1036300030B110206864202085F841000120B0BD21
:10364000286829466FF04002026000BF086850E811
:10365000050F0A6840F0800042E8050303B30868DC
:1036600050E8050F0A6840F0800042E80503BBB14E
:10367000086850E8050F0A6840F0800042E805033A
:1036800073B1086850E8050F0A6840F0800042E80E
:103690000503002B4FF0000008BFB0BDD6E700BF08
:1036A0000020B0BD7047000070470000FEE700003A
:1036B00080B540F2283046F20041C2F20000C4F268
:1036C00000010322002380E80E0000F10C014FF4FA
:1036D000002C4FF4401E81E8085083618383FDF77E
:1036E00051FC002808BF80BDBDE88040FDF780B9CF
:1036F00080B540F2503046F60001C2F20000C4F23C
:1037000000010023102280E80E00C0E90333C0E965
:1037100005338383FDF736FC002808BF80BDBDE874
:103720008040FDF765B9000080B582B0002043F607
:1037300030010190C4F202010A6842F400120A60EA
:103740000A6802F400120192019A009008680022AF
:1037500040F4800008600868052100F480000090B3
:1037600000980C20FEF728F90C20FEF713F90E2024
:1037700005210022FEF720F90E20FEF70BF9392073
:1037800005210022FEF718F93920FEF703F93A2047
:1037900005210022FEF710F93A20FEF7FBF845203C
:1037A00005210022FEF708F94520FEF7F3F8462030
:1037B00005210022FEF700F9462002B0BDE8804056
:1037C000FEF7E8B881B0002143F630000091C4F262
:1037D0000200026842F002020260026802F0020285
:1037E0000092009A0091026842F040020260026872
:1037F00002F040020092009A0091026842F0010239
:103800000260026802F001020092009A00910268D0
:1038100042F008020260026802F008020092009A78
:103820000091026842F004020260026802F00402A1
:103830000092009A0091016841F0800101600068E7
:1038400000F080000090009801B0704780B586B00D
:1038500040F2B85040F200420021C2F20000C4F22F
:10386000000242F2CF034FF0090C0591CDE903119C
:10387000CDE90011C0E90023C0E9021C01618161AA
:10388000FEF734FC002818BFFDF7B2F84FF4805063
:10389000029040F2B850C2F2000002A9FEF7E6FC26
:1038A000002818BFFDF7A4F840F2B850C2F200009B
:1038B0006946FEF7BDFB002818BFFDF799F806B072
:1038C00080BD000080B586B040F2006040F6000286
:1038D0000021C2F20000C4F200024FF6FF7305910E
:1038E000CDE90311CDE90011C0E90021C0E90213BF
:1038F00001618161FEF7FAFB002818BFFDF778F837
:103900004FF48050029040F20060C2F2000002A921
:10391000FEF7ACFC002818BFFDF76AF840F2006023
:10392000C2F200006946FEF783FB002818BFFDF7CE
:103930005FF806B080BD000080B540F2486041F2FB
:103940000001C2F20000C4F2010100234FF00C0C90
:103950004FF4E13280E80E00C0E90333C0E905C34B
:10396000C361FFF787FC002808BF80BDBDE8804029
:10397000FDF73EB810B540F2906044F6000C48F2F6
:10398000A062C2F20000C4F2000CC0F201024FF4C7
:10399000805300214FF4806E0C24C0E900C2C0E9BE
:1039A0000231C0E904E4C0E90611FFF763FC002816
:1039B00008BF10BDBDE81040FDF71AB880B540F251
:1039C000D86041F20041C2F20000C4F201010023BC
:1039D0004FF00C0C4FF4E13280E80E00C0E90333E5
:1039E000C0E905C3C361FFF745FC002808BF80BDDF
:1039F000BDE88040FCF7FCBFFEE70000FEE70000EA
:103A0000EFF30980BFF36F8F154B1A681EF0100F8C
:103A100008BF20ED108A20E9F04F10602DE9090061
:103A20004FF0500080F31188BFF34F8FBFF36F8FBB
:103A300001F0A2FF4FF0000080F31188BDE80900FB
:103A400019680868B0E8F04F1EF0100F08BFB0EC1E
:103A5000108A80F30988BFF36F8F704700BF00BFE3
:103A6000F400002000000000000000000000000042
:103A7000074B19680868B0E8F04F80F30988BFF376
:103A80006F8F4FF0000080F31188704700BF00BFB8
:103A9000F400002080B5FDF70DFF02F081F8012849
:103AA00008BF80BDBDE8804002F062B84EF6885085
:103AB000CEF20000016841F470010160704700001F
:103AC00040F2B850C2F20000FEF7A2BCB0B540F61A
:103AD000FF3E0568C4F2000E40F2004C7045C4F28F
:103AE000010C25DCB0F1804F2FD040F20043C4F22E
:103AF0000003984229D040F60003C4F20003984224
:103B000023D041F6FF73C4F20003984228DC7045CD
:103B10003ADCB0F1804F5BD040F20043C4F20003C6
:103B2000984255D040F60003C4F200034EE000BFB7
:103B300040F60043C4F20003984206D0604504D02A
:103B40000023C4F201039842DBD14B6825F07002D8
:103B500043EA020541F6FF73C4F200039842D6DD42
:103B600043F6FF73C4F2010398421FDC42F20003E4
:103B7000C4F2000398422BD00023C4F20103984200
:103B800026D0604524D028E040F60043C4F200036C
:103B900098421DD041F60003C4F20003984217D0AA
:103BA00041F60043C4F2000310E000BF44F20003FA
:103BB000C4F2010398420BD044F60003C4F201039F
:103BC000984205D044F20043C4F20103984204D164
:103BD000CB6825F4407243EA02050A688C684B6999
:103BE000C46240F480648262644504BF0969016371
:103BF000026825F0800142F00402194302600122AC
:103C000042610160B0BD0000806B0021C185FFF7FB
:103C100065B80000806B01684A6990F84130212B3B
:103C20002DD112F080022AD00021C184016851E810
:103C3000031F026821F0C00142E80313DBB10168F1
:103C400051E8031F026821F0C00142E8031393B159
:103C5000016851E8031F026821F0C00142E8031324
:103C60004BB1016851E8031F026821F0C00142E82E
:103C70000313002BDAD1202180F841100168496933
:103C800090F84220222A40F07D8011F0400179D046
:103C90000021C185016851E8031F026821F4907179
:103CA00042E80313BBB3016851E8031F026821F423
:103CB000907142E8031373B3016851E8031F02686F
:103CC00021F4907142E803132BB3016851E8031FFC
:103CD000026821F4907142E80313002BDAD11AE054
:103CE000016851E8051F026821F0010142E805134F
:103CF000DBB1016851E8051F026821F0010142E8CB
:103D0000051393B1016851E8051F026821F0010114
:103D100042E805134BB1016851E8051F026821F024
:103D2000010142E80513002BDAD1016B012924D1EE
:103D3000016851E8031F026821F0100142E80313F3
:103D4000DBB1016851E8031F026821F0100142E86D
:103D5000031393B1016851E8031F026821F01001B9
:103D600042E803134BB1016851E8031F026821F0D8
:103D7000100142E80313002BDAD1202180F8421011
:103D800000210163416C41F010014164FEF7A6BFC0
:103D90000168806B0968C90500F19F800021C18519
:103DA000016851E8031F026821F4807142E803139F
:103DB000E3B1016851E8031F026821F4807142E811
:103DC00003139BB1016851E8031F026821F480715D
:103DD00042E8031353B1016851E8031F026821F45C
:103DE000807142E80313002BDAD100BF016851E86B
:103DF000051F026821F0010142E80513BBB3016809
:103E000051E8051F026821F0010142E8051373B370
:103E1000016851E8051F026821F0010142E805131D
:103E20002BB3016851E8051F026821F0010142E847
:103E30000513002BDAD11AE0016851E8051F02686A
:103E400021F0400142E80513DBB1016851E8051F8C
:103E5000026821F0400142E8051393B1016851E87E
:103E6000051F026821F0400142E805134BB10168CB
:103E700051E8051F026821F0400142E80513002BBC
:103E8000DAD1202180F84210016B012925D100BF31
:103E9000016851E8031F026821F0100142E8031392
:103EA000DBB1016851E8031F026821F0100142E80C
:103EB000031393B1016851E8031F026821F0100158
:103EC00042E803134BB1016851E8031F026821F077
:103ED000100142E80313002BDAD100214163016B8A
:103EE000012918BFFFF770BB818DFEF749BE0000A6
:103EF000806B01214163016B012918BFFFF766BB8D
:103F0000818D4908FEF73CBE0168806B0968C905D0
:103F100048BFFFF7C7BB0021C18400BF016851E85B
:103F2000051F026821F0800142E8051383B3016890
:103F300051E8051F026821F0800142E805133BB3F8
:103F4000016851E8051F026821F0800142E805136D
:103F5000F3B1016851E8051F026821F0800142E8D1
:103F60000513002BDAD113E0016851E8031F026842
:103F700041F0400142E80313002B08BF704701687D
:103F800051E8031F026841F0400142E8031393B176
:103F9000016851E8031F026841F0400142E8031341
:103FA0004BB1016851E8031F026841F0400142E84B
:103FB0000313002BD8D17047806BFFF775BB00004F
:103FC00081B090F84210222921D183680246B3F5CE
:103FD000805F09D152F8281F52F8183C002B63D09B
:103FE00003685B680AE000BF52F8281F13B9036931
:103FF000002BF5D003685B6803F07F030B7011683A
:1040000001311160C18D01390A04C18502D001B0AE
:10401000704700BF0168CA6822F02002CA60CA68FF
:1040200022F48072CA604A6922F001024A612021AA
:1040300080F8421000214163026B012A3CD10163E8
:10404000016851E8031F026821F0100142E80313E0
:10405000DBB1016851E8031F026821F0100142E85A
:10406000031393B1016851E8031F026821F01001A6
:1040700042E803134BB1016851E8031F026821F0C5
:10408000100142E80313002BDAD101680A68D20656
:1040900006D5002200920A680092496800910099B2
:1040A000818D01B0FEF76CBD026852686FF35F222C
:1040B00021F8022B8162A5E701B0FFF785BA000065
:1040C000B0B50446006804F108030ECB0569194336
:1040D00025F440552A4302616269E3691143C268CD
:1040E000194349F20C639A431143C1604169A269C3
:1040F00021F4407141F20043114340F48062C4F264
:1041000001039A42416103D1FDF758FD02E000BF6F
:10411000FDF740FDE1694FF69C7563681922C0F612
:10412000FF75B1F5004FA0FB02011FD15A00DB0F54
:10413000FCF74AF848F21F51C5F2EB11A0FB01232E
:104140005A0905F1805302FB0300322303EBC00040
:10415000A0FB01014FF4F87000EA111000EB02100F
:10416000C1F34211084421688860B0BD9A009B0FDA
:10417000FCF72AF848F21F51C5F2EB11A0FB01230E
:104180005A0902FB0500322303EB0010A0FB0101DA
:10419000F02000EA511000EB0210C1F34311084473
:1041A00021688860B0BD000040F24860C2F20000A3
:1041B000FEF796BD40F29060C2F20000FEF790BD9F
:1041C00040F2D860C2F20000FEF78ABDFEE70000B0
:1041D00070B52DED0A8B40F2D81246F26663C2F23A
:1041E00000020020C3F6E6734FF401710026C2E915
:1041F00041300023A2F8C2100021C4F20806C4F224
:10420000C003C3F6F071C2F814614EF6D536C2E9A8
:10421000460302F59473C2F8FC10CFF27B3643C319
:10422000C2E9520140F201210025A2F8D81040F263
:10423000FF11C4F2D005C2F8DC1046F66001C2E9F5
:1042400043504CF6E965C0F600014FF06634C3F602
:10425000BA750831C2F8004148F20004C2F834517E
:104260000025116040F220714FF0640E4FF0010CF8
:10427000C3F6A674C3F62875C2F2000182F8C00026
:10428000C2E927E0C2E9290CC2E92CE0C2E92E0C00
:10429000C2F8F800C2E94804C2E95005C1E902E0E9
:1042A000C1E9040C088581F82A0046F65000C0F6E2
:1042B000000008304CF6CC4308600620C3F620739B
:1042C0004FF0CC34C86201F130003C21C2E94E43CA
:1042D000FBF7C4FF9FED2A8A9FED2A9A9FED2AAA39
:1042E0009FED2ABA40F2E070DFED240AC2F200002E
:1042F000B3EE0E0AB0EE481AF0EE491AB0EE4A2AB2
:10430000F0EE4B2A00F0ACF99FED22CA9FED200A97
:104310004030F0EE4C0AB0EE481AF0EE491AB0EE1A
:104320004A2AF0EE4B2A00F09BF99FED1CAA9FED64
:104330001CBA40F60810DFED180AC2F20000B1EE18
:104340000C0AB0EE481AF0EE4A1AB0EE492AF0EE26
:104350004B2A00F085F94030B3EE040AF0EE4C0A27
:10436000B0EE481AF0EE4A1AB0EE492AF0EE4B2AA7
:10437000BDEC0A8BBDE8704000F072B98FC2F53C0D
:104380000000000000409C4500007A440000C84244
:10439000000020428FC2753C6F12833C00401C46D7
:1043A0000000FA43002808BF7047027841788378FC
:1043B00061F30A2240F2C411C2F200010A8042787D
:1043C00090F804C0D20863F34A124A80C278837816
:1043D000920042EA93126CF38A228A80027943792E
:1043E000520863F3CA12CA80427992090A7242796A
:1043F000C2F301124A72C2884A8102898A814289C3
:10440000CA81027B0A74427B4A74807B488270476F
:1044100070B592B006AC20463021FBF71FFF002597
:1044200043F640000595CDE90355CDE901550095CA
:10443000C4F202000168022641F080510160006868
:1044400000F080500090009847F200000095C4F200
:104450000000016841F480410160006800F4804080
:1044600000900098012006904FF4803007904FF4A0
:1044700080000D9006200E90A820CDE90F060420A4
:10448000119020460C96FDF7E3FB98B90F20CDE97B
:1044900001064FF4A05004904FF48050059001A8FD
:1044A00005210395FDF7C4FA002804BF12B070BDC2
:1044B00072B600BF72B6000010B50446012898BF5E
:1044C000012400BF204601F043FD002818BF10BDA5
:1044D00000F0A2FE08B18047F4E7002010BD000004
:1044E000F0B581B00C460546012898BF0125042986
:1044F00098BF04240027684621462A460097FCF707
:104500008CF8009878B96E4600F086FE50B180476E
:10451000304621462A460097FCF77FF8009800288D
:10452000F2D000E0002001B0F0BD000000F12C014D
:1045300090ED0F3A30EE601A81EC030A90ED000A1C
:1045400090ED062AB5EE403A21EE000AF1EE10FA9F
:1045500080ED030A06D0B0EEC14AB4EE434AF1EE54
:1045600010FA1CDA90ED0E3A31EE022AB5EE403A1E
:10457000F1EE10FA80ED062A11DDB1EE434AB4EEF9
:10458000423AF1EE10FAB4EE442AB8BFB0EE432A34
:10459000F1EE10FAB8BFB0EE442A80ED062A90ED95
:1045A000013A90ED075A90ED024A23EE023A31EEBD
:1045B000455A90ED096A24EE054A30EE030A80ED73
:1045C000043A30EE040A90ED0A3A2021B4EE406A33
:1045D00080ED080AF1EE10FAB8BF2421B4EE430AC8
:1045E000F1EE10FAB8BF2821014491ED000A80EDE8
:1045F000054AB4EE460AF1EE10FA80ED080A04DB33
:10460000B5EE401AF1EE10FA09DCB4EE430AF1EE11
:1046100010FA21DCB5EE401AF1EE10FA1CDA90ED3A
:104620000E3A32EE412AB5EE403AF1EE10FA80ED44
:10463000062A11DDB1EE434AB4EE423AF1EE10FA29
:10464000B4EE442AB8BFB0EE432AF1EE10FAB8BF78
:10465000B0EE442A80ED062A80ED071A704700006C
:10466000B1EE613AC0ED091A80ED0A3A80ED0E2AEA
:10467000C0ED0F2A80EC030A7047000010B5044615
:10468000FDF712F9A06010BDC268CAB180B5D0E9CB
:1046900001E15342D0F810C0914238BFD3431944CE
:1046A00071450160BDE8804006D2BCF1010F18BF22
:1046B0007047002101617047BCF1000F00D07047C6
:1046C000012101617047000010B50446FDF7ECF8C8
:1046D000E06010BDB0B5044604300D46FFF7F4FFAE
:1046E000002002E004304C2876D0295C5A2905EBE2
:1046F000000105D14A78A52A02D14A884C2A22D045
:104700004A785A2A06D18A78A52A03D1B1F803201B
:104710004C2A15D08A785A2A05D1CA78A52A02D1FE
:104720008A884C2A0ED0CA785A2ADBD10A79A52A5F
:10473000D8D1B1F805104C29D4D1033003E000BF23
:10474000013000E002302A5C29182277487882F094
:104750005A0260770B7980F0A50084F820304B79FD
:10476000104384F821308B78C0B2A377B0FA80F080
:10477000CB78400984F828002046E37700F032F82F
:1047800094F8280094F82910002818BF0120002967
:1047900018BF01210840012884F82A0018BFB0BDC5
:1047A000E06A2844C1682163016961634169A163CA
:1047B0008169E163C1692164016A6164016BA1647B
:1047C000416BE164816B2165C16B6165016CA16521
:1047D000416CE165806C2066B0BD00006C2100F08A
:1047E0005FBD00002DE9F04190F81EC090F81FE079
:1047F00000234CEA0E28A0F82280C38491F90040DF
:1048000041F221036502002C48BF83EA44252CB203
:104810006E00002C48BF83EA450634B27500002CB8
:1048200048BF83EA46052CB26E00002C48BF83EADD
:10483000450634B27500002C48BF83EA46052CB209
:104840006E00002C48BF83EA450634B27500002C88
:1048500048BF83EA46052CB26E00002C48BF83EAAD
:1048600045064F788D7886EA072637B27200CC78F5
:10487000002F48BF83EA460216B25700002E48BFF9
:1048800083EA42073AB27E00002A48BF83EA47061D
:1048900032B27700002A48BF83EA46073AB27E0068
:1048A000002A48BF83EA470632B27700002A48BF91
:1048B00083EA46073AB27E00002A48BF83EA4706E9
:1048C00032B27700002A48BF83EA460787EA05220A
:1048D00015B25600002D48BF83EA420632B2750079
:1048E000002A48BF83EA46052AB26E00002A48BF64
:1048F00083EA450632B27500002A48BF83EA4605BE
:104900002AB26E00002A48BF83EA450632B275001B
:10491000002A48BF83EA46052AB26E00002A48BF33
:1049200083EA450632B27500002A48BF83EA46058D
:1049300085EA042214B25500002C48BF83EA4205E0
:104940002AB26C00002A48BF83EA450422B26500FF
:10495000002A48BF83EA44052AB26C00002A48BFF7
:1049600083EA450422B26500002A48BF83EA440571
:104970002AB26C00002A48BF83EA450422B26500CF
:10498000002A48BF83EA44052AB26C00002A48BFC7
:1049900083EA45045FEA0842C48400F0BD804FEA20
:1049A0000E2242EA0C0293B2012B0FFA82FC05D1CF
:1049B00000225FEACC7379D1AEE000BF2CF0010297
:1049C000C2F1000E6FF0010341F22102CD182E7AE0
:1049D0006D7A84EA062426B26700002E48BF82EA78
:1049E00044073CB27E00002C48BF82EA470634B23E
:1049F0007700002C48BF82EA46073CB27E00002CBC
:104A000048BF82EA470634B27700002C48BF82EAEA
:104A100046073CB27E00002C48BF82EA470634B20B
:104A20007700002C48BF82EA46073CB27E00002C8B
:104A300048BF82EA470686EA052425B26600002DB3
:104A400048BF82EA440634B27500002C48BF82EAAF
:104A500046052CB26E00002C48BF82EA450634B2EF
:104A60007500002C48BF82EA46052CB26E00002C6F
:104A700048BF82EA450634B27500002C48BF82EA7E
:104A800046052CB26E00002C48BF82EA450635B2BE
:104A900002337400002D0EEB030548BF82EA460482
:104AA000023593D19A1C5FEACC7335D00631895C0C
:104AB00084EA012213B2570041F22101002B48BFC2
:104AC00081EA42073AB27B00002A48BF81EA4703E5
:104AD0001AB25F00002A48BF81EA43073AB27B005E
:104AE000002A48BF81EA47031AB25F00002A48BF84
:104AF00081EA43073AB27B00002A48BF81EA4703B4
:104B00001AB25F00002A48BF81EA43073AB27C002C
:104B1000002A48BF81EA4704018CA2B28184511A5D
:104B2000B1FA81F14909C48480F82910BDE8F08107
:104B300070470000F0B581B004460D46B0F9C200E0
:104B400094F8D8102F8901448F4218D1D5E900017B
:104B500004F19806C4E9320100BA020CA4F8CA00B4
:104B600008BA000CA4F8CC0020460021A4F8C82004
:104B700000F026F83046FFF7A7FDB4F9C20094F81C
:104B8000D910084487421CBF01B0F0BDD5E900012F
:104B9000C4E9340100BA020CA4F8D20008BA000C2F
:104BA000A4F8D40020460121A4F8D02000F008F891
:104BB00004F1AC0001B0BDE8F040FFF785BD000096
:104BC0002DE9F04F81B02DED088B82B000EBC107CD
:104BD0000446B7F9C800B7F9CA50B7F9CCA00E46D9
:104BE000FBF7B0FC94ED480B02460B4694ED4AAB44
:104BF00094ED4CBB94ED4E9B51EC100BFBF7FAFB84
:104C0000814641EC180B06EBC60004EBC00B9FED90
:104C1000620B0BF10800019053EC102B48468846BC
:104C20008BED028BFBF7E6FB41EC100B28468BED7E
:104C3000040BFBF787FC05460E4651EC1B0B2A467E
:104C40003346FBF7D7FB41EC100B51EC1A0B2A460D
:104C500033468BED060BFBF7CDFB41EC100B5046BA
:104C60008BED080BFBF76EFC94ED500B05460E46E2
:104C700051EC100B2A463346FBF7BCFB41EC100B02
:104C800051EC190B2A4633468BED0A0BFBF7B2FBAE
:104C900041EC100B97F8CE008BED0C0BFBF763FC8F
:104CA0009BED101B41EC100B5AEC115B4846414642
:104CB0002A4653468BED0E0BFBF796FB9FED380B08
:104CC000064653EC102B0F46FBF721FC00BB9FED73
:104CD0003A0B2A4651EC100B5346FBF785FB024674
:104CE0000B4648464146FBF7DEFA94ED520B019C19
:104CF00053EC102B94ED109BFBF77CFB53EC192B22
:104D0000FBF7D1FA41EC100B84ED100B39E000BF3A
:104D10009FED250BDDF804B053EC102B30463946DF
:104D2000FBF7DAFBD0B99FED220B484653EC102B72
:104D30004146FBF7B8FA2A465346FBF755FB94ED7C
:104D4000520B9BED109B53EC102B5C46FBF752FB78
:104D500002460B4651EC190B0DE000BF94ED520BCF
:104D60009BED109B53EC102B304639465C46FBF70D
:104D700041FB53EC192BFBF796FA41EC100B8BED32
:104D8000100B84ED0E8B02B0BDEC088B01B0BDE8BA
:104D9000F08F00BF00BF00BF172751A246DF913F31
:104DA00000000000008066C0000000000080664037
:104DB00000000000008076C0000000000080764007
:104DC00000F010B8022909D800EB81018968002998
:104DD00008BF00F114010846704700BF00F114013C
:104DE0000846704770B540F29C06C2F20006307863
:104DF000BFF35F8FC00723D0307A08B1301D70BD7C
:104E0000F06830B1016889688847F0680168C9684E
:104E10008847306930B1016889688847306901681E
:104E2000C9688847706930B10168896888477069C6
:104E30000168C968884701203072301D70BD00BF0D
:104E400040F29C04C2F20004204600F005FC002859
:104E5000D2D0251D284600F00FF844F6117040F21C
:104E60000002C0F60000C0F600022946FBF716FA61
:104E7000204600F007FCBFE770B5044646F66C001C
:104E8000C0F6000008302060002004F1140540F254
:104E900028312071C4E902002061C2F200012846D5
:104EA0000022002300F04CF904F1340640F25031A6
:104EB000C2F2000130460E22012300F041F92046E3
:104EC000C4E9025670BD0000B0B5044646F66C0059
:104ED000C0F600000830206046F68401A06CC0F6E1
:104EE000000101F10805656320B1216DE064091A34
:104EF00000F0D6F9A06A656120B1216BE062091A61
:104F000000F0CEF920465421BDE8B04000F0C8B909
:104F1000B0B5044646F66C00C0F6000008302060CC
:104F200046F68401A06CC0F6000101F10805656336
:104F300020B1216DE064091A00F0B2F9A06A656140
:104F400020B1216BE062091A00F0AAF92046B0BD39
:104F50002DE9F047002908BFBDE8F087D0E90662D7
:104F60000446964204D246F8041BA661BDE8F087C9
:104F700004F11400D0F800A00123A6EB0A0803EB0B
:104F8000A805B5F1804F35D2A2EB0A094FF6FC70A7
:104F9000B5EB690FC7F6FF7038BF4FEA6905814569
:104FA00028BF6FF040454DB1B5F1804F24D2A80025
:104FB0000E4600F0FEFE0746314600E000274FEAAD
:104FC000A80007EB800646F8041B384651464246C7
:104FD00007EB8505FBF729F9BAF1000FC4E905765F
:104FE000E561C2D05046494600F05AF9A661BDE8D5
:104FF000F08700BF00F0F2F800F030F970B5D0E9AA
:105000000565AE4208BF70BD0C4602E00436AE42F4
:1050100006D031680029F9D020468847F6E700BF5E
:1050200070BD000080B58AB0D0E90123C0680121BD
:10503000CDE904030020CDE90000CDE90200CDE96F
:1050400006010E200891099069461046FBF73CFDC9
:105050000AB080BDB0B588B0054640680C46FBF785
:105060004DFE00284FF000001DD0217B227D637D86
:10507000069191000491590005912169A36801915D
:105080000021002A0CBF19461A46CDE902126A68AF
:105090008DF81C0002A901AB10462246FBF7C2FCAA
:1050A000B0FA80F0400908B0B0BD000010B5044669
:1050B0004068FCF7ADF8E06840B1012818BF10BDAA
:1050C00010216068BDE81040FBF794BC02216068C5
:1050D000BDE81040FBF78EBC70B588B00446E268AE
:1050E00040680D461146FBF761FD38B16068E16824
:1050F00001AE32462B46FBF769FD18B1002008B01F
:1051000070BD00BFDDE903010028A0F10400B0FA82
:1051100080F04FEA501018BF043632682875881E98
:10512000059BB0FA80F040092168AA602B7368756E
:105130000A6A204629469047012008B070BD000049
:1051400080B546F6840CC0F6000C0CF1080C4FF04C
:10515000000EC0E900C100F1080181E80C40C0E97F
:1051600005EEC0F81CE080BD46F684014269C0F639
:1051700000010831016052B110B5C1698261891A1C
:105180000446104600F08CF82046BDE8104020216F
:1051900000F086B846F684014269C0F60001083185
:1051A000002A016008BF704710B5C1698261891A81
:1051B0000446104600F074F82046BDE810407047E1
:1051C000022984BF0020704700EB8100806800281E
:1051D00018BF0120704700004068704701A000F030
:1051E00005F800BF766563746F720000014646F6ED
:1051F000B800C0F6000000F000F884B0844601A8B2
:105200000EC040F2000001AAC2F200006146009206
:1052100000F0E2FDAFF3008040F2C010C2F20000E7
:105220000068704701A0FFF7E8FF00BF6261645F9C
:10523000616C6C6F6320776173207468726F776E36
:1052400020696E202D666E6F2D65786365707469B8
:105250006F6E73206D6F64650000000001A0FFF7A2
:10526000CCFF00BF6261645F61727261795F6E65DD
:10527000775F6C656E6774682077617320746872FD
:105280006F776E20696E202D666E6F2D6578636571
:105290007074696F6E73206D6F64650000F0F8BD07
:1052A000FFF7FCBFAFF30080FCF712FBFFF7B0F88D
:1052B000FEF788FAFEF738FAFEF7FAF9FEF7C6FAB3
:1052C000FEF700FBFEF738FBFEF754FBFEF776FB1C
:1052D000FEF70EFAFFF774FD40F2B850C2F200007C
:1052E000FCF76EFF40F2906040F6F401C2F200005D
:1052F000C2F200011222FDF74BFB40F2486040F27F
:105300008C71C2F20000C2F200015222FDF740FB94
:1053100040F22000C2F2000000F1580140F2D860D3
:10532000C2F200001222FDF733FBFCF7BDFA40F693
:10533000F001C2F20001086040F6EC00C2F2000089
:105340000021017000F000F880B500F0A7FA0020FD
:1053500080BD00002DE9F041044600F0DFF940F285
:10536000F406C2F20006306940F660050130306193
:105370003068C2F2000548B17069002840D1306839
:10538000E16AC06A884298BF346039E034603069AD
:10539000012835D1284600F099F905F1140000F0F4
:1053A00095F905F1280000F091F905F13C0000F0B5
:1053B0008DF905F1500000F089F905F1640000F065
:1053C00085F905F1780000F081F940F29418C2F2F5
:1053D0000008404600F07AF908F11407384600F05A
:1053E00075F906F1640000F071F906F13C0000F077
:1053F0006DF906F1500000F069F9C6F83080776366
:105400007068B16801220131B160E16A8A401043DD
:10541000706001EB810005EB8000211D00F066F952
:1054200000F0A0F9706988B13068E16AC06A88420A
:1054300028BFBDE8F0814EF60450CEF200004FF0D8
:1054400080510160BFF34F8FBFF36F8FBDE8F081D4
:1054500040F2F40540F660064EF60458C2F200052C
:10546000C2F20006CEF200084FF0805703E000BF02
:10547000204600F08FF9E868D0B100F04FF9A86C31
:10548000C468201D00F002F9286901382861E86825
:105490000138E86000F066F994F851000228EAD07B
:1054A0000128E5D070B9206B00F074F9E0E700BF87
:1054B00030680228DFD3C8F80070BFF34F8FBFF306
:1054C0006F8FD8E74FF0500080F31188BFF36F8FD4
:1054D000BFF34F8FFEE700002DE9F047DDE90987B4
:1054E0008246386B089C00EB8200043899460029FC
:1054F00020F0070644D0087887F83400D8B34878FD
:1055000087F83500B8B3887887F8360098B3C8783C
:1055100087F8370078B3087987F8380058B34879A6
:1055200087F8390038B3887987F83A0018B3C87912
:1055300087F83B00F8B1087A87F83C00D8B1487A80
:1055400087F83D00B8B1887A87F83E0098B1C87AEC
:1055500087F83F0078B1087B87F8400058B1487B56
:1055600087F8410038B1887B87F8420000281CBFCB
:10557000C87B87F84300002087F8430003E000BFA2
:10558000002087F834000025381D062C28BF06248B
:10559000FC62C7E9114500F0A5F807F1180000F01A
:1055A000A1F884F00700B861304651464A463F6191
:1055B0007F62FD6487F8505000F03CF8B8F1000FAE
:1055C000386018BFC8F80070BDE8F0870848006868
:1055D000006880F308884FF0000080F3148862B6FA
:1055E00061B6BFF34F8FBFF36F8F00DF00BF0000C6
:1055F00008ED00E081B00020009040F21C00C2F2F3
:10560000000000684FF0500181F31188BFF36F8FE5
:10561000BFF34F8F013007D0FEE700BF009830B9CD
:10562000009820B9009810B900980028F6D001B071
:1056300070470000034645F2F55021F00101C0F625
:1056400000004FF0807C03E903106FF00201A3F12A
:10565000440043E909127047017809B100207047FE
:105660004178012903D08A0705D402224270481EDE
:1056700018BF0120704780B546F6FA00C0F600005A
:10568000FFF710FE01210170417070470169D0E9F8
:105690000132D1F804C09A608445536008BF4A6063
:1056A000002202610868013808600868704700003D
:1056B00040F68C33C2F20003036040F68C10C2F255
:1056C0000000086080201060704700004FF0FF313C
:1056D000024642F8081F00214260C0E9032201602F
:1056E000704700000021016170470000D0F800C041
:1056F000436808619A68C1E90132516099600CF110
:105700000101016070470000DFF80C00016841F4FE
:10571000700101607047000088ED00E04FF050001C
:1057200080F31188BFF36F8FBFF34F8F40F21C00DF
:10573000C2F2000001684A1C026009B1704700BF54
:105740004EF60450CEF200000068000608BF704715
:105750004FF0500080F31188BFF36F8FBFF34F8F6E
:10576000FEE7000040F21C00C2F20000016839B1FF
:105770000139016018BF7047002080F3118870471D
:105780004FF0500080F31188BFF36F8FBFF34F8F3E
:10579000FEE7000070B5002808BF70BD40F26C1431
:1057A000C2F20004217850F8042C002918BF4FF0F1
:1057B000004111420ED0A0F108052B68A3B14FF0B3
:1057C000500080F31188BFF36F8FBFF34F8F00BF7E
:1057D000FEE700BF4FF0500080F31188BFF36F8FDA
:1057E000BFF34F8FFEE700BF22EA010140F8041C1F
:1057F000064600F0B9F856F8041CA0680844A060FA
:1058000004F118000368AB420AD21868A84225D2F6
:105810000368AB4204D218681A46A842F2D301E0EA
:10582000024618465368D618AE4202D119441546AE
:1058300051606B18834206D16368984203D0D0E967
:10584000000319446960AA42286018BF15606069A6
:1058500001306061BDE8704000F036BA1A46536806
:10586000D618AE42E5D1E1E74EF21000CEF20000CC
:1058700000210160816040F21801C2F20001096854
:1058800044F6D352C1F26202A1FB02124FF0FF3183
:1058900001EB92114160072101607047B0B588B0FB
:1058A0000020CDE9050006A805A904AAFFF700FF1E
:1058B0000598B8B3069C002C3ED05421049A079159
:1058C0000799542942D107992063022084F8510096
:1058D00007A80025CDE9005045F25140C0F6000070
:1058E0001FA100230294FFF7F7FD2046FFF732FDCA
:1058F000079940F2F400C2F20000C16179B14FF0A3
:10590000500181F31188BFF36F8FBFF34F8F4FF0BA
:10591000FF31016201214161456200F065F808B084
:10592000B0BD00BF4FF0500080F31188BFF36F8F00
:10593000BFF34F8FFEE700BF4FF0500080F3118898
:10594000BFF36F8FBFF34F8FFEE700BF4FF05000E4
:1059500080F31188BFF36F8FBFF34F8FFEE700BF57
:1059600049444C450000000040F2F400C2F200003F
:10597000816901318161704740F2F400C2F2000098
:10598000816900291EBF0121816270470021816267
:105990004168B1FA81F1C9B2C1F11F0140F660025C
:1059A00001EB8101C2F2000252F8213063B102EB37
:1059B0008102516802F108034968994251600DD093
:1059C000C9680160704700BF4FF0500080F3118834
:1059D000BFF36F8FBFF34F8FFEE700BF4968516081
:1059E000C968016070470000B0B584B04EF2004C49
:1059F000CEF2000C4CF27021C4F20F11DCF8002939
:105A00004B1C9A420AD14FF0500080F31188BFF32B
:105A10006F8FBFF34F8F00BFFEE700BFDCF8002998
:105A20008A4209D14FF0500080F31188BFF36F8F85
:105A3000BFF34F8FFEE700BF9CF800100291FF21DB
:105A40008CF800109CF800108DF807109DF80710D6
:105A500001F0500240F28C11C2F200010A700722DC
:105A60004A609DF90720B2F1FF3F6BDC032200BFC3
:105A7000D31C4B609DF8070040008DF807009DF98E
:105A80000700B0F1FF3F24DC931C4B609DF807003A
:105A900040008DF807009DF90700B0F1FF3F18DCCA
:105AA000531C4B609DF8070040008DF807009DF9DE
:105AB0000700B0F1FF3F0CDC4A609DF80700043A94
:105AC00040008DF807009DF90700B0F1FF3FCFDDE2
:105AD000131D032B36D14FF44070486002988CF8A8
