:020000040800F2
:100000007822002075020008392800080F1E000819
:100010003D27000803070008C32E00080000000069
:10002000000000000000000000000000DD010008EA
:100030009107000800000000210200087D2B000845
:100040008F0200088F0200088F0200088F0200084C
:100050008F0200088F0200088F0200088F0200083C
:100060008F0200088F0200088F0200088F0200082C
:100070008F0200088F0200088F0200088F0200081C
:100080008F0200088F0200088F0200088F0200080C
:100090008F0200088F0200088F0200088F020008FC
:1000A0008F0200088F0200088F0200088F020008EC
:1000B0008F0200088F0200088F0200088F020008DC
:1000C0008F0200088F0200088F0200088F020008CC
:1000D0008F0200088F0200088F0200088F020008BC
:1000E0008F0200088F0200088F0200088F020008AC
:1000F0008F0200088F0200088F0200088F0200089C
:100100008F0200088F0200088F0200088F0200088B
:100110008F0200088F0200088F020008F92B0008E8
:100120008F0200088F0200088F0200088F0200086B
:1001300000F002F800F042F80AA090E8000C8244B7
:100140008344AAF10107DA4501D100F037F8AFF294
:10015000090EBAE80F0013F0010F18BFFB1A43F0A5
:10016000010318471449000034490000103A24BF25
:1001700078C878C1FAD8520724BF30C830C144BF0C
:1001800004680C607047000000230024002500264E
:10019000103A28BF78C1FBD8520728BF30C148BFEA
:1001A0000B607047642900F09980752900F09680F3
:1001B000002070471FB51FBD10B510BD00F067FAD5
:1001C0001146FFF7F7FF02F0CAFE00F085FA03B40C
:1001D000FFF7F2FF03BC00F08DFA0000224B196814
:1001E0000868B0E8F00F80F30988BFF36F8F4FF015
:1001F000000080F311884EF00D0E704700000000E3
:1002000006480068006880F3088862B661B6BFF3EC
:100210004F8FBFF36F8F00DF00BF00BF08ED00E01E
:10022000EFF30980BFF36F8F0F4B1A6820E9F00FCF
:10023000106008B54FF0500080F31188BFF34F8F66
:10024000BFF36F8F03F034FE4FF0000080F311888E
:10025000BDE8084019680868B0E8F00F80F3098825
:10026000BFF36F8F704700BF4C000020EFF3058095
:10027000704700000948804709480047FEE7FEE74D
:10028000FEE7FEE7FEE7FEE7FEE7FEE7FEE7FEE746
:1002900004480549054A064B70470000F52B000845
:1002A00031010008781C002078220020781E0020F0
:1002B000781E00200FB41CB5074B06AA7B44694684
:1002C0000090059800F0A9F90020694600F0B8F9FF
:1002D0001CBC5DF814FB0000810300002DE9F04117
:1002E0000646002410687529314616A510D0AFF3D4
:1002F0000080002802DA404213A507E031688A072F
:1003000001D512A502E0490704D511A5012401E099
:10031000AFF3008000210A2206F1240709E0B0FBB8
:10032000F2FCB0FBF2F302FB1C00303078541846AC
:10033000491C0028F3D123462A463046BDE8F04147
:1003400000F00DB9000000002D0000002B0000009F
:10035000200000002DE9F0410F46054600202862EC
:100360002846E968884770B3252805D0D5E90121DA
:100370009047286A401CF2E7E9682846002688472B
:100380006C2804460AD0682C08D04C2C35D06A2C36
:1003900031D0742C31D07A2C2FD016E0E968064683
:1003A00028468847B042044608D16C2E23D04FF42B
:1003B00080662846E9688847044606E06C2E03D02C
:1003C0004FF4807601E01EE04026E4B1A4F1410044
:1003D000192802D8203446F400663A4621462846B9
:1003E0002E60FFF7DFFE60B1012808D0FF1D27F067
:1003F00007070837B4E78026DBE70026D9E73F1D6B
:10040000AEE72046B2E7286ABDE8F081032A40F251
:10041000308010F0030C00F0158011F8013BBCF1A6
:10042000020F624498BF11F801CB00F8013B38BFBE
:1004300011F8013BA2F1040298BF00F801CB38BFCC
:1004400000F8013B11F0030300F02580083AC0F0EA
:10045000088051F8043B083A51F804CBA0E8081092
:10046000F5E7121D5CBF51F8043B40F8043BAFF3C5
:100470000080D20724BF11F8013B11F801CB48BF1F
:1004800011F8012B24BF00F8013B00F801CB48BF55
:1004900000F8012B704710B5203AC0F00B80B1E88E
:1004A0001850203AA0E81850B1E81850A0E81850A9
:1004B000BFF4F5AF5FEA027C24BFB1E81850A0E8B2
:1004C000185044BF18C918C0BDE810405FEA827CCC
:1004D00024BF51F8043B40F8043B08BF7047D207E3
:1004E00028BF31F8023B48BF11F8012B28BF20F884
:1004F000023B48BF00F8012B704702F0FF0343EABC
:10050000032242EA024200F0A2B84FF0000200B516
:10051000134694469646203922BFA0E80C50A0E826
:100520000C50B1F12001BFF4F7AF090728BFA0E8D4
:100530000C5048BF0CC05DF804EB890028BF40F8A0
:10054000042B08BF704748BF20F8022B11F0804FE2
:1005500018BF00F8012B70477047704770472DE9AE
:10056000F0470D4699469246044600F1240801687A
:10057000880604D5E06921F01001216000E0012027
:10058000A84201DD471B00E00027A1697A1902EBB0
:100590000900081AA0612078C00602D42046AFF3F3
:1005A0000080002608E0D4E901211AF806009047EF
:1005B000206A401C761C20624E45F4DB2078C00681
:1005C0000AD52046AFF3008006E0D4E901213020AF
:1005D0009047206A401C2062381EA7F10107F4DC16
:1005E00007E0D4E9012118F805009047206A401C73
:1005F0002062281EA5F10105F3DC2046AFF3008040
:100600002078000602D50220BDE8F0870120FBE734
:1006100001694A1C02610878704700B58FB0CDE9C6
:1006200001310021059105497944CDE903101146B6
:100630006846FFF78FFE0FB000BD0000E5FFFFFF2B
:100640000A6802F8010B0A6070474FF000020429A3
:10065000C0F0128010F0030C3FF459AFCCF1040C41
:10066000BCF1020F18BF00F8012BA8BF20F8022B25
:10067000A1EB0C01FFF74BBF5FEAC17C24BF00F880
:10068000012B00F8012B48BF00F8012B704775467D
:1006900000F02CF8AE4605006946534620F00700EE
:1006A000854618B020B5FFF7F3FDBDE820404FF0B8
:1006B00000064FF000074FF000084FF0000B21F04C
:1006C0000701AC46ACE8C009ACE8C009ACE8C00919
:1006D000ACE8C0098D46704710B50446AFF3008002
:1006E0002046BDE81040FFF772BD0000004870478B
:1006F000141C002001491820ABBEFEE726000200B2
:100700007047FEE700224FF48051014800F03FBAE5
:10071000000C014010B5064C01212170A06000F0D2
:100720003BFAE060BDE81040012000F003B8000093
:100730003C00002008B1012200E000224FF480516B
:10074000014800F024BA0000000C014010B5064C2E
:10075000002020701E20A06000F01EFAE060BDE8BE
:1007600010400120FFF7E6BF3C00002000B589B033
:10077000242205496846FFF78EFE6A460021034899
:1007800002F048FC09B000BDDC490008CD29000892
:10079000704700F04DB80000104910B5096847F6E1
:1007A000FF7048620E49096848620E49096848624C
:1007B0000D49096848623C21084801F00FF93C21C5
:1007C000074801F00BF93C21064801F007F9BDE8A4
:1007D00010403C21044801F001B9000090010020C4
:1007E000D8010020200200206802002002004FF003
:1007F000000047F6FF710CD0012A0CD0022A0CD061
:10080000032A05D106480268506A5162081A00B2EC
:1008100070470448F7E70448F5E70448F3E70000A9
:10082000D801002090010020200200206802002052
:1008300000B50020FFF7DAFF0B4B1968081A1860A3
:100840000120FFF7D3FF5968084458600220FFF7E2
:10085000CDFF9968084498600320FFF7C7FFD96867
:10086000081AD86000BD00002C00002072B6FEE718
:1008700070B52D4C05004FF0000619D0012D21D088
:10088000022D34D00021084601F092FF0021012002
:1008900001F08EFF0021022001F08AFF00210320D9
:1008A00001F086FF6078012820D1E07A68B330E05B
:1008B0006221002001F07CFF6321012001F078FF1C
:1008C00062211DE06321002001F072FF3C21012024
:1008D00001F06EFF6321022001F06AFF3C2103203A
:1008E00001F066FFE6726078012812D070BD3C21ED
:1008F000002001F05DFF6321012001F059FF3C2140
:10090000022001F055FF6321E9E708490120087042
:10091000E072E0690028E9D0032DE7D000F03CF94F
:10092000E169401A206270BDCC0000204000002028
:1009300070B5040014D00B4D2021284600F022F998
:1009400020600821284600F01DF96060102128462B
:1009500000F018F9E0600421284600F013F9206146
:1009600070BD00000008014070B5044600F014F9A5
:100970000546601C02D004480078044400F00CF9DD
:10098000401BA042FAD370BD180000202DE9F84F9B
:10099000DFF8C8910024A9F1040B23460F2709F1C1
:1009A000040AABF1040ED1E00125A54006EA0502D8
:1009B000AA4276D1DFF8A8C14E68A6EB0C086645BE
:1009C0002BD00DDC032E34D005DC36B3012E19D02C
:1009D000022E2FD11BE0112E16D0122E2AD119E093
:1009E000B8F5881F19D006DCB8F5803F15D0B8F5EA
:1009F000801F1FD111E0B8F5001F0ED0B8F5041FFD
:100A000018D10AE0CB6815E0CB681B1D12E0CB685B
:100A100008330FE0CB680C330CE08B682BB1012B53
:100A20004FF0080303D0456104E0042302E00561B0
:100A300000E00023FF2A01D8064601E000F1040689
:100A40004FEA840501D9A5F12005D6F8008007FA00
:100A500005FC28EA0C0803FA05F548EA0508C6F87B
:100A600000804D68ED0070D53E4DAE6946F0010640
:100A7000AE61AD6924F0030605F0010500953A4D1D
:100A800006EB050CDCF80850A607360F07FA06F847
:100A900025EA0805DFF8D480404503D14FF000086F
:100AA00025E052E0DFF8C880404502D14FF0010850
:100AB0001DE0DFF8C080404502D14FF0020816E08B
:100AC000DFF8B480404502D14FF003080FE0DFF8B3
:100AD000AC80404502D14FF0040808E0DFF8A08068
:100AE000404502D14FF0050801E04FF0060808FA32
:100AF00006F848EA0508CCF808804D68D9F8006087
:100B0000ED024D4601D5164300E096432E604D6838
:100B1000DAF80060AD02554601D5164300E0964371
:100B20002E604D68DBF80060AD035D4601D51643CD
:100B300000E096432E604D68DEF80060ED037546D8
:100B400001D5164300E096432E60641C0A681646E1
:100B5000E2407FF429AFBDE8F88F000008040140AF
:100B60000000111000100240000001400008014088
:100B7000000C014000100140001401400018014029
:100B8000001C01408068084000D0012070470AB175
:100B9000016170470904FBE7014880687047000065
:100BA0001800002070B5040025D094F83D00002501
:100BB00020B984F83C50204600F04EF9242084F8F7
:100BC0003D002068016821F0010101602068016892
:100BD00041F4004101602068016821F40041016096
:100BE00000F0F2FA4D4A6168914201D84C4900E0A8
:100BF0004C49884201D2012070BD4B492368B0FBAB
:100C0000F1F15E6826F03F060E435E606368934232
:100C100006D94FF4967359434FF47A73B1FBF3F14D
:100C20002368491C1E6A26F03F0631431962616839
:100C3000914210D84900401EB0FBF1F2521CC2F3A1
:100C40000B02042A01D2042022E0B0FBF1F0401C88
:100C5000C0F30B001CE0A268F2B301EBC10303EB8D
:100C60000116431EB3FBF6F35B1C43F480431B05E4
:100C700049D092B301EBC10202EB0111401EB0FB5F
:100C8000F1F0401CC0F30B0040F4804040F4004001
:100C90002168CA694CF6FF739A431043C861D4E9CE
:100CA000071001432068026822F0C002114301606E
:100CB000D4E9030101432068826848F2FF339A4374
:100CC00011438160D4E9050108432168CA6822F014
:100CD000FF021043C86001E00EE016E020680168E2
:100CE00041F0010101602564202084F83D00256366
:100CF00084F83E50002070BD01EB4106431EB3FB5B
:100D0000F6F35B1CB3E70120C2E701EB4101401E93
:100D1000B0FBF1F0401CC0F30B00B7E7A086010068
:100D200080841E0000093D0040420F002DE9F84F6D
:100D30001F4690468A460446DDF82890FFF72CFFB0
:100D4000054694F83D0020287FD11923012240490F
:100D50002046009501F0EEF8002876D194F83C008A
:100D6000012872D0012084F83C0020680168C9077E
:100D700003D1016841F0010101602068016821F49C
:100D800000610160212084F83D00102084F83E00BD
:100D900000262664C4F824806785608D20852D4850
:100DA000E0622B464A465146204601F049F890B988
:100DB000206841698069009036E02A46494620460D
:100DC00001F05EF950B1206C042804D1206801685C
:100DD00041F4007101600120BDE8F88F606A21686C
:100DE00000780861606A401C6062618D491E6185FF
:100DF000218D491E89B2218522685369DB435B0737
:100E00000BD451B100781061606A401C6062608D43
:100E1000401E6085208D401E20852A46494620467A
:100E200001F05CF80028CED1208D0028C5D154F8FF
:100E30003D0B016841F400710160202004F81E0997
:100E4000E67766770020C7E7FFE70220C4E70000E7
:100E5000020010000000FFFF10B586B000210091D5
:100E600001910291039100681349884222D1134CE9
:100E7000A06940F00800A061A069694600F0080080
:100E800004904FF4407000901220019003200390D2
:100E90000B48FFF77BFD0B48416841F0E06141F0F2
:100EA00002014160E06940F40010E061E06900F493
:100EB0000010049006B010BD005400400010024025
:100EC000000C014000000140024881680278114492
:100ED0008160704718000020074810B5016841F094
:100EE00010010160032000F0A7F80F2000F006F8C1
:100EF00000F050F8002010BD0020024030B505463B
:100F00001F4887B0C16941F02001C161C06906A9CD
:100F100000F02000009001A800F036F90498B0B16C
:100F200000F052F940001749174AB0FBF1F1174899
:100F3000491E0260416040F2E7320021C0E903210E
:100F40008160816100F070FB040003D015E000F0C7
:100F50003BF9E8E70D4800F0B5FB04000DD1372060
:100F600000F03CF8102D07D200222946372000F06F
:100F700043F80748056000E0012407B0204630BD73
:100F80000010024040420F0000140040F802002010
:100F90001C0000200F4808B5816941F00101816102
:100FA000816901F001010091C16941F08051C16185
:100FB000C069002200F0805000900F21901E00F0C8
:100FC0001BF80548416821F0E06141F00071416083
:100FD00008BD00000010024000000140002809DBAD
:100FE00000F01F02012191404009800000F1E02043
:100FF000C0F8001170470000F0B40E4B1B680C469F
:10100000C3F30223C3F10705042D00D90425191DDC
:10101000072901D2002300E0DB1E012606FA05F1B4
:10102000491E214099409E40761E16403143F0BC37
:1010300001F085BF0CED00E0064900F007020868EA
:101040004FF6FF03184040EA0220034A10430860AD
:10105000704700000CED00E00000FA052DE9F047B4
:101060000F46050061D0434E306800F00700B842DB
:1010700009D2306820F0070038433060306800F053
:101080000700B84251D128683B4C810712D5400770
:1010900003D5606840F4E06060602878000703D5FD
:1010A000606840F4605060606068A96820F0F000FB
:1010B000084360602878C00728D06868012810D0ED
:1010C0002168022810D0890700292EDA616821F0F2
:1010D000030101436160FFF75FFD804641F28839FB
:1010E0000DE021688903EFE78901EDE7FFF754FD83
:1010F000A0EB0801494502D90320BDE8F0876068EC
:10110000696800F00C00B0EB810FEFD1306800F09F
:101110000700B8420BD9306820F007003843306030
:10112000306800F00700B84201D00120E5E72878D8
:10113000400705D56068E96820F4E0600843606016
:101140002878000706D56068296920F4605040EAD5
:10115000C100606000F048F86168084AC1F30311FB
:10116000515CC8400649086006480068FFF7C6FEA3
:101170000020C2E70020024000100240B2490008EF
:10118000240000201C0000200F2202600C4A53683B
:1011900003F003034360536803F0F0038360536874
:1011A00003F4E063C36052684FF4E06303EAD202E1
:1011B00002610448006800F0070008607047000002
:1011C00000100240002002400448054900684968B8
:1011D000044AC1F30221515CC8407047240000203A
:1011E00000100240C24900080E4A51680E4801F042
:1011F0000C03042B11D0082B0FD10C48C1F38343EF
:10120000C903C05C0AD55168084AC1F34041921E27
:10121000515C054A5043B0FBF1F070470449484324
:10122000704700000010024000127A00A249000836
:1012300000093D002DE9F84F040070D02078C04D22
:10124000C00749D06868C0F38100012807D06868EA
:10125000C0F38100022809D16868C00306D5286858
:10126000800339D560680028E7D035E06068B0F5C4
:10127000803F0BD010B1B0F5A02F11D0286820F41A
:1012800080302860286820F4802002E0286840F43C
:1012900080302860606890B1FFF77EFC06460AE067
:1012A000286840F480202860F0E700BFFFF774FC56
:1012B000801B642873D828688003F7D50CE0FFF7FB
:1012C0006BFC064605E000BFFFF766FC801B642848
:1012D000F0D828688003F7D420789A4E80074FF022
:1012E00001094FF0000839D5686810F00C0F07D0DD
:1012F0006868C0F38100022809D16868C00306D479
:101300002868800714D52069012808D110E02069D9
:10131000B0B1C6F80090FFF73FFC074605E00AE1D0
:10132000FFF73AFCC01B0228C4D828688007F7D50D
:101330002868616920F0F80040EAC10028600DE0EB
:10134000C6F80080FFF728FC074604E0FFF724FCFE
:10135000C01B022823D828688007F7D4207800070C
:101360002CD57948A169D9B1C0F80090FFF714FCD9
:10137000074604E0FFF710FCC01B02280FD8686A7C
:101380008007F7D571484FF4FA510068B0FBF1F0CF
:10139000009000BF0098411E0091FAD20EE080E05C
:1013A000C0F80080FFF7F8FB074604E0FFF7F4FB06
:1013B000C01B022875D8686A8007F7D420784007D8
:1013C00060D5E8690027C00008D4E86940F0805083
:1013D000E861E869012700F0805000905C480168EE
:1013E000C90513D40168834641F480710160FFF799
:1013F000D3FB824606E000BFFFF7CEFBA0EB0A005E
:1014000064284ED8DBF80000C005F5D5E068012857
:101410000AD008B1052813D0286A20F001002862FC
:10142000286A20F0040002E0286A40F001002862E7
:10143000E06841F2883B98B1FFF7AEFB82460BE0D3
:10144000286A40F004002862EEE700BFFFF7A4FB23
:10145000A0EB0A0159455AD8286A8007F6D50CE056
:10146000FFF79AFB824605E0FFF796FBA0EB0A0127
:1014700059454CD8286A8007F6D41FB1E86920F096
:101480008050E861E06988B36968C1F3810102298D
:1014900044D00228C6F8608004D0FFF77DFB0446E4
:1014A00038E034E0FFF778FB074604E0FFF774FB11
:1014B000C01B02282BD828688001F7D4206AB0F519
:1014C000803F05D16868A16820F400300843686057
:1014D000D4E908010843696821F47411084368607D
:1014E000C6F86090FFF758FB044606E025E000BF11
:1014F000FFF752FB001B022809D828688001F7D5A6
:101500001BE000BFFFF748FB001B022802D90320A5
:10151000BDE8F88F28688001F4D40EE00128F7D0E8
:101520006868226A00F48031914204D1616A00F453
:101530007010884201D00120EAE70020E8E70000AF
:101540000010024000004242800442422400002079
:10155000007000407047704710B590F83C20012A99
:1015600022D0012280F83C20CA688C6822F44072A4
:1015700022434C6822F4806222430C6822F4006209
:1015800022430C6922F4805222434C6922F4005217
:101590002243C969002322F480420A4301684A6455
:1015A00080F83C30002010BD022010BD70B590F8CE
:1015B0003C20012A2CD0012480F83C40022280F8F3
:1015C0003D2003685A689D6822F070060A6832431D
:1015D0005A60104B02689A420ED00F4B9A420BD0C1
:1015E000B2F1804F08D00D4B9A4205D00C4B9A4275
:1015F00002D00C4B9A4204D1496825F0800319436C
:10160000916080F83D40002180F83C10084670BD94
:10161000022070BD002C0140003401400004004055
:1016200000080040000C004010B5040003D094F8FE
:101630003D0010B107E0012010BD002084F83C00FF
:10164000204600F01FF8022084F83D00211D20688C
:1016500001F0D8FA012084F8460084F83E0084F8AE
:101660003F0084F8400084F8410084F8420084F888
:10167000430084F8440084F8450084F83D000020CD
:1016800010BD000008B50C4A01680C48914207D112
:10169000816941F400618161806900F4006009E0C2
:1016A000074A914207D1816941F400518161806903
:1016B00000F40050009008BD002C014000100240D2
:1016C0000034014090F83D10012901D001207047FD
:1016D000022180F83D100168CA6842F00102CA6028
:1016E00000680E4988420ED00D4988420BD0B0F1F7
:1016F000804F08D00B49884205D00B49884202D060
:101700000A49884204D1816801F00701062903D003
:10171000016841F00101016000207047002C014088
:10172000003401400004004000080040000C00406C
:1017300070B5044690F83C000025012817D001261A
:1017400084F83C60022084F83D002068826822F022
:10175000770222F47F4282600868502838D00DDC7E
:1017600020284FD005DC90B3102811D14AE0022088
:1017700070BD302846D040280AD13BE060282FD0E9
:1017800070280DD0B0F5805F03D0B0F5005F12D0A7
:10179000012584F83D60002084F83C00284670BD97
:1017A000CB68D1E90121206801F087FA20688168BF
:1017B00041F0770109E0CB68D1E90121206801F00F
:1017C0007CFA2068816841F480418160E1E719E09A
:1017D000CA684968206801F045FB5021206806E08E
:1017E000CA684968206801F04EFB6021206801F05A
:1017F0006EFACEE7CA684968206801F033FB4021E1
:101800002068F4E7226801461046F0E72DE9F04130
:101810000D46040003D094F83D0018B108E0012003
:10182000BDE8F081002084F83C00204600F040F83C
:10183000022084F83D002068816844F20702914349
:101840008160211D206801F0DDF9226890689169AE
:10185000166A2B68AF69034340F20330814341EAC3
:101860000721A868EF6908434FF6FC418843E968FF
:1018700040EA0720014328692F6A000140EA073047
:10188000084369686D6926F0220646EA0515294372
:1018900093602268906154F8460B0162012004F8BD
:1018A0001F09E0752076E0762077A0750020B7E765
:1018B00030B585B00024009401940294039400682C
:1018C0003F49404B404DB0F1804F15D03F4CC022B6
:1018D000A04243D1C86940F00200C861C86900F065
:1018E00002000490886940F00400886188690092D1
:1018F00000F0040004905FE0C86940F00100C86196
:10190000C86900F001000490886940F00400886113
:10191000886900F004000490886940F0080088613C
:101920008869694600F0080004904FF40040009078
:101930001846FFF72BF80820CDE900046946284631
:101940000294FFF723F82248416821F4407141F0E6
:10195000E06141F48071416005B030BD1D4CA04292
:1019600015D1C86940F00400C861C86900F00400DE
:101970000490886940F0080088618869694600F031
:101980000800049000922846FFF700F8E4E7124AA6
:101990009042E1D1C86940F00800C861C86900F010
:1019A00008000490886940F004008861886900F0AC
:1019B000040004900320009069461846E4E7000004
:1019C0000010024000080140000C014000040040EB
:1019D0000000014000080040000C004070B590F885
:1019E0003E60044690F83F5090F8423090F8432013
:1019F000022021B104290ED0012E1BD114E0012EAA
:101A000018D1012B16D184F83E0084F8420001223F
:101A10000021206820E0012D0CD1012A0AD184F890
:101A20003F0084F8430014E0012D03D1012B01D1C4
:101A3000012A01D0012070BD84F83E0084F83F00E7
:101A400084F8420084F8430001220021206801F05C
:101A500027F901220421206801F022F92068016899
:101A600041F001010160002070BD70472DE9F04197
:101A700004460068C66805694FF00007A90713D53A
:101A8000B10711D5F91E0161012020772068806916
:101A90008007204602D0FFF7E8FF04E000F0BCF822
:101AA000204600F04EF92777680716D5700714D541
:101AB00021686FF0040008610220207720688069A7
:101AC00010F4407F204602D0FFF7CFFF04E000F083
:101AD000A3F8204600F035F92777280715D53007F9
:101AE00013D521686FF00800086104202077206872
:101AF000C0698007204602D0FFF7B7FF04E000F07E
:101B00008BF8204600F01DF92777E80616D5F00679
:101B100014D521686FF01000086108202077206834
:101B2000C06910F4407F204602D0FFF79EFF04E01A
:101B300000F072F8204600F004F92777E80708D093
:101B4000F00706D021686FF001000861204600F020
:101B500053F9280608D5300606D521686FF08000B5
:101B600008612046FFF7F6FC680608D5700606D522
:101B700021686FF040000861204600F047F9A80690
:101B80000AD5B00608D521686FF02000086120460C
:101B9000BDE8F041FFF7DFBCBDE8F08100B585B0DE
:101BA00000210091019102910391164B02681648A1
:101BB00002219A420FD1826942F004028261806957
:101BC000039100F0040004904FF47060CDE900012F
:101BD00069460E4811E00E4B9A4210D1826942F0DC
:101BE000100282618069039100F0100004904FF4AC
:101BF0007070CDE9000169460648FEF7C7FE05B0E2
:101C000000BD0000002C014000100240000801400F
:101C10000034014000100140704770B5044690F850
:101C20003C0000260D4601280FD0012084F83C001E
:101C30006AB1042A1DD0082A2FD00C2A3FD00126D1
:101C4000002084F83C00304670BD022070BD206842
:101C500001F046F82068816941F00801816120683F
:101C6000816921F004018161206881692A69114339
:101C700011E0206801F064F82068816941F4006196
:101C800081612068816921F48061816120688169B6
:101C90002A6941EA02218161D2E7206801F086F8D1
:101CA0002068C16941F00801C1612068C16921F063
:101CB0000401C1612068C1692A69114311E02068EB
:101CC00001F0A8F82068C16941F40061C161206891
:101CD000C16921F48061C1612068C1692A6941EA52
:101CE0000221C161ACE710B5040003D094F83D00B7
:101CF00010B107E0012010BD002084F83C00204610
:101D000000F01EF8022084F83D00211D206800F03C
:101D100079FF012084F8460084F83E0084F83F00F3
:101D200084F8400084F8410084F8420084F84300BD
:101D300084F8440084F8450084F83D00002010BD7C
:101D40007047704710B50446022249B104290ED0ED
:101D5000082913D094F84100012816D0012010BDA5
:101D600094F83E000128F9D184F83E200FE094F861
:101D70003F000128F2D184F83F2008E094F84000A9
:101D80000128EBD184F8402001E084F841200122B1
:101D9000206800F085FF13492068134A884201D06B
:101DA000904203D1436C43F400434364206888426B
:101DB0000DD090420BD0B0F1804F08D00B49884233
:101DC00005D00B49884202D00A49884204D1816873
:101DD00001F00701062903D0016841F0010101600B
:101DE000002010BD002C01400034014000040040E0
:101DF00000080040000C004000680349884201D1FF
:101E0000FFF762B870470000001400407047FEE71B
:101E100001684A69D24352050FD46FF480624A6167
:101E2000002140F8301F202242738173026942F082
:101E30000402026101730120704700207047000016
:101E4000F8B50446C06A1E460D461746082807D056
:101E5000012805D010F5803F02D0206B122804D154
:101E60002068016841F480710160134600224FF040
:101E700001112046009600F05DF840B1206800682E
:101E8000C00502D54FF4007020640320F8BD20691E
:101E9000B0F5804F0ED00620216800EAD51040F042
:101EA000F000086133463A460B49204600F08AF8B4
:101EB00078B902E005F0FE0000E0E8B221680861B0
:101EC000054933463A46891F204600F07BF8002832
:101ED000DCD00120F8BD00000800010070B51646F6
:101EE0000D4604461EE02046FFF792FF08B1012090
:101EF00070BD681C16D0FEF74FFE801BA84200D8AC
:101F000085B920684069C04340070BD5002044F8DC
:101F1000300F20216173A073216941F020012161FC
:101F20002073E4E720684069C0434007DBD4002009
:101F300070BD00002DE9F047984617460D4604464F
:101F4000C1F30746DDF820902AE000BFB8F1FF3F5B
:101F500026D0FEF721FEA0EB0901414502D8B8F1D9
:101F6000000F1DD12068012E16D0806925EA0000DF
:101F70000004000C12D00020B84211D1002044F817
:101F8000300F20216173A073216941F0200121618C
:101F900020730120BDE8F0874069E7E70120EBE707
:101FA0002068012E0AD0806925EA00000004000C98
:101FB00006D00020B842C9D00020EBE74069F3E723
:101FC0000120F7E72DE9F047984616460D460446EE
:101FD0004FF000094FF0200AC1F3074723E02068C3
:101FE0004069C043400515D42068016841F4007180
:101FF000016021686FF480604861C4F8309084F813
:102000003DA084F83E90216C41F00401216484F8E5
:102010003C9021E0701C06D0FEF7BEFDA0EB08004E
:10202000B04203D816B1012F1FD021E02068012F44
:1020300015D0806925EA00000004000C18D000BF0C
:1020400044F8309F84F80DA084F80E90216941F087
:102050002001216184F80C900120BDE8F0874069DF
:1020600025EA00000004000CEAD12068406901E084
:102070002068806925EA00000004000CAFD1ECE77D
:1020800070B516460D4604461EE02046FFF7C0FE1A
:1020900008B1012070BD681C16D0FEF77DFD801BC5
:1020A000A84200D885B920684069C04300060BD516
:1020B000002044F8300F20216173A073216941F0A2
:1020C000200121612073E4E720684069C0430006D5
:1020D000DBD4002070BD0821C171002100F00ABFCF
:1020E00010B50446012A03D9607840F008006070FA
:1020F00022712BB1012A03D1607840F00400607096
:102100003220FEF731FCE179204600F0F3FE4FF477
:102110007A70FEF729FC3021204600F0D3FE05201E
:10212000FEF722FC3021204600F0CCFE0520FEF711
:102130001BFC3021204600F0C5FE0120FEF714FCF8
:102140002021204600F0BEFE607840F020012046AD
:1021500000F01CF80420A070204600F01AF8204679
:1021600000F00BF80220E0700621204600F00EF887
:102170002046BDE8104000F014B810B5012100F071
:1021800005F8BDE810400220FEF7EEBB002200F08B
:10219000C3BE817841F00401817041F00801FFF76E
:1021A000F5BF10B50221FFF7F1FFBDE81040022096
:1021B000FEF7DABB0170427183710021C171417079
:1021C000DAB241790023FFF78BBF70B50C460546A4
:1021D00003E02846641C00F01BF821780029F8D1A0
:1021E00070BD00007FB5094E78CE8DE87800037988
:1021F000934201D25B1EDAB21DF822201144C9B20B
:1022000041F08001FFF7C2FF7FBD0000CC4900080C
:10221000012200F081BE000010B5094C8AB00020F8
:10222000607000F0AFFB242206496846FEF733F9E0
:102230006A460021044800F0EDFE60620AB010BD5D
:10224000CC000020004A0008052B000810B5FFF75D
:10225000E3FFFEF78BFA104B002201210F4800F03C
:102260001FFF0F4C0A21E06000F056FF0A4A0021D0
:102270006C3A0C4800F0CEFE074A2060483A002134
:10228000094800F0C7FE044A6060243A002107486C
:1022900000F0C0FEA06010BD904900089307000840
:1022A000000000203D2A00086D2B0008752B000857
:1022B000F0B585B00024244800940194029403945E
:1022C000816941F020018161816901F0200104915F
:1022D000816941F004018161816901F00401049187
:1022E000816941F008018161816901F0080104916F
:1022F000816941F0100181618069144F00F0100084
:102300004FF480560490002231463846FEF73FFCD9
:102310003C2001258DE8310069460D48FEF736FB6B
:10232000E802CDE90004694638460294FEF72EFB28
:102330000220CDE90240CDE9006569463846FEF746
:1023400025FB05B0F0BD000000100240000C01406C
:10235000000801400D4810B50B4901600C4941606F
:1023600000214FF480428160C0E903124161816124
:10237000C1610162FEF716FC002803D0BDE81040E1
:10238000FEF774BA10BD000000540040F4000020B5
:10239000A086010010B596B000240F9410941194FB
:1023A000129413941C2168461494FEF7AEF8202171
:1023B00007A8FEF7AAF83548334901604721C0E96C
:1023C00001146321C0E903148021C0E90541FFF72E
:1023D0002BF908B1FEF74AFA4FF480500F900FA97D
:1023E0002A48FFF7A5F908B1FEF740FA2748FFF79A
:1023F0007AFC08B1FEF73AFA139413A9234814940F
:10240000FFF7D4F808B1FEF731FA6020CDE90004F7
:102410000294039404940594002269461B48069490
:10242000FFF7FBFB08B1FEF721FA042269461748C3
:10243000FFF7F3FB08B1FEF719FA082269461348C3
:10244000FFF7EBFB08B1FEF711FA0C2269460F48C3
:10245000FFF7E3FB08B1FEF709FA07940894099423
:102460004FF400500A94CDE90B4040000E9007A9AC
:102470000648FFF771F808B1FEF7F8F90348FFF7CF
:102480008DFB16B010BD0000002C0140480100205B
:1024900010B58CB024216846FEF737F800241648A2
:1024A00009944FF080410A94C0E900144FF6FF717F
:1024B000C0E90241046184610320CDE900040120E8
:1024C000CDE902040A210491CDE90540CDE9074197
:1024D00069460948FFF79AF908B1FEF7C7F9099468
:1024E00009A905480A94FFF761F8002801D0FEF712
:1024F000BDF90CB010BD00009001002010B58CB0EB
:1025000024216846FEF701F800241648099414496E
:102510000A94C0E900144FF6FF71C0E9024104615A
:1025200084610320CDE900040120CDE902040A21E1
:102530000491CDE90540CDE9074169460948FFF717
:1025400065F908B1FEF792F9099409A905480A94BA
:10255000FFF72CF8002801D0FEF788F90CB010BD69
:1025600000040040D801002010B58CB0242168463A
:10257000FDF7CBFF00241648099414490A94C0E9DA
:1025800000144FF6FF71C0E9024104618461032029
:10259000CDE900040120CDE902040A210491CDE92E
:1025A0000540CDE9074169460948FFF72FF908B111
:1025B000FEF75CF9099409A905480A94FEF7F6FFAD
:1025C000002801D0FEF752F90CB010BD0008004001
:1025D0002002002010B58CB024216846FDF795FF3D
:1025E00000241648099414490A94C0E900144FF6CF
:1025F000FF71C0E90241046184610320CDE9000458
:102600000120CDE902040A210491CDE90540CDE97C
:10261000074169460948FFF7F9F808B1FEF726F9BE
:10262000099409A905480A94FEF7C0FF002801D0C3
:10263000FEF71CF90CB010BD000C00406802002031
:1026400010B596B000240F94109411941294139422
:102650001C2168461494FDF758FF202107A8FDF7B8
:1026600054FF3548334901604721C0E90114632113
:10267000C0E903148021C0E90541FEF7D5FF08B188
:10268000FEF7F4F84FF480500F900FA92A48FFF797
:102690004FF808B1FEF7EAF82748FFF724FB08B126
:1026A000FEF7E4F8139413A923481494FEF77EFF71
:1026B00008B1FEF7DBF86020CDE900040294039432
:1026C00004940594002269461B480694FFF7A5FA76
:1026D00008B1FEF7CBF8042269461748FFF79DFAC8
:1026E00008B1FEF7C3F8082269461348FFF795FAC8
:1026F00008B1FEF7BBF80C2269460F48FFF78DFAC8
:1027000008B1FEF7B3F80794089409944FF4005009
:102710000A94CDE90B4040000E9007A90648FEF749
:102720001BFF08B1FEF7A2F80348FFF737FA16B00F
:1027300010BD000000340140B0020020FEE70000A0
:1027400010B500211748FFF7FDFA04211548FFF7DF
:10275000F9FA08211348FFF7F5FA0C211148FFF7A1
:10276000F1FA00211048FFF7EDFA04210E48FFF7B7
:10277000E9FA08210C48FFF7E5FA0C210A48FFF7AF
:10278000E1FA09480068416C41F4004141640548A0
:102790000068416C41F40041416404490F20087015
:1027A00010BD0000B00200204801002028000020D9
:1027B0000023002902DD01F10A0102E006DAA1F19D
:1027C0000A010AB2632A03DD632206E01A4604E026
:1027D0006FF062018A4200DA0A4660B1012816D021
:1027E00002281CD0032805D11148011D002A1BDB3B
:1027F00002600B60704750420E4900B20A1D0BE0A8
:102800000860136070470B604042106070470949D0
:102810005042083100B20A1D0028F4DBF0E70448FA
:1028200003490830091FE1E7036050420860704720
:10283000382C014034340140FEE7000030B5002858
:102840006FD03B494A78002A6BD00122C46800232C
:102850002CB905681DB945680DB905692DB14B72D4
:102860008B729CB1012C23D024E04C7A641CE4B21E
:102870004C72022C42D38C7A94BB4869401C48614C
:102880002C488A724B720270042030BD0569012DFC
:1028900010D1CC792CBB4C79641CE4B24C71022C65
:1028A0001FD3CC68641CCC60234CCA71227018E022
:1028B0004B71CB71056915B1012D12D013E0012CBC
:1028C00011D10C7A7CB98C79641CE4B28C71022C25
:1028D00009D30C69641C0C61184C0A72227002E066
:1028E0000CE08B710B7204680CB9456835B10B7044
:1028F000037264B1012C12D064B112E00272087844
:10290000401CC0B2087002280FD30B700DE0416864
:10291000012902D0406840B103E0012030BD406889
:1029200008B1032030BD022030BD002030BD0000C2
:10293000CC0000203F0000203D0000203E00002091
:1029400010B54FF400610D48FEF71CF90C49002248
:102950001346CC78A04206D00C79641CE4B20C710A
:10296000052C01D3C8700B71887818B9C878012874
:1029700000D10122C8788870104610BD000C0140BB
:10298000CC000020104810B50021C16001614A1E32
:102990004261816141718171C17101720170417245
:1029A0008172C1720846FFF703FF00210120FFF783
:1029B000FFFE00210220FFF7FBFE0021BDE81040D2
:1029C0000320FFF7F5BE0000CC0000201A4C0025C4
:1029D0006570A570E5702571022626702846FDF702
:1029E000A9FEFDF78FFE607810B1FDF7AFFE6570B0
:1029F000A07810B1FDF7AAFEA570E07810B1FDF740
:102A0000A5FEE570207920B140F2DC50FDF782FE92
:102A10002571207802280AD0FEF7BEF8E168401A36
:102A2000A168884203D30020FDF784FE26700A20A7
:102A300000F0B4FAD7E700003C0000208AB002237F
:102A4000102227211F48FFF7B5FB1E48FFF743FB65
:102A50001C48FFF792FB012200211A48FFF7C2FB36
:102A6000194E1A4C1A4D1B4FDFF86C80002211468C
:102A70001448FFF7B7FB3068009023682A6817A155
:102A800001A8FDF717FC01A90E48FFF79EFB20687F
:102A90003168084429680844386001220021094847
:102AA000FFF7A0FB3B68D8F8002011A101A8FDF7B3
:102AB00001FC01A90348FFF788FB642000F06EFACF
:102AC000D4E7000010000020DC000020D800002027
:102AD000E0000020E4000020EC0000202B3A2564F8
:102AE000204C653A25642052693A25642020000074
:102AF00074696D653A256C7520616C6C3A256420AB
:102B00002020000086B001F033FD01250026164C80
:102B1000CDF81400FFF714FF90B16078E8B1002100
:102B200066700846FFF744FE00210120FFF740FED3
:102B300000210220FFF73CFE00210320FFF738FEB2
:102B40006846FDF7F5FE6846FFF778FEFDF790FE54
:102B5000052105A801F0D8F8DCE7FFF713FF657041
:102B6000FEF71AF8E061EBE7CC000020012000F04E
:102B700015FAFBE7012000F011FAFBE710B54FF062
:102B8000E020006901F0E6FC012803D0BDE8104018
:102B900001F014BA10BD30B58FB028216846FDF79A
:102BA000B4FC14210AA8FDF7B0FC01210804CDE90A
:102BB00000100024029402250491CDE907504FF43F
:102BC000E01009906846FEF735FB08B172B6FEE7E3
:102BD0000F20CDE90A054FF48060CDE90C400221B9
:102BE0000AA80E94FEF73AFA002801D072B6FEE762
:102BF0000FB030BD704700000148FEF737BF00003E
:102C0000F8020020F0B50268204C214D214E224FE1
:102C1000224B4FF0804CA04209D0984207D060452B
:102C200005D0A84203D0B04201D0B84204D122F06E
:102C3000700E4A6842EA0E02A04209D0984207D0BC
:102C4000604505D0A84203D0B04201D0B84203D1BC
:102C500022F44075CA682A434D6922F080022A4353
:102C600002608A68C2620A688262A04201D0984209
:102C700001D109690163012141610169C90703D0DB
:102C8000016921F001010161F0BD0000002C01404B
:102C90000004004000080040000C004000340140E7
:102CA00010B501F01F030121046A99408C430462AE
:102CB000016A9A401143016210BD10B5846842EA6E
:102CC000032224F47F440A432243826010BD8268B9
:102CD00022F070020A4342F0070181607047000051
:102CE000F0B5036A026A22F0010202624268846956
:102CF000124E24F073050C682C4323F002058B68F8
:102D00002B430D4DA84201D0B04205D123F0080756
:102D1000CB683B4323F00403A84201D0B04205D165
:102D20004D6922F4407215438A692A4342608461E6
:102D3000496841630362F0BD002C0140003401404A
:102D4000F0B5026A036A23F01003036243688469E2
:102D50000D6824F4E64444EA05248D6822F020023C
:102D600042EA05120F4D104EA84201D0B04206D1E2
:102D7000CF6822F0800242EA071222F04002A84205
:102D800001D0B04207D14D6923F4406343EA850383
:102D90008D6943EA85034360846149688163026207
:102DA000F0BD0000002C014000340140F0B5026A83
:102DB000036A23F4807303624368C46922F40072D7
:102DC00024F073050C68124E2C438D6842EA0522EC
:102DD0000E4DA84201D0B04206D1CF6822F4006265
:102DE00042EA072222F48062A84201D0B04207D111
:102DF0004D6923F4405343EA05138D6943EA0513F3
:102E00004360C4614968C1630262F0BD002C0140A7
:102E10000034014030B5046A026A22F48052026232
:102E20004268C3690D6823F4E64343EA05238D68CD
:102E300024F4005444EA0534084DA84202D0084D59
:102E4000A84204D14D6922F4804242EA85124260D0
:102E5000C36149680164046230BD0000002C014078
:102E60000034014010B5036A046A24F001040462CE
:102E7000846924F0F00444EA021423F00A020A43AD
:102E80008461026210BD10B5036A046A24F0100464
:102E90000462846923F0A00324F4704444EA0232FB
:102EA00043EA01118261016210BD10B500F0AEFD70
:102EB000002805D0D0E90021BDE8104008461047A1
:102EC00010BDFEE770B50C46054600F013F844F05F
:102ED0000401284600F00EF80120FDF745FD24F01E
:102EE0000401284600F006F8BDE870400120FDF717
:102EF0003BBD00001CB5C27901230A434FF0FF31EE
:102F00008DF804200091007801AA41000148FDF7E6
:102F10000DFF1CBDF400002070B514460A4605469E
:102F2000100701F0F001060E21432846FFF7CAFF03
:102F300046EA04012846BDE87040FFF7C3BF090711
:102F4000090E002804DB00F1E02080F8001470472F
:102F500000F00F0000F1E02080F8141D7047FDF72D
:102F6000BBFFFFF718FEFFF7A3F9FFF713FAFFF710
:102F700067FBFFF78DFAFFF7C1FAFFF7F5FAFFF7E6
:102F800029FBFFF7E7F9FFF7DBFBFDF705FC00F096
:102F900013F8FFF75BF900F021F8FEE710B5EFF347
:102FA000058111B16FF0050403E0002408B100F0C1
:102FB00085FE204610BD0000EFF3058010B16FF0D4
:102FC000050070470448016811B14FF0FF307047A9
:102FD00001210160002070479C00002010B5EFF334
:102FE000058010B16FF0050010BD08480168012987
:102FF00002D04FF0FF3010BD054A002182F8141DA9
:103000000221016000F008FF002010BD9C0000209C
:103010000BE000E02DE9FF414FEA01034FF000050E
:10302000EFF30581039549BB40B3802718210024A5
:103030004AB3166806B1344696691EB13146761E0B
:10304000382E02D21679F60703D0002004B0BDE86E
:10305000F081566906B1B708D2F808C0BCF1000F7C
:103060000DD0D5685C2D18D312693AB136B18DE810
:1030700006103A46214601F042FA03900DE0D66868
:103080005EB912694AB903AACDE90012BAB2214663
:1030900001F008FA012800D003950398D6E7000054
:1030A0002DE9FC471C469046894607464FF000062E
:1030B000EFF3058058BB57B3082000F039FC05003A
:1030C00025D0C5E90078B9F1000F12D00122114BCB
:1030D000002094B1216801B10846A16859B1E468A3
:1030E0002C2C11D3CDE900312B46012101F09EFBA0
:1030F00008E00022EBE7E16831B900932B4601219B
:1031000001F07AFB060002D1284600F033FD30467C
:10311000BDE8FC87AB2E000808B5EFF3058212B1BD
:103120006FF0050008BD58B10022134600920A4610
:10313000042101F0C3FB012805D06FF0020008BD97
:103140006FF0030008BD002008BD00002DE9F0412C
:10315000134C0F460546E6682068001D00F07AFC17
:10316000681C07D137B12168BDE8F0410D48091D41
:1031700000F0C0BC20683544B5424560216805D2E6
:10318000A06BBDE8F041091D00F09CBC606B091DFF
:1031900000F098FCA06A854200D2A562BDE8F081EB
:1031A0004C000020300800202DE9F041054600F0D9
:1031B000ADFC2D4CA068401CA06020682B4F10B1C6
:1031C000606930B32BE02560A068012827D1002674
:1031D00006EB860007EB800000F066FC761C382EBC
:1031E000F6D3234800F060FC2148143000F05CFC6A
:1031F0001F48283000F058FC1D483C3000F054FCBB
:103200001B48503000F050FC194860631430A06334
:1032100005E02068E96AC06A884200D82560606AD3
:10322000401C60626864E86A2169884200D92061B4
:1032300000EB800007EB8000291D00F05BFC00F034
:1032400085FC606900280CD02068E96AC06A884261
:1032500007D208494FF080500860BFF34F8FBFF38B
:103260006F8FBDE8F08100004C000020800300203B
:10327000E007002004ED00E038B500F047FC104CFA
:103280002068C8B90F4800F00FFC0E48143000F059
:103290000BFC0C48E060143020610A4B0020F03B2E
:1032A000009003F1500210210A2000F09DFE2060E2
:1032B00010B105A100F0CCFCBDE8384000F046BCE0
:1032C0008800002034090020546D72510000000075
:1032D00030B4026C0B46002A0BD0C1681144C160A7
:1032E0008468A14201D30168C16030BC1846FDF773
:1032F0008DB830BC70472DE9F041856B1746044608
:103300000026026C82B1C7B1E068FDF77FF8E16882
:10331000206C091AE1602268914202D2A168081A61
:10332000E060022F16D017E02068A8B9A06801F06D
:1033300089F906460020A0600EE06068FDF766F897
:10334000216C606808446060A168884204D32068EA
:10335000606001E005B16D1E6D1CA5633046BDE8DF
:10336000F08110B5044690F8590058B101280CD0EE
:1033700002280FD0502080F31188BFF34F8FBFF386
:103380006F8FFEE7206B00F0F5FB2046BDE8104094
:1033900000F0F0BB10BD000010484FF44061420740
:1033A00006D0C01D0D4920F00700411AC1F540614B
:1033B0000B4A00230144C2E900030839183A21F0FE
:1033C000070111604B600B600B1AC0E9001393609A
:1033D0004FF000405360506170470000141000200F
:1033E000B8000020144E154CA6F29C474FF08058B0
:1033F000DFF84C9012E000BF00F088FBF068C56871
:10340000281D00F027FBA068401EA0606068401ED9
:10341000606000F09BFB2846FFF7A3FF6068002870
:10342000EAD138680128F9D9C9F80080BFF34F8F75
:10343000BFF36F8FF2E700001C0800204C00002053
:1034400004ED00E070B51D46049C51B1C4F80020A5
:10345000C4E90F010121204600F0FAFD84F84C5028
:1034600070BD2460F4E700002DE9F05F8846DDE9D7
:103470000B941546834691009A460A9EA522206B1E
:10348000FDF73BF86FF00301206B01EB8501084469
:1034900020F00707780707D0502080F31188BFF38A
:1034A0004F8FBFF36F8FFEE70025B8F1000F0FD0ED
:1034B0005FF00000221818F8001082F8341018F895
:1034C000001011B1401C1028F4D384F8435001E0DF
:1034D00084F83450382E00D33726E662C4E91365E9
:1034E000201D00F0ECFA04F1180000F0E8FA246165
:1034F000C6F138006462A061656584F85850524690
:103500005946384600F094FA2060B9F1000F01D016
:10351000C9F80040BDE8F09F2DE9F0471E46DDE9FF
:10352000089417460D00804615D0002C11D0FFF7E7
:10353000A3FE04F11801C4F8008081E86002201D98
:1035400000F0BDFA002F04D014F8280F40F004005A
:103550002070BDE8F087502080F31188BFF34F8FB3
:10356000BFF36F8FFEE7000030B5114900E0114650
:103570000A688242FBD34B685C18844203D14068DE
:1035800018444860084643681C18944209D1084C06
:10359000183C2468A24209D052681A4442600A6862
:1035A00012680260814200D0086030BD0460F9E713
:1035B000B800002070B5002441600B4D00619142BD
:1035C00006D8D11A8269914206D2011D286907E006
:1035D0009A4203D2994201D3012403E0011DE86815
:1035E00000F070FA204670BD8800002010B5044637
:1035F00000F08CFAA06B28B15FF0000400F0A6FA8E
:10360000204610BD0124F9E730B589B03C4D6EE08D
:103610000498002806DADDE90601059A9047049827
:10362000002864DB069C606910B1201D00F012FACE
:1036300003A800F0D7F8024604980A2857D2DFE81A
:1036400000F00505052D334A05052D3394F82800B3
:1036500040F0010084F828000599A069059B014409
:103660002046FFF7A7FF68B3216A2046884794F8F1
:10367000280040073BD5002000900598A169002351
:1036800042181946204601F019F9D8B9502080F3A4
:103690001188BFF34F8FBFF36F8FFEE714F8280F29
:1036A00020F00100207022E094F8280040F0010092
:1036B00084F828000598A06128B181181346204697
:1036C000FFF778FF13E0502080F31188BFF34F8F8E
:1036D000BFF36F8FFEE794F82800810703D42046DC
:1036E00000F048FA03E020F0010084F828000022EE
:1036F00004A9286800F000FE002889D109B030BD77
:10370000880000202DE9FC410F46054600F0C8FB6B
:1037100001A800F067F80446019818B101F00AF812
:10372000BDE8FC81254EAFB130690068D0B30027F9
:10373000291B3A46306800F09FFA00F0FBFF002892
:10374000EED11F494FF080500860BFF34F8FBFF399
:103750006F8FE5E7A542EBD800F0ECFFF068274655
:10376000C068C468201D00F075F994F8280041076E
:1037700019D5A0692B4641193A462046FFF71AFF92
:10378000A8B100200346014600902A46204601F0D9
:1037900095F860B9502080F31188BFF34F8FBFF3C5
:1037A0006F8FFEE707E020F0010084F82800216A0F
:1037B00020468847B4E70127BAE7000088000020C8
:1037C00004ED00E00648416B096829B1416BC96806
:1037D000C9684968816270474FF0FF31FAE700001D
:1037E0004C00002070B5054600F0C2FE064E0446AF
:1037F000B068844203D200F009F8012000E0002004
:1038000028602046B46070BD88000020F8B5194DCE
:1038100020E0C068C4680668201D00F01BF9216A1A
:103820002046884794F82800400713D5A069304403
:10383000B04206D924616060211DE86800F042F9B9
:1038400008E000200346014600903246204601F081
:1038500035F838B1E86801680029DAD12969C5E985
:103860000310F8BD502080F31188BFF34F8FBFF3D2
:103870006F8FFEE78800002008484068401C4FF02A
:10388000500080F3118804D0BFF34F8FBFF36F8FC8
:10389000FEE7BFF34F8FBFF36F8FFEE7C00000203E
:1038A000074CE068016841B1C0680021D0F8000011
:1038B000FFF728FFFFF7A8FEF3E701210020F7E755
:1038C000880000202DE9F041044600F01FF994F92A
:1038D000455004F1240609E0606A48B1304600F022
:1038E000F1FE08B100F05EFA6D1E6DB2002DF3DC42
:1038F0004FF0FF3684F8456000F028F900F006F933
:1039000094F9445004F1100709E0206948B13846A1
:1039100000F0D8FE08B100F045FA6D1E6DB2002D22
:10392000F3DC84F84460BDE8F04100F00FB900001A
:103930002DE9F0410546002700F0B2FA324E30681A
:1039400008B9FFF729FD706905424ED1C5B30835A6
:1039500068070ED005F00700C0F1080005446807AD
:1039600007D0502080F31188BFF34F8FBFF36F8FC4
:10397000FEE72DB37068854237D8234818300146DA
:103980000C6801E020460C466168A94202D2216819
:103990000029F7D131688C4227D00768216801607F
:1039A00060680837411B10290FD96019420708D0F9
:1039B000502080F31188BFF34F8FBFF36F8FFEE766
:1039C00013E041606560FFF7CFFD61687068401AE1
:1039D0007060B268904200D2B0607069014300200C
:1039E000C4E90001F068401CF06000F0A3FE780715
:1039F00007D0502080F31188BFF34F8FBFF36F8F34
:103A0000FEE73846BDE8F081A000002010B50400B4
:103A100006D000F07BF8E46900F098F8204610BD6D
:103A2000502080F31188BFF34F8FBFF36F8FFEE7F5
:103A300010B5031F4FF080741C601B1F21F00101A3
:103A40001960191F024B0B60143940380A6010BD11
:103A500079380008D0E9013201699A60D0E9012380
:103A60005A604A68824201D182684A60002202613B
:103A70000868401E0860086870470000034B036038
:103A800003F15C0008608020106070475C09002032
:103A9000044B036003F15C0008604FF48070106019
:103AA00070470000B80B002000F108014FF0FF3212
:103AB000C0E90112C160016100210160704700216D
:103AC0000161704730B50B685A1C02D000F1080242
:103AD00002E0026904E02246546825689D42FAD952
:103AE00053684B6099608A60516008610168491CA5
:103AF000016030BD42684A6093688B60936859608A
:103B0000916008610168491C01607047502080F392
:103B10001188BFF34F8FBFF36F8F0A494868401C6D
:103B2000486001280CD10848006810F0FF0F07D04A
:103B3000502080F31188BFF34F8FBFF36F8FFEE7E4
:103B400070470000C000002004ED00E0084948680C
:103B500028B1401E486001D180F311887047502081
:103B600080F31188BFF34F8FBFF36F8FFEE7000024
:103B7000C000002070B500282AD0164DA0F108041E
:103B800060686969084207D1502080F31188BFF34B
:103B90004F8FBFF36F8FFEE722683AB1502080F35A
:103BA0001188BFF34F8FBFF36F8FFEE788436060CC
:103BB00000F076F960686968084468602046FFF79D
:103BC000D3FC2869401C2861BDE8704000F0B2BDFC
:103BD00070BD0000A00000204FF0E0200021016136
:103BE000816105494FF47A720968B1FBF2F1491E0F
:103BF00041610721016170472400002010B5FCF7E6
:103C000035FB114910280ED300F1E02090F8F003A5
:103C10000A78904207D2502080F31188BFF34F8F6B
:103C2000BFF36F8FFEE709480068896800F4E06021
:103C3000884207D9502080F31188BFF34F8FBFF31C
:103C40006F8FFEE710BD0000C00000200CED00E00B
:103C500010B5084B002200BF53F832401CB1521C73
:103C6000082AF9D310BD43F8321003EBC2014860B3
:103C700010BD00004003002070B515460E460446F6
:103C8000FFF744FF94F944100020491C01D184F847
:103C9000440094F94510491C01D184F84500FFF710
:103CA00055FFA06B28B92A46314604F1240000F0E4
:103CB00097F82046BDE87040FFF704BE10B502003B
:103CC00014D00F48006B38B1502080F31188BFF337
:103CD0004F8FBFF36F8FFEE700F0E2F80021104630
:103CE000FFF734FA00F026FD002807D105494FF010
:103CF00080500860BFF34F8FBFF36F8F10BD00007F
:103D00004C00002004ED00E070B50D4604000BD01F
:103D100095B11E4A106BB8B1502080F31188BFF3E3
:103D20004F8FBFF36F8FFEE7502080F31188BFF3F2
:103D30004F8FBFF36F8FFEE7502080F31188BFF3E2
:103D40004F8FBFF36F8FFEE700F0AAF8D2682368A9
:103D50005919934204D98B420AD9914202D807E0FB
:103D60008B42FAD9881A21600021FFF7EFF900E0B1
:103D7000216000F0DFFC002807D105494FF080509A
:103D80000860BFF34F8FBFF36F8F70BD4C000020F2
:103D900004ED00E002490A6A0260C96841607047A8
:103DA0004C00002001490120C86170474C000020F0
:103DB00010B50C4650B1094909681831FFF782FE69
:103DC0002046BDE810400121FFF7C0B9502080F324
:103DD0001188BFF34F8FBFF36F8FFEE74C000020B9
:103DE00070B514460D4668B10A4909681831FFF7E5
:103DF00081FE0CB14FF0FF3521462846BDE87040EA
:103E0000FFF7A4B9502080F31188BFF34F8FBFF3A1
:103E10006F8FFEE74C00002030B587B0002403947C
:103E200005AA04A903A80494FFF728FEDDE903010D
:103E30000094CDE90110002315A11748059A00F060
:103E40005EFB164D0028E8621FD000F007FD012838
:103E500009D0401C19D1502080F31188BFF34F8F37
:103E6000BFF36F8FFEE7502080F31188BFF34F8FB1
:103E7000BFF36F8F4FF0FF30A86201206861EC60E4
:103E800007B0BDE8304000F045B807B030BD0000D5
:103E900049444C4500000000E53300084C00002078
:103EA0000248016B491C0163704700004C00002070
:103EB000164810B5016B11B10121C16110BD00217F
:103EC000C1610169124A01E0B9B1491E01EB8103E8
:103ED00052F82330002BF7D001EB810302EB830271
:103EE00002F1080453685B685360A34201D15B6828
:103EF0005360DA680260016110BD502080F31188C0
:103F0000BFF34F8FBFF36F8FFEE700004C00002020
:103F1000800300201CB5264908780190FF20087016
:103F200008788DF800009DF800009DF8002000F052
:103F3000F000904207D0502080F31188BFF34F8FDC
:103F4000BFF36F8FFEE79DF800001A4C00F05000A1
:103F500020700720A06005E09DF8002052008DF839
:103F60000020401E9DF800201206F5D4A060032812
:103F700007D0502080F31188BFF34F8FBFF36F8FAE
:103F8000FEE74FF44070A060019808700A4801688D
:103F900041F470010160016841F070410160FFF778
:103FA0001BFE00206060FCF72BF900201CBD000008
:103FB00000E400E0C000002020ED00E010B550203B
:103FC00080F31188BFF34F8FBFF36F8F00F0D6FAE5
:103FD00018B104494FF080500860002080F3118828
:103FE00010BD000004ED00E038B5049D18B153B1D8
:103FF000CAB181B120E0502080F31188BFF34F8F08
:10400000BFF36F8FFEE7502080F31188BFF34F8F0F
:10401000BFF36F8FFEE7502080F31188BFF34F8FFF
:10402000BFF36F8FFEE739B1502080F31188BFF3E3
:104030004F8FBFF36F8FFEE750241C46012384F897
:1040400046302B460094FFF7FDF9204638BD0000AE
:1040500070B50D46040025D0FFF758FDD4E90F20B8
:10406000216802FB0011A1600021A1632168616049
:104070000A46D4E90F01401E00FB0121E160214600
:104080004FF0FF3001F8440F487004F110008DB17B
:10409000FFF70AFD04F12400FFF706FDFFF756FDC8
:1040A000012070BD502080F31188BFF34F8FBFF304
:1040B0006F8FFEE721690029F0D000F003FB002894
:1040C000ECD004494FF080500860BFF34F8FBFF32E
:1040D0006F8FE3E704ED00E02DE9FF4782B01D4656
:1040E0008A464FF00008040003D0BAF1000F08D050
:1040F00011E0502080F31188BFF34F8FBFF36F8F13
:10410000FEE7206C38B1502080F31188BFF34F8F49
:10411000BFF36F8FFEE7022D0AD1E06B012807D0B5
:10412000502080F31188BFF34F8FBFF36F8FFEE7EE
:1041300000F010FA3F4F4FF000094FF0805648B999
:10414000049838B1502080F31188BFF34F8FBFF32C
:104150006F8FFEE7FFF7DAFCA06BE16B884207D3B5
:10416000022D05D00498D0B1B8F1000F1AD01EE08E
:104170002A4651462046FFF7BEF8616A19B104F19C
:10418000240000F09FFA20B13E60BFF34F8FBFF3D1
:104190006F8FFFF7DBFC012006B0BDE8F087FFF76B
:1041A000D5FC22E06846FFF7F5FD4FF00108FFF768
:1041B000CDFCFFF775FEFFF7A9FC94F94400401C05
:1041C00001D184F8449094F94500401C01D184F851
:1041D0004590FFF7BBFC04A9684600F029F930B10F
:1041E0002046FFF76FFB00F0A5FA0020D4E7FFF7A9
:1041F0008DFCA06BE16B884213D1FFF7A7FC04F1A3
:1042000010000499FFF7D4FD2046FFF75BFB00F098
:1042100091FA00289ED13E60BFF34F8FBFF36F8F9E
:1042200098E7FFF793FC2046FFF74CFB00F082FA7B
:1042300090E7000004ED00E02DE9F0471F469046AE
:104240008946040003D0B9F1000F08D011E05020D6
:1042500080F31188BFF34F8FBFF36F8FFEE7206CA1
:1042600038B1502080F31188BFF34F8FBFF36F8FA9
:10427000FEE7022F0AD1E06B012807D0502080F31F
:104280001188BFF34F8FBFF36F8FFEE7FFF7B6FCC8
:104290005020EFF3118680F31188BFF34F8FBFF3E7
:1042A0006F8FA06BE16B884206D3022F04D00020F1
:1042B00086F31188BDE8F08794F94550A06B3A4623
:1042C00049462046FFF717F8681C04D06D1C84F897
:1042D00045500120ECE7606A0028FAD004F1240080
:1042E00000F0F0F90028F4D0B8F1000FF1D001216E
:1042F000C8F80010EDE700002DE9F747002683B06D
:104300008A46040003D0BAF1000F08D011E0502013
:1043100080F31188BFF34F8FBFF36F8FFEE7206CE0
:1043200038B1502080F31188BFF34F8FBFF36F8FE8
:10433000FEE700F00FF9DFF8F4804FF000094FF0CE
:10434000805748B9059838B1502080F31188BFF3E1
:104350004F8FBFF36F8FFEE7FFF7D8FBA56BC5B19B
:1043600051462046FEF7B4FF6D1EA563206950B18B
:1043700004F1100000F0A6F928B1C8F80070BFF3EE
:104380004F8FBFF36F8FFFF7E1FB012006B0BDE851
:10439000F087059808B11EB106E0FFF7D7FB27E0CC
:1043A0006846FFF7F7FC0126FFF7D0FBFFF778FD23
:1043B000FFF7ACFB94F94400401C01D184F8449011
:1043C00094F94500401C01D184F84590FFF7BEFBED
:1043D00005A9684600F02CF8002820460AD0FFF70F
:1043E00071FA00F0A7F92046FFF700F90028B3D0D2
:1043F0000020CBE7FFF7FAF890B104F1240005990B
:10440000FFF7D6FC2046FFF75DFA00F093F900288D
:10441000A2D1C8F80070BFF34F8FBFF36F8F9BE737
:104420002046FFF74FFA00F085F995E704ED00E02C
:104430002DE9F0410C46050011D0C4B1FFF766FB31
:10444000174BDA686E682068911B471C17D02F68DD
:104450001B6A9F4219D0964217D8012410E05020C1
:1044600080F31188BFF34F8FBFF36F8FFEE75020AB
:1044700080F31188BFF34F8FBFF36F8FFEE70024E7
:10448000FFF764FB2046BDE8F081884205D9401A59
:1044900020602846FFF77EFCF1E700202060DCE783
:1044A0004C0000202DE9FF5F8346DDE90E87994629
:1044B00016468A469000FFF73BFA05001CD05C20A8
:1044C000FFF736FA040014D00020256384F8590061
:1044D000CDE90240CDE900874B4632465146584669
:1044E000FEF7C2FF2046FEF75FFE012004B0BDE8E4
:1044F000F09F2846FFF73EFB4FF0FF30F6E7F0B5A0
:1045000085B0DDE90B640A9DA6B1DCB15C2700979C
:104510002663022684F85960002604AFCDE90246DE
:10452000CDE90057FEF7A0FF2046FEF73DFE0498B8
:1045300005B0F0BD502080F31188BFF34F8FBFF35B
:104540006F8FFEE7502080F31188BFF34F8FBFF3CA
:104550006F8FFEE70548416919B1006B18B1002063
:104560007047012070470220704700004C00002077
:104570000148C068704700004C0000202DE9F04160
:104580002E4C0027206B28B1A069401CA061384642
:10459000BDE8F081E668761CE66013D1606B0068C8
:1045A00038B1502080F31188BFF34F8FBFF36F8F66
:1045B000FEE7606BA16B6163A063206A401C206210
:1045C000FFF700F9A06ADFF87880864209D3606BB4
:1045D0000068A0B1606BC068C5686868864211D287
:1045E000A0622068C06A00EB800158F82100012811
:1045F00000D90127E0690028C9D00127C7E74FF09B
:10460000FF30EDE7281DFFF725FAA86A18B105F17C
:104610001800FFF71FFAE86A2169884200D9206173
:1046200000EB800108EB8100291DFFF763FAE86ABF
:104630002168C96A8842CAD30127C8E74C00002014
:104640008003002070B504004FF0000133D01B4DF3
:104650002868844207D0502080F31188BFF34F8F21
:10466000BFF36F8FFEE7206D38B1401E2065E36C0D
:10467000E26A9A421FD040B11DE0502080F31188B9
:10468000BFF34F8FBFF36F8FFEE7201DFFF7E2F9F7
:10469000E06CE062C0F13800A061E06A29698842FC
:1046A00000D92861064900EB800001EB8000211D44
:1046B000FFF720FA0121084670BD00004C000020E1
:1046C0008003002070B5C068C46854B104F11800BC
:1046D0000646FFF7BFF9144D286B50B13146134819
:1046E00015E0502080F31188BFF34F8FBFF36F8F19
:1046F000FEE7201DFFF7AEF9E06A2969884200D97C
:1047000028610B4900EB800001EB8000211DFFF7C1
:10471000F1F9E06A2968C96A884202D90120E86192
:1047200070BD002070BD00004C0000200808002073
:10473000800300202DE9F0472C4D00242746286BEC
:1047400038B1FFF7E3F9286B401E2863286B40B1AE
:1047500046E0502080F31188BFF34F8FBFF36F8F77
:10476000FEE7A968224E0120D1B3A6F591698046E3
:104770003068E0B1F068C46804F11800FFF76AF926
:10478000201DFFF767F9E06A2969884200D928618E
:1047900000EB800109EB8100211DFFF7ABF9E06A16
:1047A0002968C96A8842E3D3C5F81C80E0E70CB1E8
:1047B000FFF708F8AC694CB14FEA0806FFF7DEFED8
:1047C00000B1EE61641EF9D10020A861E86938B13A
:1047D0000849012738070860BFF34F8FBFF36F8F79
:1047E000FFF7B4F93846BDE8F08700004C00002020
:1047F0000808002004ED00E02DE9FC4781461E4634
:10480000174688462C200A9DFFF792F804000AD02C
:10481000002084F82800CDE9005433463A4641464A
:104820004846FEF779FE2046BDE8FC877CB52C267D
:10483000DDE90654009644B1022684F82860CDE9EB
:104840000054FEF769FE20467CBD502080F311889D
:10485000BFF34F8FBFF36F8FFEE7000010B586B038
:10486000FEF70AFD114C2068B8B1002003900490B7
:1048700005AA04A903A8FFF70BF9DDE9032102202B
:104880008DE8070000230AA10B48059AFFF737FEC1
:10489000606010B106B0012010BD502080F3118877
:1048A000BFF34F8FBFF36F8FFEE70000880000203B
:1048B000546D722053766300A13800082DE9FF4142
:1048C0001E46134602000A9D4FF0000016D0144CFD
:1048D0002768002F0FD0CDE900130292062917DABE
:1048E000FFF738FE02284FF000030FD00022694680
:1048F0002068FFF7F1FB04B0BDE8F081502080F3A1
:104900001188BFF34F8FBFF36F8FFEE72A46EEE7A4
:104910000023324669463846FFF78EFCEBE700007D
:1049200088000020304A000800000000000000005D
:10493000000000000000000000020000180000005D
:1049400000000000000000004C4A000800000000C9
:104950000000000000000000000000000004000053
:10496000180000000000000000000000244A0008B9
:104970000000000000000000000000000000000037
:10498000000400000800000000000000000000001B
:104990003C4A000800000000000000000000000089
:1049A000010202030405060708090A0B0C0D0E0F8D
:1049B00010100000000000000000010203040607C0
:1049C00008090000000001020304000000000000CC
:1049D0004000000014000000540000005C4A000881
:1049E00000000000000000000000000000000000C7
:1049F000000200001800000000000000000000009D
:104A0000684A0008000000000000000000000000EC
:104A1000000000000004000018000000000000007A
:104A20000000000042555A5A45525F5441534B0012
:104A300064656661756C745461736B00456E636F79
:104A400064657254696D6572000000004C696E65A2
:104A500057616C6B696E675F5461730042757A7A57
:104A600065725461736B00004C696E6557616C6BC5
:104A7000696E675461736B00984A0008000000205B
:104A8000F40000006C0100088C4B0008F4000020CA
:104A900084210000880100080000000000000000E0
:104AA0000000000000000000000000000000000006
:104AB00001000000100000000000000000127A0059
:104AC00000000000000000000000000000000000E6
:104AD00000000000020000000000000000000000D4
:104AE00000000000000000000000000000000000C6
:104AF00000000000000000000000000000000000B6
:104B000000000000000000000000000000000000A5
:104B10000000000000000000000000000000000095
:104B20000000000000000000000000000000000085
:104B30000000000000000000000000000000000075
:104B40000000000000000000000000000000000065
:104B5000000000000000000000000000AAAAAAAAAD
:104B60000000000000000000000000000000000045
:104B70000000000000000000FFFFFFFF0000000039
:0C4B800000000000000000000000000029
:0400000508000131BD
:00000001FF
