:020000040800F2
:100000003012002019030008C9500008B94D00083B
:10001000C5500008A52100089D58000800000000F8
:100020000000000000000000000000004151000836
:10003000FD21000800000000D150000865510008B3
:1000400033030008330300083303000833030008B8
:1000500033030008330300083303000833030008A8
:100060003303000833030008330300083303000898
:10007000CD210008330300083303000833030008D0
:100080003303000833030008330300083303000878
:10009000A9210008B5210008C12100083303000888
:1000A0003303000833030008330300083303000858
:1000B000330300089151000833030008330300089C
:1000C0003303000833030008330300083303000838
:1000D00033030008795800083303000885580008E6
:1000E0003303000833030008330300083303000818
:1000F0003303000833030008330300083303000808
:1001000033030008330300083303000833030008F7
:1001100033030008330300083303000833030008E7
:1001200033030008D9210008E52100083303000843
:1001300033030008330300083303000833030008C7
:1001400033030008330300083303000833030008B7
:100150003303000833030008F12100089158000818
:100160003303000833030008330300083303000897
:1001700033030008330300083303000800000000C5
:10018000330300083303000800F002F800F0B5F86C
:1001900014A696E8000CB244B344DA4501D100F04D
:1001A000ACF8BAE80F000FA696E83000A5EB0405FE
:1001B00004EB0607AAEB0704A7F101074FEA1515A0
:1001C0004FEA3414A4F10104AC4201D300F095F8D5
:1001D00013F0010F18BFFB1A43F0010300F001F800
:1001E000DBE71847A8840000C8840000103A24BF49
:1001F00078C878C1FAD8520724BF30C830C144BF8C
:1002000004680C6070470000704700000023002461
:1002100000250026103A28BF78C1FBD8520728BF16
:1002200030C148BF0B6070476E2900F053837029BE
:1002300000F08984662908F0F580652908F0F280CD
:10024000672908F0EF80612908F0EE8003681B0A37
:1002500028BF41F08001692900F00083642900F083
:10026000FD82752900F0FA826F2900F01784782941
:1002700000F05584E92900F0B183E42900F0AE8351
:10028000F52900F0AB83EF2900F01484F82900F081
:1002900054840368DB0928BF41F08001632901F021
:1002A0007582732901F07A82E32901F08582F329AE
:1002B00001F08A82002070471FB508F0A1F89DE880
:1002C000030000F033FA01F0DDFB04000020002100
:1002D00007F0A6FC401C60600020002107F08AFCAB
:1002E000E06000F0FFFC00F011F91FBD10B5002028
:1002F00000F094FD00F05FFD10BD00F0BCFD114664
:10030000FFF7DAFF06F0D4FA01F04CFB03B4FFF775
:10031000EDFF03BC00F0E4F90948804709480047B5
:10032000FEE7FEE7FEE7FEE7FEE7FEE7FEE7FEE7A5
:10033000FEE7FEE704480549054A064B7047000002
:100340007D51000889010008300C00203012002087
:10035000300E0020300E002053EA020C00F06980BD
:100360002DE9F04B4FF00006002B1FBFB3FA83F5C9
:1003700003FA05F424FA05F65E4012BF1643B2FAFA
:1003800082F502FA05F4C5F120051EBF22FA05FC2C
:1003900044EA0C04203556EA044C4FEA144418BFD2
:1003A000641C4FF000084FF00009904271EB030C01
:1003B00039D3002919BFB1FA81F701FA07F6B0FA6B
:1003C00080F700FA07F6C7F120071EBF20FA07FCE6
:1003D00046EA0C062037B6FBF4FCA7EB0507103FF6
:1003E00007F01F0BCBF120062CFA06F60CFA0BFBDC
:1003F00044BFB3460026202FA4BF5E464FF0000B3B
:100400005BEA060C08BF4FF0010B19EB0B0948EB38
:100410000608ABFB027C06FB02CC0BFB03CCC01B2B
:1004200071EB0C01C1E70B46024641464846BDE868
:10043000F08B13B5084318BF4FF0FF300146AFF300
:100440000080BDE81C4070470B460146184600F08E
:1004500030B910B5203AC0F00B80B1E81850A0E8D0
:100460001850B1E81850A0E81850203ABFF4F5AF82
:100470005FEA027C24BFB1E81850A0E8185044BFDE
:1004800018C918C0BDE810405FEA827C24BF51F84B
:10049000043B40F8043B08BF7047D20728BF31F83F
:1004A000023B48BF11F8012B28BF20F8023B48BF90
:1004B00000F8012B70474FF0000200B51346944638
:1004C0009646203922BFA0E80C50A0E80C50B1F1AC
:1004D0002001BFF4F7AF090728BFA0E80C5048BFC0
:1004E0000CC05DF804EB890028BF40F8042B08BF5E
:1004F000704748BF20F8022B11F0804F18BF00F85A
:10050000012B7047704770477047000008487CB562
:100510007844009007487844009C0546019004E028
:100520002046016808448047241DAC42F8D17CBDB8
:10053000C4820000C282000070B5064600F0D6F802
:10054000056806F10B0020F00704B4429CBF0020B0
:1005500070BD2B466A68BAB11068A04210D304F18E
:10056000080188423CBF5068586007D35168101991
:1005700041601168091B016058601460101D70BD56
:1005800013465268002AE7D12146284600F0BAF8FF
:100590000028DED170BD70B50446051F00F0A6F836
:1005A0000068002C14BF446870BD002C18BFAC421A
:1005B0003CBF20466468F8D301680A18AA4218BFF5
:1005C000456003D12A680546114401602868411935
:1005D000A1421CBF6C6070BD6168696021680844FD
:1005E000286070BD2DE9F04791460C46804600F02A
:1005F0007DF80768604234EA000001D1042C02D281
:100600000520BDE8F087601E40F0070609F10B00E9
:1006100020F007054D4539D93B467A6882B3146806
:10062000101D404206EA000C644525D9A4EB0C00DD
:10063000854221D8BCF1000F0BD0104601686244FE
:10064000A1EB0C01116041685160C0F800C0586016
:100650000346116805F10800814205D35019491B72
:10066000016015605860034652F8040F586000207E
:10067000C8F80020BDE8F08713465268002ACED1A2
:100680002946384600F03EF80028C5D10620BDE8CE
:10069000F0870B460146184600F030B910B500202F
:1006A00000F0DDFBFFF722FEBDE81040012000F066
:1006B00017B82DE9F041074615460E461020FFF702
:1006C0003BFF04000AD06760C4E9026500F012F83D
:1006D0000168216004600020BDE8F0810120FBE793
:1006E00001491820ABBEFEE7260002000048704713
:1006F00024010020004870475401002070477047D3
:100700007047704738B504460A4600206946AFF383
:100710000080002808BF38BD02460099204600F03E
:10072000CFFB012038BD012001F069B9F8B5AFF366
:100730000080054600200C460C2000BF0646A81984
:10074000A0420DD9324669460020AFF30080070071
:1007500008BF01F054F90098A04218BF0546C4191B
:10076000FFF7C4FF05600746F01D20F0070046199B
:10077000284600F00AF8B44208BFF8BDA21B314673
:100780003868BDE8F84000F09BBB00210160416083
:1007900070470C20704770B5044685690068C10633
:1007A00001D5302600E02026C00707D070BDD4E96F
:1007B000012130469047206A401C20626D1EF6D50C
:1007C00070BD70B5044685690078C00707D170BD5B
:1007D000D4E9012120209047206A401C20626D1E30
:1007E000F6D570BD09684A0501D540B27047C90504
:1007F000FCD500B2704709684A0501D5C0B2704700
:10080000C905FCD580B2704770B50C460546012A73
:1008100005D02878800600D5EA69002302E001238C
:1008200005E05B1C934202D2E05C0028F9D1A86984
:10083000E618C01AA861286A184428622846FFF7FB
:10084000AAFF04E0D5E9012114F8010B9047B44256
:10085000F8D32846FFF7B5FF70BD00002DE9F04141
:100860000646002410687529314616A510D0FFF7FA
:10087000B9FF002802DA404213A507E031688A0771
:1008800001D512A502E0490704D511A5012401E014
:10089000FFF7B1FF00210A2206F1240709E0B0FBAF
:1008A000F2FCB0FBF2F302FB1C0030307854184627
:1008B000491C0028F3D123462A463046BDE8F041C2
:1008C00000F05DBB000000002D0000002B000000C8
:1008D0002000000011680268006A530501D5087005
:1008E0000AE0D30501D5088006E0130603D5C21738
:1008F000C1E9000200E0086001207047074B70B5B5
:100900000D467B4400F025FF0446284600F060FFBA
:1009100010B14FF0FF3070BD204670BDD1720000A5
:100920002DE9FF5F15468A460446DFF8AC80F8449F
:100930000027D8E900103E46CDE9001010E03AF853
:1009400016106A4602A801F009F8411C07D0217868
:10095000890603D5E269391891420DD80744761CFF
:100960002078800602D5E069B84205DDAE42E6DBBC
:100970003AF816000028E2D1A069C01BA061204609
:10098000FFF709FFD8E90010CDE90010002017E0BB
:100990003AF818106A4602A800F0E0FFB0F1FF3FF5
:1009A00081460BD000250DF1080B05E0D4E90121AB
:1009B0001BF8050090476D1C4D45F7D308F1010069
:1009C000B0428046E4DB206A384420622046FFF7CC
:1009D000F8FEBDE8FF9F0000FA7A00002DE9F04123
:1009E0008046D21D22F007020025D2E90002F52937
:1009F00015A614D0011E72F1000106DA0023D0EB17
:100A0000030063EB020211A608E0D8F800108B0780
:100A100001D50FA602E0490701D50EA60125114612
:100A2000002408F1240704E000F064FA30323A555B
:100A3000641C50EA0102F7D12B463246214640465B
:100A4000BDE8F04100F09BBA000000002D0000005E
:100A50002B0000002000000030B4002100F124042D
:100A600008E002F00705D208303542EA4372DB089D
:100A70006554491C52EA0305F3D10468002310A20F
:100A8000250708D504F020040C4304D0C4690123D1
:100A90000CA2641EC46130BC00F071BA10B50446EB
:100AA00021461068FFF7A7FE02462046BDE8104029
:100AB0000023D1E7D21D22F00701D1E90023CBE7C3
:100AC0000000000030000000F0B40D460188090568
:100AD00002D5214C7C4402E01F4C7C440E340021A2
:100AE00000F1240608E002F00F071209E75D42EA70
:100AF00003721B097754491C52EA0307F3D10278A9
:100B00000023120704D5702D06D009B10223113439
:100B10002246F0BC00F033BA01231034F8E770B578
:100B200004460D4621461068FFF765FE0246294639
:100B30002046BDE870400023C6E7D21D22F007031F
:100B4000D3E90023C0E70368126843F02003036081
:100B50000823C3610023B7E75C7900002DE9F05F4B
:100B6000894604464FF0000ADFF874B1FB44C0F830
:100B700020A02046E1688847002874D0252806D0A8
:100B8000D4E901219047206A401C2062F1E7002649
:100B90005F462046E16888472028054607DB312D5F
:100BA00005D2781910F8200C08B10643F1E7B00718
:100BB00001D526F00406C4F81CA00027C4F818A02C
:100BC0002A2D09D0284606F0FFFF38B304EB87082A
:100BD000303DC8F8185019E059F8041B204604EBC2
:100BE00087029161E1688847012F054618D1E069C5
:100BF000002820DA26F020061DE0D8F8180000EBC7
:100C0000800005EB40003038C8F818002046E16845
:100C10008847054606F0D8FF0028EED1012F0AD0FC
:100C20002E2D08D12046E16888477F1C0546022FFB
:100C300046F02006C4DBA069002803DA404246F0F3
:100C40000106A061F00701D026F010066C2D0BD034
:100C5000682D09D04C2D39D06A2D35D0742D35D062
:100C60007A2D33D016E038E0E1682F4620468847D9
:100C7000B842054609D16C2F26D04FF48060E16858
:100C8000064320468847054604E06C2F1AD04FF4EF
:100C9000807006430DB3A5F14100192802D8203514
:100CA00046F400664A462946204626604E46FFF72F
:100CB000BBFA80B101280BD0F61D26F0070000F129
:100CC000080956E74020E4E78020D8E70020D6E76F
:100CD00006F104094DE7284652E7206ABDE8F09F77
:100CE000EC78000010B542485421FFF7E4FB41487E
:100CF0005421FFF7E0FB40485421FFF7DCFB3F495C
:100D00003B483C4A3F4B08603D490A603A491960FC
:100D1000531C0365481C1065012008653B48344A94
:100D200039A1784400F07CFD20B9384878440A386D
:100D300000F05EFE37482F4A35A1784400F070FD80
:100D400020B9344878440A3800F052FE32482A4A22
:100D50002FA1784400F064FD20B92F4878440A3868
:100D600000F046FE40232248DC000021224600F02D
:100D700033FD20B125487844543800F039FE1D4831
:100D800022464023002100F027FD20B1214878446D
:100D9000543800F02DFE184822461023002100F0A0
:100DA0001BFD002806D01C487844BDE8104056388A
:100DB00000F01EBE10BD104870B5006D20F001049B
:100DC0000B4800F0A5FD0B4800F0A2FD0A4800F01A
:100DD0009FFD09E0206D20F00105204600F098FD00
:100DE0002046FFF7D8FB2C46002CF3D170BD000045
:100DF0002000002074000020C80000200000002017
:100E00000400002008000020720000004777000066
:100E100077000000337700001F7700002DE9F041D4
:100E20000646FFF767FC8046454613E016B1E068CA
:100E3000B0420ED120682860D4E90101D8F80070D2
:100E400088472046FFF7A7FBD8F80000B842EBD14F
:100E500000E025462C68002CE8D1BDE8F08110B5F3
:100E600000F0AEFDBDE8104000F0A5BD00487047A1
:100E70001C01002070477546FFF7F8FFAE460500DD
:100E80006946534620F00700854618B020B5FFF7A5
:100E900051FABDE820404FF000064FF000074FF038
:100EA00000084FF0000BAC46ACE8C009ACE8C00944
:100EB000ACE8C009ACE8C00921F007018D467047D5
:100EC000034640688C46002818BF88423CBF034652
:100ED0004068F8D318681844884207D00CF1030022
:100EE00020F00700001D411A521A0146081D0A6031
:100EF000FFF751BB30B5B0F10A0271F100034FEAC0
:100F0000900E4EEA817EB0EB0E0061EB91014FEA4C
:100F1000101E4EEA017E10EB0E0041EB11114FEA5C
:100F2000102E4EEA016E10EB0E0041EB11214FEA3C
:100F3000104E4EEA014E10EB0E0041EB11414018ED
:100F400041F100014FEAD00040EA41704FEAD1017F
:100F50004FEA810444EA907410EB800544EB0104ED
:100F60006D1944EB0404521BA3414FF0000348BF2A
:100F70000A3200D530BD401C41F1000130BD2DE9E1
:100F8000F0470D4699469246044600F12408016850
:100F9000880604D5E06921F01001216000E00120FD
:100FA000A84201DD471B00E00027A1697A1902EB86
:100FB0000900081AA0612078C00602D42046FFF775
:100FC000EAFB002608E0D4E901211AF80600904760
:100FD000206A401C761C20624E45F4DB2078C00657
:100FE0000AD52046FFF7D7FB06E0D4E901213020DF
:100FF0009047206A401C2062381EA7F10107F4DCEC
:1010000007E0D4E9012118F805009047206A401C48
:101010002062281EA5F10105F3DC2046FFF7D1FB75
:101020002078000602D50220BDE8F0870120FBE70A
:101030002DE9FF4F0C461E464FF0FF378BB0D2E92B
:101040000001DDF860800A908A46C1F30A5505B9AF
:101050003D46002108464FF00000BAF1000F00F4B1
:10106000400005DA00EB80004FF4400101EA500037
:101070004FEA9059B9F1010F00DDB9460A9850EADC
:101080004A000ED044F61050A5F2FF3545432F1408
:10109000B8F1000F1ED07542291E1EDDC9F10002F5
:1010A0001CE0B8F1010F4FF0000001D0302103E047
:1010B000F24305E02154401CB042FBDB30460022E5
:1010C000002121540B99C1F80880C1E900200FB01C
:1010D000BDE8F08FBD1B6D1CDEE74A4600DA6942B1
:1010E00006A800F013FD06AB93E8070003AB83E806
:1010F000070050460A9906F03CF98DE80700A0F574
:1011000000501F3800900398002D0ADD42F21F01A5
:101110004A460844002303A90390684606F0A6FB4C
:1011200009E0A0F500504A461F38002303A90390A8
:10113000684606F0B0FB8DE807000004000C03D001
:101140004FF0FF30410800E01046B8F1000F03D027
:101150000022009215461EE0751E05D4FFF7CAFE58
:10116000303262556D1EF9D5B3460122084302D0D4
:1011700000227F1C04E02078302801D100227F1E4D
:10118000002A099784D01DE0112D07DAFFF7B2FE7F
:10119000303262556D1C50EA0102F5D1084302D08D
:1011A0000098C8B10EE00021681E05E0235C625C77
:1011B00063542254401E491C8142F7DBAB46A81BF6
:1011C000401E0990002004F80B000B98099AC0F803
:1011D0000880C0E9002B7AE711264FF0000857E796
:1011E0002DE9F04F88460446D21D22F0070191B048
:1011F000D1E90001CDE90A0106F096FC02460B9800
:10120000C00F01D02D2007E02068810701D52B20D9
:1012100002E0202101EAC000032A099001D0072A38
:1012200005DB03464146204600F030FC0BE1207808
:10123000800601D5E06900E00620B8F1650F81461F
:1012400006D0B8F1660F18D0B8F1670F70D131E051
:101250000020B9F1110F009001DB112301E009F129
:1012600001030AAA01A90CA8FFF7E2FEDDE90C7050
:10127000002609F10105834647E001204B46009016
:101280004FF000470AAA01A90CA8FFF7D1FEDDE93B
:101290000DB00C995D46002610B909F101000D183A
:1012A000B9EB050003D4C0F1FF3609F10105A5EB48
:1012B00009002BE0B9F1010F01DA4FF0010900201C
:1012C000B9F1110F0090484601DD112300E00346FB
:1012D0000AAA01A90CA8FFF7ABFEDDE90C704D4688
:1012E00000268346207800070AD4AB4500DA5D4625
:1012F00001A8012D04DD411911F8011C302907D086
:101300004F4502DA17F1040F04DA012082460FE09C
:101310006D1EEEE7002F02DCED1B3E4403E0781C5F
:10132000A84200DD7D1CB81B00F1010A4FF0004708
:101330002078000703D4AA4501DB4FF0FF3A0021D3
:10134000B7F1004F0DF143088DF8431024D002206F
:101350002B23002F01DA7F422D230A21021EA0F148
:10136000010000DC5FB197FBF1FC97FBF1F201FBA0
:101370001C7C17460CF1300C08F801CDEEE7A8F103
:10138000010003702188090501D5452100E0652190
:10139000A0F1010800F8011C09980FA9A1EB0807AA
:1013A000FF1D00B10120411901EBEA70A169384429
:1013B000081A401EA0612078C00602D42046FFF71C
:1013C000EAF9099828B1D4E901219047206A401C24
:1013D00020622078C00622D52046FFF7DCF91EE007
:1013E000002E04DBB34502DD01A8805D00E0302063
:1013F000D4E901219047206A401C2062761CAAF1A2
:1014000001005FEA000A0AD100F03CFBC0680168F5
:10141000405CD4E901219047206A401C2062281ECC
:10142000A5F10105DCDC07E0D4E9012118F8010B86
:101430009047206A401C2062381EA7F10107F3DCA8
:101440002046FFF7BEF9032011B041E62DE9F04F29
:1014500004460D46D21D22F0070089B0D0E900975E
:101460004846394606F060FB0246F80F01D02D23AE
:1014700007E02068810701D52B2302E0202101EA43
:10148000C0038DF820300BB1012000E00020032ABA
:10149000824601D0072A04DB2946204600F0F6FAEE
:1014A0003FE12078800601D40D2500E0E569C7F30F
:1014B0000A560D2D49DA00214FEA175B08464FF016
:1014C0000000002F00F4400007DA00EB80004FF42A
:1014D000400100EBD07001EA60008115012901DDB7
:1014E0004FF0FF3100224FEA850CBCF1180F06D3F4
:1014F0001346ACF118004FF08052C24003E04FF4A5
:10150000801323FA0CF30CF10C0CBCF1200F04D364
:10151000ACF1200C09FA0CF001E007FA0CF00029FC
:101520004FF0004801DD18B90FE00ED140450CD353
:1015300019EB02095F4121B9404502D19F4329EAD5
:101540000209BBEB175F00D0761C2088000502D58E
:101550007B48784402E07A487844193808AA302356
:1015600002F80A30037C0AF10101002E0AF1020A96
:1015700053546A4602DC4FF0300101E04FF0310174
:101580004FF001088DF8001002D0A6F2FF3603E0FC
:1015900059EA470100D06B4E002D02DC2178090783
:1015A00004D54FF002082E218DF80110C446002109
:1015B0000BE0C7F303433F01C35C491C6D1E02F8F7
:1015C0000830052908F1010801DA002DF1DC0021BD
:1015D0000CE000EB1973491C1B786D1E082902F8FA
:1015E00008304FEA091908F1010801DA002DF0DC92
:1015F00021688B0602D516E0A8F10108E04505DD5B
:1016000002EB080313F8013C302BF5D0B8F1000FC2
:1016100009DD02EB080313F8013C2E2B03D1090767
:1016200001D4A8F10108002D05DD3E2102F80810C3
:101630006D1E08F10108407C002E02F8080008F138
:10164000010804DA2D20764202F8080002E02B207F
:1016500002F808000A214FF47A70864208F1010866
:101660000BDB96FBF0F3303302F8083096FBF0F317
:1016700008F1010800FB136601E0642E0CDB642016
:1016800096FBF0F3303302F8083096FBF0F308F1E4
:10169000010800FB136601E00A2E06DB96FBF1F061
:1016A000303002F8080008F1010896FBF1F001FB68
:1016B0001060303002F80800A16908F1010808EB59
:1016C000050202EB0A00081AA0612078C00602D4C5
:1016D0002046FFF760F8216A08AE01EB0A0020629D
:1016E00004E0D4E9012116F8010B9047BAF1010A90
:1016F000F7D22078C00602D52046FFF74CF86E4698
:1017000009E016F8010B3E280FD0D4E901219047DB
:10171000206A401C2062B8F10108F2D22046FFF78F
:1017200050F809B00320BDE8F08F206A28442062F9
:1017300003E0D4E90121302090476D1EEBD3F8E798
:10174000366F000002FCFFFF01694A1C0261087845
:10175000704700B58FB0CDE90131002105910549F1
:101760007944CDE9031011466846FFF7F7F90FB049
:1017700000BD0000E5FFFFFF10B5436913B1AFF3F3
:10178000008001E0FFF740F8012010BD127800F161
:1017900024010A7000224A700122EDE711684FF01F
:1017A000FF32E9E710B5436913B1AFF3008001E000
:1017B000FFF7B6F8012010BD128800F124018284E1
:1017C0000022C2840122EDE711684FF0FF32E9E701
:1017D000007B00F08000704770B5C468A50713D087
:1017E000650211D4B2F5807F09D0B2F5007F06D032
:1017F000B2F5806F08D1012300F1240106E05D1EDF
:101800006FF07F46B54201D3012070BD0161C36115
:10181000416024F470611143C160002070BD00007C
:101820002DE9F0410C461646070047D0104600F05F
:101830006FF82078611C61280AD0722802D07728BE
:101840003CD102E00125002405E00225042402E049
:10185000082448F2020511F8010B2B2806D0622853
:1018600009D011F8010C74280AD00BE045F00305EB
:1018700044F00204EFE745F0040544F00104EAE710
:1018800044F010043846214600F0C0F8411C15D041
:101890000021316171604FF40071F560F161706198
:1018A000200704D530460222002100F093FA306D63
:1018B00040F0010030653046BDE8F0810020FBE7D4
:1018C0002DE9F0410D460646104C206DC10704D0AD
:1018D000410804D020F00104F7E722460EE054202E
:1018E000FEF72AFE07000ED0206D47F001010843E5
:1018F000542120653846FEF7DEFD3A46294630463B
:10190000BDE8F0418CE70020D6E700002000002071
:101910002DE9F04704464FF0FF380026C568D4E9AA
:101920000497A80718D0204600F010FB384600F0B6
:1019300077F8002800DA4646280502D54846FEF723
:101940002AFE4C212046FEF7B6FD206D20F0010056
:1019500020653046BDE8F0874046FBE72DE9F041C1
:1019600016460C46054600F085F8036893F8010119
:10197000012807D0FF2C12D8185D80B101202C70EF
:10198000BDE8F081D3F807013246214603F2071380
:10199000C7182846BC46BDE8F041002360474FF019
:1019A000FF30EDE710B50446AFF300802046BDE8F8
:1019B0001040FEF7ABBC002801D0FEF791BE704787
:1019C00010B5002102A000F005FB012010BD0000B1
:1019D000534947414252543A2041626E6F726D61E1
:1019E0006C207465726D696E6174696F6E000000C1
:1019F00010B500F009FBBDE81040FFF7DCBF10B5E3
:101A000000F01CFBBDE81040FFF7D5BF0EB5CDE9D7
:101A1000000100F063FB029069460120ABBE0EBDE1
:101A200008B5694600900220ABBE08BD1FB58DE821
:101A3000070069460520ABBE04B010BD1FB58DE898
:101A40000F0069460620ABBEF6E708B56946009070
:101A50000920ABBE08BD1CB5CDE9000169460A20CE
:101A6000ABBE1CBD704708B5694600900C20ABBEEC
:101A700008BD000010B500F005F8001D10BD00BF46
:101A8000A1610000004870473C0100202DE9F041B1
:101A90001F46044603260168072A01F4006004DBA0
:101AA00008B116A505E016A503E008B115A500E0EC
:101AB00015A521F010002060A069C01EA0610FB123
:101AC000401EA0612046FEF766FE4FB1D4E9012119
:101AD00038469047206A401C2062C01C206206E005
:101AE000206AFAE7D4E9012115F8010B9047761E28
:101AF000F8D22046FEF765FEBDE8F0814E414E006B
:101B00006E616E00494E4600696E66002DE9F04731
:101B1000814616468AB0354878440DC88DE80D00D8
:101B200032487844801C03AC0DC884E80D0041F6AF
:101B30009B300844372190FBF1F290FBF1F5A5F1C1
:101B4000800501FB12041B3C02D56442012000E029
:101B50000020DFF898A080460027FA44AAF1BE0AC8
:101B60000EE0E0070AD03246684607EB4701012342
:101B70000AEB810105F08FFE8DE8070064107F1CE1
:101B8000002CEED1194F7F44AE3F19E0E80715D085
:101B900007EB04100DF1180A90E80E008AE80E0019
:101BA000C068F04201D1981908903246012306A975
:101BB00003A805F070FE03AB83E807006D10641CFA
:101BC000002DE3D14FF0010332466946B8F1000F12
:101BD00003A802D005F04AFE01E005F05CFEC9E969
:101BE0000001C9F808200AB0BDE8F087006A0000CB
:101BF0002DE9F05F054617460C46C86820F4201012
:101C000040F48000C860800602D5084600F0C1F9A3
:101C1000E06841F282014FF0FF3A0140022903D00F
:101C2000204600F053F9B9E000F42041B1F5004F2F
:101C30000FD1C00306D56168E06A884200D8084623
:101C4000606006E02069E06260606069FFF70BFF9A
:101C5000A061A0680022EEB200280DDAE1688B05D1
:101C60000AD4C043A06041F490302260E060606814
:101C7000411C61600670AAE0E0689146226040F471
:101C80000050E060206978BB6069FFF7DEFE04F178
:101C900024054FF00108A8B1A08910F4407F08D0B6
:101CA000E069FEF749FC206118B1E06840F400608B
:101CB00017E0C4F81C802561E06820F4407040F40F
:101CC00080600EE0E069FEF737FC00282061F0D06C
:101CD000E06840F4006010F4407FE06002D140F41E
:101CE0008070E06020696060E06825696FF0010B3A
:101CF000C1051ED56168E06A884200D80846411BCC
:101D000004D02246284600F0EBF8E8BB1FB1E5629C
:101D1000C4E9015959E0681CE0626060E069401E56
:101D2000A060E06840F48030E06030462E70BDE88E
:101D3000F09F17B100F480320AE06068411C6160D6
:101D40000670E0680A2E40F48030E06006D0002281
:101D5000E16A6068814203D90B4602E00122F7E79D
:101D60000346B4F80CC05B1B5FEA4C5C04D4D4F8A7
:101D70001CC09C4500DD02B3814200D80146002B07
:101D8000A1EB0008E56200E008E0C4E9015907DDC5
:101D900022461946284600F0A3F808B15046C6E787
:101DA000B8F1000F09D0A169E5626560A1EB0800F8
:101DB000A061E06840F01000E06047B16168A06990
:101DC000E562491B08446560A0615846AFE73046AC
:101DD000ADE700002DE9F041044616460D4647697F
:101DE000007B80072ED03846FFF72FFE50BB3EB356
:101DF000012E02D0022E25D104E0204600F04DF93C
:101E000005441DE03846FFF72EFEE168002841F04A
:101E10001001E16005DA204600F058F80120BDE825
:101E2000F081C9030BD56268E16A914200D811467E
:101E3000A26911442269891A814200DD08460544DD
:101E4000002D01DA0220EAE7E16A6068E268814277
:101E500006D29103E06203D522F4003141F0100272
:101E6000A6690027AE4213DCE16A814201D90B4624
:101E700000E0034603EB060C2369ACEB030CAC4516
:101E800006DD814201D98C4600E084469C4505D19F
:101E9000A760276042F02000A5620DE0AD1BE66957
:101EA000AE1B8142A66000D90846C01A281A2060DD
:101EB0005819606022F0200003490840E0600020CB
:101EC00084F84870ABE70000BFCFD7FFC16821F4AA
:101ED000001141F08001C160002181600160704704
:101EE0002DE9F74F15460C464FF0FF3B3848D768B1
:101EF000D2F814A0074209D05046A969FFF7ABFDFC
:101F0000002819DB3248C0430740EF604FF000491A
:101F10006FF000484C4501D3464600E02646009944
:101F20003B4650463246FFF781FDA96920F000424A
:101F3000B21A1144A96128B12846FFF7C7FF5846D5
:101F4000BDE8FE8FA41BE5D10020F9E770B504467B
:101F50000569C06A6168884200D80846E16821F4D2
:101F60002011E160C90312D5A84208D02246411BC6
:101F70002846FFF7B5FF10B14FF0FF3070BD0020CD
:101F8000E562C4E90150E06820F48030E0600020A0
:101F900070BD10B50446C06820F02000E060A16A62
:101FA000A06988420DD02046FFF7D0FFE06820F4FA
:101FB000405040F01000E060A06AA0612069E0623B
:101FC000606044F24001E0688843E06010BD0000BA
:101FD0001000020070B505460C460A2000E06D1C9A
:101FE00000F054F835B128780028F8D102E0641CDC
:101FF00000F04CF814B120780028F8D1BDE870400A
:102000000A2000F043B8000010B5014602A0FFF717
:10201000E1FF012010BD000053494752545245448E
:102020003A2052656469726563743A2063616E2771
:1020300074206F70656E3A200000000010B5012812
:1020400005D0002103A0FFF7C5FF012010BD09A1A5
:10205000F8E7000053494752544D454D3A204F751B
:1020600074206F662068656170206D656D6F727990
:10207000000000003A2048656170206D656D6F7248
:102080007920636F727275707465640008B5694673
:102090008DF800000320ABBE08BD10B50146C26834
:1020A000900703D0900607D5886A0AE000F076F81A
:1020B00001210160881E10BD8B69486818440B69B6
:1020C000C01A91F848301BB191F84910401A10BD60
:1020D0001103FCD50028FADD401E10BD10B5431CCD
:1020E00002E010F8011B71B18107FAD14FF0013203
:1020F00002C88C1A8C4314EAC211F9D0C01A0A061D
:1021000003D0C01E10BDC01A10BD0A0401D0801E2D
:1021100010BD0902FCD0401E10BD000000000000F0
:1021200030B44FF0013C50F8042B51F8043BCCFA8A
:1021300052F4D51A20D1FCB950F8042B51F8043BC5
:10214000CCFA52F4D51A17D1B4B950F8042B51F87F
:10215000043BCCFA52F4D51A0ED16CB950F8042BCA
:1021600051F8043BCCFA52F4D51A05D1002CDAD040
:1021700030BC4FF00000704729BAB1FA81F111F07C
:102180001801D1F120008440F2D1CA40CB4012F0B6
:10219000FF0213F0FF0330BCD01A704700487047AD
:1021A0001C010020FEE7000040F26840C2F200007F
:1021B00000F0C0B940F26840C2F2000000F0BAB9C5
:1021C00040F26840C2F2000000F0B4B940F278502A
:1021D000C2F2000000F0BABC40F2D850C2F20000D7
:1021E00000F0B4BC40F2B840C2F2000000F0AEBC57
:1021F00040F21850C2F2000000F0A8BC7047000086
:1022000072B6000090F82020013A012A08D8006830
:1022100000F114020020136819431160704700BFD9
:1022200000F1240201204FF480211368194311604A
:102230007047000010B590F820E0D0F800C0AEF173
:10224000010EBEF1010FDCF808E011D81EF0E05FCE
:1022500018D0CEF301640120A04018608B68DBB178
:10226000D1F804E0C86840EACE0040EA030E17E067
:1022700000F1240301204FF480211A6811431960F2
:1022800010BD00BF00F1240301204FF400111A68B3
:102290001143196010BD00BF0868CB6843EA405E77
:1022A0000CF5C07000EB0413240140F804E00C6945
:1022B000184640F8044F097D012903D1016841F413
:1022C0008071016050680121D8601068986000201A
:1022D0001A681143196010BD90F82020013A012AB4
:1022E00030D8B0B546F20060C4F20000026842F097
:1022F00001020260026822F47C520260D1F814E00C
:10230000CC694A6A0368012C43EA022202600EF09B
:102310001F024FF0010303FA02F2C3696FEA020CD5
:1023200023EA0203C36113D02CBBC36803EA0C0386
:10233000C360CB688C8844EA034300EBCE0423647B
:102340000B4611E0416A41F480214162012070474F
:10235000C3681343C3600B688C8844EA034300EBF3
:10236000CE04236401F10C038C681B8843EA044308
:1023700000EBCE04636443688D6943EA0204D1F83C
:1023800010E0096A002D08BF03EA0C0444604369A9
:10239000BEF1000F43EA020408BF03EA0C0401295E
:1023A000446102D1C1691143C161016821F0010199
:1023B00001600020B0BD00007047000090F82020B0
:1023C000013A012A84BF00207047006810220029CA
:1023D00008BF0C22805800F003007047B0B590F899
:1023E0002040013C012C7DD8D0F800C000290CBF52
:1023F000DCF80C40DCF81040A4077DD00CF5D87553
:102400004FEA011C55F80C4014F00404946055F890
:102410000CE005EB011C19BF4FEADE0555604FEAE1
:102420005E551560DCF80050E64605F00205D56003
:102430005EF8044F24075ABFDEF8004004F00F0492
:1024400008241461DEF800400029C4F307249461D5
:10245000DEF800504FEA15455561DCF808201A7087
:10246000026802EB0112D2F8B8214FEA12225A7028
:10247000026802EB0112D2F8B8214FEA12429A70B8
:10248000026802EB0112D2F8B8214FEA1262DA7048
:10249000026802EB0112D2F8BC211A71026802EB49
:1024A0000112D2F8BC214FEA12225A71026802EBE3
:1024B0000112D2F8BC214FEA12429A71026802EB73
:1024C0000112D2F8BC214FEA1262DA7100680CBF27
:1024D00000F10C0100F11001002020220B681A43CA
:1024E0000A60B0BD00F1240101204FF480220B6886
:1024F0001A430A60B0BD00BF00F1240101204FF46F
:1025000000120B681A430A60B0BD000090F820105A
:102510000139012984BF0020704700688168826802
:102520008068C1F38061C2F3C0621144C0F30070DF
:10253000084470472DE9F04F81B0044600684669B1
:10254000D0F804908768D0F80CB0D0F810A0D0F87C
:102550001880F10704D1002530071DD424E000BF06
:10256000F90710D00121BA07816009D4780700F17A
:10257000AF80380700F1B680204600F07FFA02E015
:10258000204600F07DFA0025F80500F18780F80369
:1025900000F1B180300707D51BF0100004D020688F
:1025A00045F400751021C160700708D51BF00800C4
:1025B00005D020680821C160204600F00DFAB00760
:1025C00006D52068C068800702D0204600F006FAD1
:1025D000700607D51AF0100004D0206845F4806515
:1025E00010210161B00608D51AF0080005D0206856
:1025F00008210161204600F00DFAF00606D520689A
:102600000069800702D0204600F006FAB00308D522
:1026100019F0100005D0206810214160204600F01C
:10262000FDF9F00308D519F0080005D0206808214D
:102630004160204600F02EFA300440F19B805FEAB2
:10264000497040F1948006F4807008EA1020284315
:102650005FEA8871014648BF41F00201B20558BFE8
:1026600001465FEA48700D4648BF45F00405700515
:1026700058BF0D46300540F17A8018F0700000F028
:1026800076801038000905286CD8DFE800F0036573
:102690005D61596945F0080564E000BF20684FF4AA
:1026A0008071BA0581600BD4780515D438051DD426
:1026B000204600F0E7F9F8037FF56CAF1BE000BFA0
:1026C000204600F0E1F9F8037FF564AF13E000BFA6
:1026D0004FF4006558E700BF05F50055F8037FF596
:1026E00059AF08E04FF480554EE700BF05F580452F
:1026F000F8037FF54FAF20684FF48031BA03816053
:102700000AD4780310D4380314D4204600F0BEF95C
:1027100030073FF541AF47E7204600F0B9F93007F1
:102720003FF53AAF40E700BF05F5004530073FF5FC
:1027300033AF39E705F5803530073FF52DAF33E787
:1027400045F080050EE000BF45F020050AE000BF1F
:1027500045F0400506E000BF45F0100502E000BF6F
:1027600045F480752068816921F0700181612068DD
:102770000421416055B1606A40EA0501204661626A
:1027800001B0BDE8F04FFFF717BE00BF01B0BDE8D4
:10279000F08F0000002804BF01207047B0B5044648
:1027A00090F8200010B9204600F06EF8206801680B
:1027B00041F00101016000F07FFC0546206841689E
:1027C000C90705D100F078FC401B0B28F6D310E0B8
:1027D000016821F00201016000F06EFC054600BFB7
:1027E0002068416889070DD500F066FC401B0B2866
:1027F000F6D3606A052140F400306062012084F85D
:102800002010B0BD217E0268012922F0800208BF9D
:1028100080320260617E0268012922F0400208BF16
:1028200040320260A17E0268012922F0200208BF26
:1028300020320260E17E0268012922F0100218BFF6
:1028400010320260217F0268012922F0080208BFCD
:1028500008320260617F0268012922F0040208BF89
:1028600004320260D4E901C2D4E9033561691A4334
:102870002A431143ACF101021143C161002001213F
:10288000606284F82010B0BD80B586B0006846F65E
:102890000002C4F2000200219042CDE90411CDE90A
:1028A0000211019156D046F20041C4F20001884263
:1028B00040F0908040F21031C2F200010A6843F605
:1028C0004000C4F20200531C0B6052B90021009179
:1028D000016841F000710160016801F00071009130
:1028E00000990021009150F8102C42F0080240F8A5
:1028F000102C50F8100C022200F0080000900098F4
:102900000320019004900920059040F20040C4F299
:102910000200CDE9022100F5006001A900F0FCFAF7
:1029200014200521002200F04FFC142000F03AFC96
:1029300015200521002200F047FC152000F032FC94
:1029400016200521002200F03FFC162000F02AFC92
:1029500006B080BD43F64000C4F202000091016859
:1029600041F080610160016801F08061009100998F
:1029700040F21031C2F200010A68531C0B6052B9D8
:1029800000210091016841F000710160016801F0CF
:102990000071009100990021009150F8102C42F034
:1029A000020240F8102C50F8100C00F002000090C9
:1029B000009842F2200001900220CDE9020103209C
:1029C00004900920059040F20040C4F2020001A9E1
:1029D00000F0A2FA06B080BD7047000080B586B056
:1029E00003F0F2FC01688A680021904701684A6997
:1029F0006946904758B10298A0F20520012806D8F0
:102A000040F21830C2F20000694603F097FB06B0AE
:102A100080BD000070470000704700007047000054
:102A2000B0B5044690F8200001281DD1022084F89A
:102A300020002068016821F00101016000F03CFBEA
:102A4000054600BF20684068C00713D000F034FB83
:102A5000401B0B28F6D3606A40F40030606205200A
:102A600084F820000120B0BD606A40F4002060625C
:102A70000120B0BD00206062B0BD000070470000C2
:102A8000704700007047000070470000704700006A
:102A9000704700007047000070B5866D044600F076
:102AA0000BFB94F83510022928D105462068216CCB
:102AB000026822F016020260426922F0800242613E
:102AC00009B9A16C19B1016821F008010160016820
:102AD00021F00101016000BF20680068C00715D027
:102AE00000F0EAFA401B0628F6D320206065032098
:102AF00084F83500002184F8341070BD80206065B2
:102B00000120002184F8341070BD00BFE06D3F212A
:102B100001FA00F0B060012084F8350000200021A7
:102B200084F8341070BD000090F83510022909D1E6
:102B3000052180F835100068016821F0010101606D
:102B4000002070478021416501207047F0B581B0B9
:102B50000021009140F21401C2F200010B68D0E99B
:102B6000166148F2B51537680822C1F64E358A401D
:102B70003A42A3FB05350CD003681C68640708D5EE
:102B80001C6824F004041C60B260426D42F0010233
:102B9000426501228A403A4208D003685B691B06FD
:102BA00004D5B260426D42F00202426504228A40BE
:102BB0003A4208D003681B689B0704D5B260426D97
:102BC00042F00402426510228A403A4219D001685C
:102BD0000B681B0715D5B2600B680A685B0309D444
:102BE000D20509D40A6822F008020A60016C29B9EA
:102BF00007E000BF110341D4016C11B104468847BE
:102C00002046C26D202101FA02F33B4243D0016805
:102C10000F68FF063FD5B36090F835700B68052F3D
:102C20001CD123F016030B604B6923F080034B612A
:102C3000036C0BB9836C1BB10B6823F008030B60AA
:102C40003F219140B160012180F83510016D0022D3
:102C5000002980F8342054D158E000BF0A685B0393
:102C600010D4D20512D40A6822F010020A600121A1
:102C700080F83510002180F8341007E0816C0029BD
:102C8000BCD1BEE7110301D4416C00E0C16B11B1AE
:102C9000044688472046416DC1B3416DC9072ED017
:102CA000052180F835100168AA0A0B6823F001039A
:102CB0000B60009B0133934200931AD80B68DB072B
:102CC00017D0009B01339342009312D80B68DB07A7
:102CD0000FD0009B0133934200930AD80B68DB07A7
:102CE00007D0009B01339342009302D80B68DB07A7
:102CF000DFD1012180F83510002180F83410C16C3B
:102D000021B101B0BDE8F040084700BF01B0F0BDFF
:102D10002DE9F041044600F0CFF9ECB10546022060
:102D200084F835000020216884F83400086820F019
:102D30000100086021680868C00711D000F0BCF9E4
:102D4000401B0528F6D9032520230320636584F85A
:102D50003550BDE8F08100BF0120BDE8F08100BF23
:102D6000086848F23F02CFF21002D4E9013500EAC8
:102D7000020C04F10C0898E8C10143EA0C032B4350
:102D80001843D4E9072E304338431043626A40EABF
:102D90000E00042A40EA08031CD1206BD4E90A2E55
:102DA00040EA0E00184308604869BEF1000F20F0A9
:102DB000030040EA020040F0040C11D0B8F5005FB7
:102DC00036D0B8F1000F45D1022A46D0012A3BD0B7
:102DD00032B942E00B60486920F0070040EA020C7B
:102DE00001F0F8004AF6AB221038CAF6AA22A0FB7E
:102DF00002231A0948F2AC53C1F814C0C0F600030C
:102E00009A5C40F2FF335F284FF03F0021EA030154
:102E100000FA02F088BF0431C4E91612886000236A
:102E200001250020636584F83550BDE8F08100BFBE
:102E3000032AD5D8012540230120DFE802F0030E44
:102E4000030500BF82E700BFAEF1C070B0FA80F0AA
:102E5000400904E0032A04D3C2D1CEF30060002865
:102E6000BED0012540230120636584F83550BDE8BC
:102E7000F081000090F834C0BCF1010F04BF0220C3
:102E8000704770B54FF0010C80F834C0D0F858E0AE
:102E900090F835C0BCF1010F38D14FF0020C80F82A
:102EA00035C04FF0000CC0F854C0D0F800C08468A2
:102EB000056CC06DDCF80060402C26F48026CCF850
:102EC0000060CCF804300B4604BF13460A463F218D
:102ED00001FA00F0CCF80830CCF80C20CEF808004D
:102EE000DCF8000040F01600CCF800002DB1DCF852
:102EF000000040F00800CCF80000DCF8000040F0D2
:102F00000100CCF80000002070BD00BF002180F857
:102F10003410022070BD00002DE9F04F83B000F1A5
:102F2000200200F13E4741F60045009207F1FF778D
:102F3000C4F2020508224FEAB726A84208BF0722BA
:102F400000254FF000084FF00009072E38BF4FEA68
:102F5000B72201920AE000BF09F1010908F1020855
:102F6000B9F1100F05F1040500F0A2800F680122ED
:102F700002FA09FE17EA0E0AEED0D1F804C00322C5
:102F80000CF003077E1E02FA08F4012E6FEA040B10
:102F900012D88468CE6804EA0B0406FA08F63443B3
:102FA0008460446824EA0E06CCF3001404FA09F4A1
:102FB0002643466004E000BF032F01D103271EE033
:102FC000C6688C6806EA0B0604FA08F42643022F4A
:102FD000C66014D16FF00302009E02EA590756F84A
:102FE00007C005F01C040F220B69A2402CEA020264
:102FF000A3401A43F251D1F804C00CF00307026851
:1030000007FA08F302EA0B021A431CF4403F02607D
:10301000A2D0002243F644030292C4F202031A68CB
:1030200043F6004442F480421A601A68C4F2010474
:1030300002F480420292029A29F003024FF6084CF1
:103040002244CFF6FF7C52F80C3005F00C070F2617
:10305000BE40B343019E06FA07F73B4342F80C30EB
:10306000A2684B6842EA0A0743F60C4CDE0258BFDE
:1030700022EA0A07A760C4F2010CDCF800209E02D5
:1030800042EA0A0758BF22EA0A07CCF800706268D1
:103090009E0342EA0A0758BF22EA0A0767602268CD
:1030A000DB0342EA0A0758BF22EA0A07276053E710
:1030B00003B0BDE8F08F000040F6D810C2F2000067
:1030C0000068704740F20C0040F6D811C2F20000D0
:1030D000C2F2000100780A681044086070470000DE
:1030E00080B543F60040C4F20200016841F400716B
:1030F0000160016841F480610160016841F4807100
:103100000160032000F08CF80F2000F005F800F0BB
:1031100027F8002080BD000070B540F20C06C2F216
:10312000000640F214013278C2F200014FF47A73C3
:103130000968B3FBF2F20446B1FBF2F1084600F075
:1031400065FB0F2C4FF0010508D838B94FF0FF3060
:1031500021460022002500F037F87460284670BD33
:1031600082B0002043F640010190C4F202014A6897
:1031700042F480424A604A6802F480420192019A15
:1031800000900868002240F08050086008680F2115
:1031900000F08050009000986FF0010002B000F045
:1031A00013B80000002848BF704700F01F0101223B
:1031B00002FA01F11C2202EAD0004EF20012CEF215
:1031C000000281507047000010B54EF60C5CCEF244
:1031D000000CDCF80030C3F3022E8EF00704042C40
:1031E00028BF0424BEF103034FF0FF3E0EFA04F49F
:1031F00038BF0023A14399400EFA03F39A431143C9
:1032000000F00F0200F160430901043A03F5644342
:103210006244002848BF02F10C03197010BD000081
:103220004EF60C51CEF200010A684FF6FF031A4029
:1032300060F30A2242F0806040F0FD700860704741
:10324000002804BF012070472DE9F04143F608082B
:10325000C4F202080446D8F8F8030D4600F007004F
:10326000884207D288F8F853D8F8F80300F007002E
:10327000A84277D12068810717D5410705D5D8F82E
:10328000001041F4E051C8F80010010705D5D8F846
:10329000001041F46041C8F80010D8F80010A2688E
:1032A00021F0F0011143C8F80010C00740D1D8F850
:1032B000F80300F00700A84207D988F8F853D8F8B7
:1032C000F80300F00700A8424CD12068410707D559
:1032D000D8F80010E26821F4E0511143C8F800105A
:1032E000000708D5D8F80000216920F4604040EAC2
:1032F000C100C8F8000000F07DF8D8F8001048F2CE
:103300003452C1F30311C0F60002515C40F21402C2
:1033100020FA01F140F21000C2F200000068C2F28F
:1033200000021160FFF7F8FE0020BDE8F08100BF49
:103330006068811E022907D258F8081C89015CBF09
:103340000120BDE8F08111E0012807D158F8081CE0
:1033500089035CBF0120BDE8F08107E058F8081C34
:10336000890703D40120BDE8F08100BFD8F8001020
:1033700021F003010843C8F80000FFF79DFE064650
:1033800041F28837D8F80000616800F00C00B0EB1B
:10339000810F8CD0FFF790FE801BB842F2D903203A
:1033A000BDE8F08140F2140043F60801C2F20000CB
:1033B000C4F202010068096848F24452C1F3822154
:1033C000C0F60002515CC8407047000040F2140093
:1033D00043F60801C2F20000C4F202010068096865
:1033E00048F24452C1F34231C0F60002515CC84079
:1033F0007047000010B543F60404C4F2020460688C
:1034000000F00C0008280BD0042819BF42F200403D
:10341000C0F2F40041F60030C0F2B70010BD00BFAA
:10342000206821682368490241F60031C0F2B701E3
:1034300000F03F02C3F388105CBF42F20041C0F2CB
:10344000F401A1FB00010023FCF786FF21680222A2
:10345000C1F3014102EB4101B0FBF1F010BD0000EE
:10346000002804BF012070472DE9F04182B00446D6
:10347000007843F60006C007C4F202060CD0B0681C
:1034800000F00C00042840F081803068800303D5F0
:103490006068002800F06881207880071BD5B0683C
:1034A00010F00C0F09D0B06800F00C00082840F0B4
:1034B00087807068400200F183803068800703D500
:1034C000E068012840F050813068216920F0F80060
:1034D00040EAC10030602078000713D4207840070C
:1034E0002AD4A569002D00F03A81B06800F00C00E4
:1034F000082840F0A580012D40F00E81012002B087
:10350000BDE8F0816069002800F082800020C4F2EC
:1035100047200121C0F8801EFFF7CEFD054600BF01
:10352000706F8007DAD4FFF7C7FD401B0228F7D978
:10353000032002B0BDE8F081306C5FEAC0080AD415
:1035400000200190306C40F080503064306C00F00E
:1035500080500190019847F20007C4F200073868D4
:10356000C00547D4386840F480703860FFF7A4FD88
:10357000054600BF3868C0053CD4FFF79DFD401BE1
:103580000228F7D9032002B0BDE8F081B06800F04E
:103590000C00082803D1706840023FF576AF6168DF
:1035A0003068B1F5803F07D0B1F5A02F40F09A8088
:1035B00040F480203060306840F4803030609AE021
:1035C000E068002840F20000C4F247205CD00121EE
:1035D0000160FFF771FD0546306880073FF574AF65
:1035E000FFF76AFD401B0228F6D9032002B0BDE8B0
:1035F000F08100BFA168306F012905D0052955D1A0
:1036000040F004003067306F40F00100306756E052
:103610000020C4F247200021C0F8801EFFF74CFDB7
:10362000054600BF706F80077FF558AFFFF744FD78
:10363000401B0228F6D9032002B0BDE8F08100BF8C
:103640000027C4F2472700203866FFF735FD022D1A
:1036500005460DD13068800140F18A80FFF72CFDCE
:10366000401B02284FF00300F4D902B0BDE8F081FE
:103670003068800173D5FFF71FFD401B02284FF013
:103680000300F5D9F1E700BF00210160FFF714FD49
:10369000054600BF306880077FF51DAFFFF70CFDC2
:1036A000401B02284FF00300F4D9DEE720F00100B0
:1036B0003067306F002920F0040030677AD0FFF7C0
:1036C000FBFC054641F28837306F800700F18480AB
:1036D000FFF7F2FC401BB842F6D9032002B0BDE868
:1036E000F08100BF20F4803030603068002920F481
:1036F000802030607AD0FFF7DFFC05463068800319
:103700003FF5CAAEFFF7D8FC401B6428F6D903206A
:1037100002B0BDE8F08100BF7068E16900F480028A
:103720008A4221D1216A00F03F028A421CD147F629
:10373000C071626A0140B1EB821F15D1A16A4FF6D8
:10374000FF73C903994300F44032A1F580318A42E6
:103750000AD1E16A00F07060B0EB016F04D1002083
:1037600002B0BDE8F08100BF012002B0BDE8F081E9
:1037700004F11C052FCD084340EA8210D9034FF60F
:10378000FF729143A1F5803140EA05600843706003
:1037900001203866FFF790FC044600BF30688001C6
:1037A000DDD4FFF789FC001B02284FF00300F5D998
:1037B0005BE700BFFFF780FC054641F2883700BF9A
:1037C000306F800708D5FFF777FC401BB8424FF0F9
:1037D0000300F5D949E700BFB8F1000F3FF581AE0E
:1037E000306C20F0805030647BE600BFFFF764FC53
:1037F000054600BF306880037FF54EAEFFF75CFCE6
:10380000401B64284FF00300F4D92EE7411E00202E
:10381000B0EB116F1CBF012070474EF21002CEF2C8
:10382000000251604EF62351CEF20001F0230B70DE
:1038300007219060116070477047000070470000DA
:1038400090F83C20012A4FF0020254D010B580F8C5
:103850003D200268D2F804E0D2F808C00C682EF0CF
:103860007003234341F2FF74C4F20004A242536088
:103870000EDC40F2FF73C4F200039A4216DCB2F190
:10388000804F2BD040F20043C4F2000324E000BF7D
:1038900040F2FF33C4F201039A4213DC41F6000305
:1038A000C4F200039A4219D0002313E040F600034B
:1038B000C4F200039A4211D040F60043C4F2000360
:1038C0000AE000BF44F20003C4F201039A4205D0AB
:1038D00040F20043C4F201039A4204D149682CF03B
:1038E0008003194391600121002280F83D1080F887
:1038F0003C20BDE81040104670470000002804BF7F
:103900000120704710B5044690F83D0028B900200A
:1039100084F83C00204600F01FF8022084F83D00A7
:103920002068211D01F03AFC012084F8460084F84B
:103930003E0084F83F0084F8400084F8410084F899
:10394000420084F8430084F8440084F8450084F879
:103950003D00002010BD000080B582B0006840F638
:103960000001C4F20001884220D040F20041C4F2BC
:103970000001884229D10020019043F64000C4F2A2
:1039800002000168002241F0020101600068052187
:1039900000F00200019001981D20FFF715FC1D208A
:1039A00002B0BDE88040FFF7FDBB00BF00200090E3
:1039B00043F64000C4F20200016841F004010160D6
:1039C000006800F004000090009802B080BD000084
:1039D00090F83D1001291CBF01207047022180F89A
:1039E0003D10006841F2FF72C168C4F200029042CB
:1039F00041F00101C1600DDC40F2FF71C4F2000131
:103A0000884215DCB0F1804F2AD040F20041C4F268
:103A1000000123E040F2FF31C4F20101884213DCCF
:103A200041F60001C4F20001884219D0002113E0E0
:103A300040F60001C4F20001884211D040F6004176
:103A4000C4F200010AE000BF44F20001C4F2010127
:103A5000884205D040F20041C4F20101884206D1FB
:103A6000816801F00701062904BF00207047016842
:103A700041F00101016000207047000090F83C20F7
:103A8000012A4FF002026CD080B580F83D20D0F8BA
:103A900000C04FF67772DCF8083023EA0202CCF857
:103AA00008200B684F2B29DC1F2B45DD202B46D02F
:103AB000302B44D0402B40F0AF80D1F804E0C968EF
:103AC000DCF82030DCF8202022F00102CCF82020A5
:103AD000DCF8182022F0F00242EA011123F00A0279
:103AE00042EA0E02CCF81810CCF82020DCF80810BE
:103AF00041F0470121F0300128E000BF6F2B33DD9A
:103B0000B3F5005F74D0B3F5805F21D0702B40F027
:103B10008380D1E901E3C968DCF8082043EA0E0399
:103B200022F47F4243EA01211143CCF80810DCF86B
:103B3000081041F0770109E00BB1102B6CD1DCF8D3
:103B4000081021F07001194341F00701CCF808106A
:103B50000022012180F83D10002180F83C10BDE8D2
:103B600080401046704700BF502B21D0602B53D1AE
:103B7000D1F804E0C968DCF82030DCF8202022F01D
:103B80001002CCF82020DCF8182022F4704242EA1F
:103B9000013123F0A00242EA0E12CCF81810CCF842
:103BA0002020DCF8081041F0670121F01001CDE77A
:103BB000D1F804E0C968DCF82030DCF8202022F0DD
:103BC0000102CCF82020DCF8182022F0F00242EAB2
:103BD000011123F00A0242EA0E02CCF81810CCF8C8
:103BE0002020DCF8081041F0570121F02001ADE75A
:103BF000D1E901E3C968DCF8082043EA0E0322F4A6
:103C00007F4243EA01211143CCF80810DCF8081088
:103C100041F480419AE700BF01229AE77047000013
:103C200070B504460068C5680669B10716D515F079
:103C3000020113D06FF00201016101212177806937
:103C4000800703D02046FFF7E9FF05E0204600F09B
:103C50008FF8204600F08EF800202077700719D5E5
:103C600015F0040016D020686FF0040101610221F4
:103C70002177806910F4407F04D02046FFF7CEFF03
:103C800006E000BF204600F073F8204600F072F80E
:103C900000202077300717D515F0080014D02068D1
:103CA0006FF00801016104212177C069800703D00A
:103CB0002046FFF7B3FF05E0204600F059F8204604
:103CC00000F058F800202077F00619D515F0100004
:103CD00016D020686FF01001016108212177C069BA
:103CE00010F4407F04D02046FFF798FF06E000BFA5
:103CF000204600F03DF8204600F03CF800202077F8
:103D0000F00718BF15F0010002D1300609D412E007
:103D100020686FF001010161204600F02DF83006A7
:103D200009D515F0800006D020686FF08001016190
:103D30002046FFF781FD700609D515F0400006D03A
:103D400020686FF040010161204600F083F9B00661
:103D500058BF70BD15F0200008D021686FF0200218
:103D600020460A61BDE87040FFF768BD70BD0000E5
:103D7000704700007047000040F23861C2F2000155
:103D8000884218BF704740F2DA10C2F20000018882
:103D90009FEDA70A01EE101AB8EE411A31EE001A93
:103DA000BDEEC12A12EE101A002948BF4942F0B5F3
:103DB00081B02DED108B86B040F27C141029C2F238
:103DC000000411D39FED9B2A81EE021A94ED002A84
:103DD00031EE029A84ED009A9FED971AB4EE419A63
:103DE000F1EE10FA09DD0FE094ED009A9FED921AC2
:103DF000B4EE419AF1EE10FA06DC9FED901AB4EEA3
:103E0000419AF1EE10FA03DAB0EE419A84ED001A0D
:103E1000408884ED039A01EE100AB8EE411A31EEA3
:103E2000000ABDEEC01A11EE100A002848BF404239
:103E3000102811D39FED7F1A80EE010A94ED011A2C
:103E400030EE010A84ED010A9FED7B1AB4EE410ABF
:103E5000F1EE10FA09DD0FE094ED010A9FED761AFC
:103E6000B4EE410AF1EE10FA06DC9FED741AB4EEDE
:103E7000410AF1EE10FA03DAB0EE410A84ED011ABC
:103E800040F21837C2F2000784ED040A97ED020BE6
:103E900097ED08AB51EC100B03F0D8FE08EE100ABA
:103EA000E06151EC1A0B03F0D1FE9FED65AA39EEEB
:103EB00048CA9FED64BA3CEE0A0A80EE0B0A09EE8E
:103EC000100A03F049FE9FED60DA40F64C0520EE43
:103ED0000D0A30EE0C0AC2F2000530EE080A284640
:103EE000F0EE480A01F04CFE40F65816C2F2000609
:103EF0003046F0EE490A84ED050A01F041FE9FEDDF
:103F000053CA9FED53EAB4EE4C0AF1EE10FAC8BF63
:103F1000B0EE4C0AB4EE4E0AF1EE10FAB8BFB0EEB5
:103F20004E0ABDEEC00A10EE100A97ED140B208168
:103F300097ED1A9B51EC100B03F088FE08EE100A67
:103F4000206251EC190B03F081FE94ED040A09EE96
:103F5000100A30EE48FA3FEE0A0A80EE0B0A03F030
:103F6000FBFD20EE0D0A30EE0F0A30EE080A05F1D7
:103F70004000F0EE480A01F003FE06F14000F0EECA
:103F8000490A84ED060A01F0FBFDB4EE4C0AF1EE9D
:103F900010FAC8BFB0EE4C0AB4EE4E0AF1EE10FAB9
:103FA000B8BFB0EE4E0ABDEEC00A218910EE100A6D
:103FB0000A0A87F8E110010A87F8E02087F8E21082
:103FC00087F8E30007F1DC02608107CA0025029050
:103FD00008208DF80C00CDE90012ADF8145002F065
:103FE000F3F901688A680021904701680A69694607
:103FF0009047D4E90701226944F8240F54F8180CBB
:1040000004F1040C8CE8270040F2C8604FF0FF4335
:10401000C2F2000021462022C4E9055300F05EFEF2
:1040200006B0BDEC108B01B0BDE8F040704700BF9A
:10403000000080C40000254400003442000034C267
:10404000000034430000B4430000B4C300401C46E9
:1040500000401CC67047000070B582B090F8425016
:10406000202D0BD113460A460146002A4FF00100CD
:1040700018BF002B06D102B070BD00BF022002B0F5
:1040800070BD00BF0863002622204E638A628B85C4
:104090004E6481F842000C680D46C86B45F2614CD5
:1040A00045F2C151C0F6000CC0F60001C0E90FC1D5
:1040B00045F2E521C0F60001C0E91316211DFEF707
:1040C000D9FEE8B3102068642020294685F8420014
:1040D00001200A6B012A40F0B380002200920A6896
:1040E0001368009352680092009A00BF0A6852E871
:1040F000032F0B6842F0100243E80326002EBAD0CB
:104100000A6852E8032F0B6842F0100243E80326C6
:10411000002EB0D00A6852E8032F0B6842F010025C
:1041200043E80326002EA6D00A6852E8032F0B6846
:1041300042F0100243E80326002ED7D19BE700BFD0
:10414000019628682946026801924068019001980A
:10415000286928B3086850E8030F0A6840F48070A3
:1041600042E80303E3B1086850E8030F0A6840F42B
:10417000807042E803039BB1086850E8030F0A68A7
:1041800040F4807042E8030353B1086850E8030F1D
:104190000A6840F4807042E80303002BDAD100BFC4
:1041A000086850E8050F0A6840F0010042E805037E
:1041B000BBB3086850E8050F0A6840F0010042E808
:1041C000050373B3086850E8050F0A6840F0010062
:1041D00042E805032BB3086850E8050F0A6840F071
:1041E000010042E80503002BDAD11AE0086850E824
:1041F000050F0A6840F0400042E80503DBB108689B
:1042000050E8050F0A6840F0400042E8050393B10A
:10421000086850E8050F0A6840F0400042E80503CE
:104220004BB1086850E8050F0A6840F0400042E8CA
:104230000503002BDAD100200A6B012A3FF44DAFB1
:10424000012002B070BD000040F21071C2F2000106
:10425000884218BF704710B5FEF72EFF40F2C0131A
:10426000C2F20003586000201946187011F8080FB8
:104270005A7A93F80AC062F30A2093F80BE0588345
:10428000D0086CF34A101C7B98834FEA8E0040EAFA
:104290009C1064F38A20D883587B620860F3CA12AA
:1042A0001A84820983F82220C0F30110D3F80E206B
:1042B00083F82300588A5A629A8A9C7D188540F2B6
:1042C00010705A85C2F2000032229C85BDE8104071
:1042D000FFF7C2BE70470000B0B582B001680A683F
:1042E000CC684B6902F02F05202D04F0200505D184
:1042F00025B102B0BDE8B04001F0CAB95FEA027C66
:104300001EBF03F0010E04F4907313EB0E0341D1B2
:10431000036BD50618D5012B16D114F0100313D05A
:10432000002201920A6801924A680192019A496941
:1043300049064BD4818DC28DC38D002B18BF91428D
:1043400040F0068202B0B0BD13062DD514F08003F4
:104350002AD090F84120212AF4D18268B2F5805FFA
:1043600003D10269002A00F07982026A531C0362B9
:1043700012784A60C28C013A1304C284E2D1C86840
:1043800020F08000C860C86840F04000C86002B0FB
:10439000B0BD00BFD30718BF14F4807340F0E280B3
:1043A000530700F1E580EAE05206CBD514F0400255
:1043B000C8D0CA6822F04002CA60202180F84110AB
:1043C00002B0BDE8B04000F0F3BC00BFC26B1168A2
:1043D0004B68858D99B2002900F0B480A94280F025
:1043E000B180C385D169B1F5807F00F0A0800168FC
:1043F00051E8031F026821F4807142E80313DBB126
:10440000016851E8031F026821F4807142E8031338
:1044100093B1016851E8031F026821F4807142E8FA
:1044200003134BB1016851E8031F026821F4807146
:1044300042E80313002BDAD1016851E8051F026836
:1044400021F0010142E80513BBB3016851E8051FE3
:10445000026821F0010142E8051373B3016851E8D5
:10446000051F026821F0010142E805132BB3016822
:1044700051E8051F026821F0010142E80513002BF5
:10448000DAD11AE0016851E8051F026821F0400105
:1044900042E80513DBB1016851E8051F026821F00D
:1044A000400142E8051393B1016851E8051F026815
:1044B00021F0400142E805134BB1016851E8051FA6
:1044C000026821F0400142E80513002BDAD12021D7
:1044D00080F8421000210163016851E8031F02685F
:1044E00021F0100142E80313DBB1016851E8031F1A
:1044F000026821F0100142E8031393B1016851E80A
:10450000031F026821F0100142E803134BB1016858
:1045100051E8031F026821F0100142E80313002B49
:10452000DAD1C16B04460846FEF7B6FA20460221EE
:104530004163818DC28D891A89B202B0BDE8B04055
:10454000FFF782BE8D427FF4FDAED269B2F5807F67
:104550007FF4F8AE0222426302B0BDE8B040FFF73C
:1045600073BE00BF436C43F001034364530706D599
:10457000BEF1000F03D0436C43F002034364930782
:1045800006D5BEF1000F03D0436C43F0040343642F
:10459000BCF1000F06D55EEA050303D0436C43F07F
:1045A00008034364436C002B3FF4CCAE920605D560
:1045B00025B1044601F06CF8216820464969426C37
:1045C00001F0400102F00802891800F0B98000BF34
:1045D000016851E8031F026821F4907142E8031357
:1045E000BBB3016851E8031F026821F4907142E8EF
:1045F000031373B3016851E8031F026821F490713B
:1046000042E803132BB3016851E8031F026821F449
:10461000907142E80313002BDAD11AE0016851E8E7
:10462000051F026821F0010142E80513DBB10168B2
:1046300051E8051F026821F0010142E8051393B11A
:10464000016851E8051F026821F0010142E80513E5
:104650004BB1016851E8051F026821F0010142E8F1
:104660000513002BDAD1016B012924D1016851E82F
:10467000031F026821F0100142E80313DBB1016857
:1046800051E8031F026821F0100142E8031393B1BF
:10469000016851E8031F026821F0100142E803138A
:1046A0004BB1016851E8031F026821F0100142E894
:1046B0000313002BDAD1202180F84210002101637E
:1046C00001684969490640F1C380016851E8051F46
:1046D000026821F0400142E80513DBB1016851E8AE
:1046E000051F026821F0400142E8051393B10168FB
:1046F00051E8051F026821F0400142E805134BB163
:10470000016851E8051F026821F0400142E80513E5
:10471000002BDAD1C16B002900F09A8045F2D92232
:10472000C0F60002044608460A65FEF7FDF90028B7
:104730003FF408AEE06B016D02B0BDE8B040084741
:104740000446FFF7C7FD0020606402B0B0BD00BFA3
:10475000891A00BF026852E8032F036822F490729E
:1047600043E80325BDB3026852E8032F036822F42F
:10477000907243E8032575B3026852E8032F03687B
:1047800022F4907243E803252DB3026852E8032F08
:10479000036822F4907243E80325002DDAD11AE071
:1047A000026852E8052F036822F0010243E805255C
:1047B000DDB1026852E8052F036822F0010243E8E8
:1047C000052595B1026852E8052F036822F0010221
:1047D00043E805254DB1026852E8052F036822F031
:1047E000010243E80525002DDAD1202280F842207D
:1047F00000220263026852E8032F036822F01002CD
:1048000043E80325DDB1026852E8032F036822F074
:10481000100243E8032595B1026852E8032F0368AC
:1048200022F0100243E803254DB1026852E8032F3D
:10483000036822F0100243E80325002DDAD102229A
:1048400089B2426302B0BDE8B040FFF7FDBC00BFD3
:1048500002B0BDE8B040FFF73DBD00BF026A32F8CC
:10486000023B6FF35F234B60026283E5002804BFC5
:104870000120704710B5044690F8410028B9002087
:1048800084F84000204600F021F8242084F84100FC
:104890002068C16821F40051C160204600F078FF13
:1048A0002068016921F490410161416921F02A01E8
:1048B0004161C16841F40051C16000202021606461
:1048C00084F8411084F84210606310BD2DE9F04374
:1048D00087B00446006844F60001C4F200010026D7
:1048E0008842CDE90566CDE90366029600F0CC80EA
:1048F00041F20041C4F2010188426DD041F2000151
:10490000C4F20101884240F0BC8043F630000196B9
:10491000C4F20200416946F2280841F010014161E9
:104920004169C4F2020801F0100101910199019658
:10493000016841F002010160006802A900F0020074
:1049400001900198C02002900220CDE903060320C7
:1049500005900720069040F20040C4F20200FEF7E6
:10496000DBFA40F2B84508F58360C2F200054FF06B
:1049700000674FF48069C5E900072846C5E902666B
:10498000C5E90496C5E90666C5E90866FEF7C0F9FB
:10499000002818BFFDF734FCE563AC6340F21855FE
:1049A00008F59260C2F200054021C5E9000705F153
:1049B000080080E842022846C5E90566C5E90766A1
:1049C0006E62FEF7A5F900284FF025064FF0380774
:1049D00018BFFDF715FC4AE043F630000196C4F21B
:1049E0000200416941F020014161416901F020016B
:1049F000019101990196016841F040010160006850
:104A000002A900F04000019001984FF48440029008
:104A10000220CDE90306032005900820069040F20D
:104A20000040C4F2020000F5A050FEF775FA46F20D
:104A30002800C4F2020040F2D85500F58060C2F2AE
:104A400000054FF020614FF4806285E8430028465E
:104A5000C5E90362C5E90566C5E907666E62FEF74A
:104A600057F947264FF03C0708B1FDF7C9FB304620
:104A700005210022E551AC63FEF7A6FB3046FEF7A8
:104A800091FB07B0BDE8F08343F630000196C4F215
:104A90000200016941F480210161016901F4802172
:104AA000019101990196016841F0040101600068DB
:104AB00002A900F00400019001984FF440600290B8
:104AC0000220CDE90306032005900720069040F25E
:104AD0000040C4F2020000F58060FEF71DFA40F2CB
:104AE000785546F22800C2F20005C4F202004FF0E9
:104AF00000614FF4806285E843002846C5E90362FF
:104B0000C5E90566C5E907666E62FEF701F9272665
:104B100000284FF03C07A8D1A9E7000070B582B08B
:104B200090F84250202D0BD113460A460146002A28
:104B30004FF0010018BF002B06D102B070BD00BFBE
:104B4000022002B070BD00BF002622200E638A62E0
:104B50008B854E6481F842000C680D46C86B45F2A7
:104B6000614C45F2C151C0F6000CC0F60001C0E92D
:104B70000FC145F2E521C0F60001C0E91316211D61
:104B8000FEF778F940B110206864202085F84200D3
:104B9000012002B070BD00BF019628682946026856
:104BA0000192406801900198286928B3086850E88C
:104BB000030F0A6840F4807042E80303E3B1086819
:104BC00050E8030F0A6840F4807042E803039BB189
:104BD000086850E8030F0A6840F4807042E8030355
:104BE00053B1086850E8030F0A6840F4807042E847
:104BF0000303002BDAD100BF086850E8050F0A68EC
:104C000040F0010042E80503DBB3086850E8050FF7
:104C10000A6840F0010042E8050393B3086850E8D1
:104C2000050F0A6840F0010042E805034BB308682D
:104C300050E8050F0A6840F0010042E80503002B28
:104C4000DAD11EE0086850E8050F0A6840F040001D
:104C500042E80503FBB1086850E8050F0A6840F018
:104C6000400042E80503B3B1086850E8050F0A6840
:104C700040F0400042E80503002B4FF000003FF4F5
:104C80005CAF086850E8050F0A6840F0400042E851
:104C90000503002BD6D1002002B070BD40F2587140
:104CA000C2F20001884218BF704710B540F60C04EC
:104CB00040F2A070C2F20004C2F20000214601F0EE
:104CC0000DF840F25870C2F2000021464022BDE8C3
:104CD0001040FFF723BF000070470000B0B590F808
:104CE0004140202C1CBF0220B0BD134602460029C3
:104CF0004FF0010018BF002B00D1B0BD4FF0000CE9
:104D0000212011629384D384C2F844C082F8410008
:104D100014681546906B45F2D95E45F28962C0F67B
:104D2000000EC0F60002C0E90FE245F2E522C0F62F
:104D30000002C0E9132C221DFEF79CF830B11020B0
:104D40006864202085F841000120B0BD286829460C
:104D50006FF04002026000BF086850E8050F0A6863
:104D600040F0800042E8050303B3086850E8050FEF
:104D70000A6840F0800042E80503BBB1086850E8CB
:104D8000050F0A6840F0800042E8050373B1086827
:104D900050E8050F0A6840F0800042E80503002B48
:104DA0004FF0000008BFB0BDD6E700BF0020B0BD87
:104DB0007047000070470000FEE7000080B540F239
:104DC000684046F20041C2F20000C4F20001032232
:104DD000002380E80E0000F10C014FF4002C4FF48A
:104DE000401E81E8085083618383FDF7D3FC0028CF
:104DF00008BF80BDBDE88040FDF702BA80B540F233
:104E0000904046F60001C2F20000C4F20001002307
:104E1000102280E80E00C0E90333C0E90533838324
:104E2000FDF7B8FC002808BF80BDBDE88040FDF755
:104E3000E7B9000080B582B0002043F63001019050
:104E4000C4F202010A6842F400120A600A6802F41D
:104E500000120192019A00900868002240F480003C
:104E600008600868052100F48000009000980C207C
:104E7000FEF7AAF90C20FEF795F93920052100224A
:104E8000FEF7A2F93920FEF78DF93A20052100221C
:104E9000FEF79AF93A20FEF785F94620052100220F
:104EA000FEF792F9462002B0BDE88040FEF77AB9DD
:104EB00081B0002143F630000091C4F20200026884
:104EC00042F002020260026802F002020092009ABE
:104ED0000091026842F040020260026802F0400263
:104EE0000092009A0091026842F008020260026893
:104EF00002F008020092009A0091026842F0040257
:104F00000260026802F004020092009A00910168B7
:104F100041F080010160006800F08000009000987E
:104F200001B0704780B586B040F2386040F2004270
:104F30000021C2F20000C4F2000242F2CF034FF09F
:104F4000090C0591CDE90311CDE90011C0E9002359
:104F5000C0E9021C01618161FEF7D0FC002818BF86
:104F6000FDF74EF94FF48050029040F23860C2F2E3
:104F7000000002A9FEF782FD002818BFFDF740F9E6
:104F800040F23860C2F200006946FEF759FC002882
:104F900018BFFDF735F906B080BD000080B586B0BA
:104FA00040F2806040F600020021C2F20000C4F22C
:104FB00000024FF6FF730591CDE90311CDE9001111
:104FC000C0E90021C0E9021301618161FEF796FC8E
:104FD000002818BFFDF714F94FF48050029040F2FA
:104FE0008060C2F2000002A9FEF748FD002818BF49
:104FF000FDF706F940F28060C2F200006946FEF754
:105000001FFC002818BFFDF7FBF806B080BD0000AC
:1050100080B540F2C86041F20001C2F20000C4F263
:10502000010100234FF00C0C4FF4E13280E80E0038
:10503000C0E90333C0E905C3C361FFF717FC0028CB
:1050400008BF80BDBDE88040FDF7DAB880B540F20A
:10505000107044F60001C2F20000C4F20001002307
:105060004FF00C0C4FF4E13280E80E00C0E903333E
:10507000C0E905C3C361FFF7F9FB002808BF80BD85
:10508000BDE88040FDF7BCB880B540F2587041F2F1
:105090000041C2F20000C4F2010100234FF00C0CE9
:1050A0004FF4E13280E80E00C0E90333C0E905C3E4
:1050B000C361FFF7DBFB002808BF80BDBDE880406F
:1050C000FDF79EB8FEE70000FEE7000000000000CC
:1050D000EFF30980BFF36F8F154B1A681EF0100FA6
:1050E00008BF20ED108A20E9F04F10602DE909007B
:1050F0004FF0500080F31188BFF34F8FBFF36F8FD5
:1051000001F01AFF4FF0000080F31188BDE809009C
:1051100019680868B0E8F04F1EF0100F08BFB0EC37
:10512000108A80F30988BFF36F8F704700BF00BFFC
:105130004802002000000000000000000000000005
:10514000074B19680868B0E8F04F80F30988BFF38F
:105150006F8F4FF0000080F31188704700BF00BFD1
:105160004802002080B5FDF7ADFF01F0F9FF0128EE
:1051700008BF80BDBDE8804001F0DABF4EF6885020
:10518000CEF20000016841F4700101607047000038
:1051900040F23860C2F20000FEF742BDB0B540F602
:1051A000FF3E0568C4F2000E40F2004C7045C4F2A8
:1051B000010C25DCB0F1804F2FD040F20043C4F247
:1051C0000003984229D040F60003C4F2000398423D
:1051D00023D041F6FF73C4F20003984228DC7045E7
:1051E0003ADCB0F1804F5BD040F20043C4F20003E0
:1051F000984255D040F60003C4F200034EE000BFD1
:1052000040F60043C4F20003984206D0604504D043
:105210000023C4F201039842DBD14B6825F07002F1
:1052200043EA020541F6FF73C4F200039842D6DD5B
:1052300043F6FF73C4F2010398421FDC42F20003FD
:10524000C4F2000398422BD00023C4F20103984219
:1052500026D0604524D028E040F60043C4F2000385
:1052600098421DD041F60003C4F20003984217D0C3
:1052700041F60043C4F2000310E000BF44F2000313
:10528000C4F2010398420BD044F60003C4F20103B8
:10529000984205D044F20043C4F20103984204D17D
:1052A000CB6825F4407243EA02050A688C684B69B2
:1052B000C46240F480648262644504BF096901638A
:1052C000026825F0800142F00402194302600122C5
:1052D00042610160B0BD0000806B0021C185FEF716
:1052E000F9BF0000806B01684A6990F84130212BBA
:1052F0002DD112F080022AD00021C184016851E82A
:10530000031F026821F0C00142E80313DBB101680A
:1053100051E8031F026821F0C00142E8031393B172
:10532000016851E8031F026821F0C00142E803133D
:105330004BB1016851E8031F026821F0C00142E847
:105340000313002BDAD1202180F84110016849694C
:1053500090F84220222A40F07D8011F0400179D05F
:105360000021C185016851E8031F026821F4907192
:1053700042E80313BBB3016851E8031F026821F43C
:10538000907142E8031373B3016851E8031F026888
:1053900021F4907142E803132BB3016851E8031F15
:1053A000026821F4907142E80313002BDAD11AE06D
:1053B000016851E8051F026821F0010142E8051368
:1053C000DBB1016851E8051F026821F0010142E8E4
:1053D000051393B1016851E8051F026821F001012E
:1053E00042E805134BB1016851E8051F026821F03E
:1053F000010142E80513002BDAD1016B012924D108
:10540000016851E8031F026821F0100142E803130C
:10541000DBB1016851E8031F026821F0100142E886
:10542000031393B1016851E8031F026821F01001D2
:1054300042E803134BB1016851E8031F026821F0F1
:10544000100142E80313002BDAD1202180F842102A
:1054500000210163416C41F010014164FEF73ABF45
:105460000168806B0968C90500F19F800021C18532
:10547000016851E8031F026821F4807142E80313B8
:10548000E3B1016851E8031F026821F4807142E82A
:1054900003139BB1016851E8031F026821F4807176
:1054A00042E8031353B1016851E8031F026821F475
:1054B000807142E80313002BDAD100BF016851E884
:1054C000051F026821F0010142E80513BBB3016822
:1054D00051E8051F026821F0010142E8051373B38A
:1054E000016851E8051F026821F0010142E8051337
:1054F0002BB3016851E8051F026821F0010142E861
:105500000513002BDAD11AE0016851E8051F026883
:1055100021F0400142E80513DBB1016851E8051FA5
:10552000026821F0400142E8051393B1016851E897
:10553000051F026821F0400142E805134BB10168E4
:1055400051E8051F026821F0400142E80513002BD5
:10555000DAD1202180F84210016B012925D100BF4A
:10556000016851E8031F026821F0100142E80313AB
:10557000DBB1016851E8031F026821F0100142E825
:10558000031393B1016851E8031F026821F0100171
:1055900042E803134BB1016851E8031F026821F090
:1055A000100142E80313002BDAD100214163016BA3
:1055B000012918BFFFF772BB818DFEF745BE0000C1
:1055C000806B01214163016B012918BFFFF784BB88
:1055D000818D4908FEF738BE0168806B0968C905EE
:1055E00048BFFFF7E5BB0021C18400BF016851E857
:1055F000051F026821F0800142E8051383B30168AA
:1056000051E8051F026821F0800142E805133BB311
:10561000016851E8051F026821F0800142E8051386
:10562000F3B1016851E8051F026821F0800142E8EA
:105630000513002BDAD113E0016851E8031F02685B
:1056400041F0400142E80313002B08BF7047016896
:1056500051E8031F026841F0400142E8031393B18F
:10566000016851E8031F026841F0400142E803135A
:105670004BB1016851E8031F026841F0400142E864
:105680000313002BD8D17047806BFFF793BB00004A
:1056900081B090F84210222921D183680246B3F5E7
:1056A000805F09D152F8281F52F8183C002B63D0B4
:1056B00003685B680AE000BF52F8281F13B903694A
:1056C000002BF5D003685B6803F07F030B70116853
:1056D00001311160C18D01390A04C18502D001B0C8
:1056E000704700BF0168CA6822F02002CA60CA6819
:1056F00022F48072CA604A6922F001024A612021C4
:1057000080F8421000214163026B012A3CD1016301
:10571000016851E8031F026821F0100142E80313F9
:10572000DBB1016851E8031F026821F0100142E873
:10573000031393B1016851E8031F026821F01001BF
:1057400042E803134BB1016851E8031F026821F0DE
:10575000100142E80313002BDAD101680A68D2066F
:1057600006D5002200920A680092496800910099CB
:10577000818D01B0FEF768BD026852686FF35F2249
:1057800021F8022B8162A5E701B0FFF787BA00007C
:10579000B0B50446006804F108030ECB056919434F
:1057A00025F440552A4302616269E3691143C268E6
:1057B000194349F20C639A431143C1604169A269DC
:1057C00021F4407141F20043114340F48062C4F27D
:1057D00001039A42416103D1FDF7F8FD02E000BFE9
:1057E000FDF7E0FDE1694FF69C7563681922C0F68C
:1057F000FF75B1F5004FA0FB02011FD15A00DB0F6E
:10580000FAF7AAFD48F21F51C5F2EB11A0FB0123E4
:105810005A0905F1805302FB0300322303EBC00059
:10582000A0FB01014FF4F87000EA111000EB021028
:10583000C1F34211084421688860B0BD9A009B0FF3
:10584000FAF78AFD48F21F51C5F2EB11A0FB0123C4
:105850005A0902FB0500322303EB0010A0FB0101F3
:10586000F02000EA511000EB0210C1F3431108448C
:1058700021688860B0BD000040F2C860C2F200003C
:10588000FEF72ABD40F21070C2F20000FEF724BD00
:1058900040F25870C2F20000FEF71EBDFEE70000A5
:1058A00070B52DED0A8B40F2183246F26663C2F2F3
:1058B00000020020C3F6E6734FF401710026C2E92E
:1058C00041300023A2F8C2100021C4F20806C4F23D
:1058D000C003C3F6F071C2F814614EF6D536C2E9C2
:1058E000460302F59473C2F8FC10CFF27B3643C333
:1058F000C2E9520140F201210025A2F8D81040F27D
:10590000FF11C4F2D005C2F8DC1048F25C51C2E9C4
:1059100043504CF6E965C0F600014FF06634C3F61B
:10592000BA750831C2F8004148F20004C2F8345197
:105930000025116040F2A0714FF0640E4FF0010C91
:10594000C3F6A674C3F62875C2F2000182F8C0003F
:10595000C2E927E0C2E9290CC2E92CE0C2E92E0C19
:10596000C2F8F800C2E94804C2E95005C1E902E002
:10597000C1E9040C088581F82A0048F24C50C0F6B1
:10598000000008304CF6CC4308600620C3F62073B4
:105990004FF0CC34C86201F130003C21C2E94E43E3
:1059A000FAF789FD9FED299A9FED29AA9FED29BA63
:1059B0009FED29CA40F64C00B1EE048AC2F2000005
:1059C000B0EE480AF0EE490AB0EE491AF0EE4A1A73
:1059D000B0EE4B2AF0EE4C2A00F06CF94030B0EEFD
:1059E000480AF0EE490AB0EE491AF0EE4A1AB0EE53
:1059F0004B2AF0EE4C2A00F05DF99FED18BA9FEDAE
:105A000018CA40F65810C2F20000B0EE480AF0EE94
:105A1000490AB0EE491AF0EE4B1AB0EE4A2AF0EEFF
:105A20004C2A00F047F94030B0EE480AF0EE490A3F
:105A3000B0EE491AF0EE4B1AB0EE4A2AF0EE4C2ABC
:105A4000BDEC0A8BBDE8704000F034B900000000E6
:105A500000409C4500007A440000C84200401C46BB
:105A60000000FA4370B592B006AC20463021FAF738
:105A700022FD002543F640000595CDE90355CDE90B
:105A800001550095C4F202000168022641F08051E0
:105A90000160006800F080500090009847F200001C
:105AA0000095C4F20000016841F480410160006883
:105AB00000F4804000900098012006904FF4803060
:105AC00007904FF480000D9006200E90A820CDE99D
:105AD0000F060420119020460C96FDF7C1FC98B9E2
